:020000040800F2
:1000000030090020C500000875300008712900087B
:1000100000000000000000000000000000000000E0
:100020000000000000000000000000003D32000859
:100030000000000000000000BD3000084132000850
:10004000D700000800000000D7000008D700000813
:10005000D7000008D7000008D7000008D700000824
:10006000000000003D14000855140008D7000008E7
:10007000D7000008D7000008D700000800000000E3
:10008000D70000080000000000000000D7000008B2
:1000900000000000D7000008D7000008D7000008C3
:1000A00000000000D70000080000000085370008AD
:1000B0000348854600F03CF800480047A93900088D
:1000C000300900200448804704480047FEE7FEE767
:1000D000FEE7FEE7FEE7FEE729330008B10000086F
:1000E00030B50B46014600202022012409E00D46D0
:1000F000D5409D4205D31D469540491B2546954058
:1001000040191546521E002DF1DC30BDD2B201E07F
:100110000270401C491EFBD270470022F6E710B562
:1001200013460A4604461946FFF7F0FF204610BD65
:10013000064C0125064E05E0E36807CC2B430C3C3A
:1001400098471034B442F7D3FFF7B6FF2861000890
:100150004861000810B51D481D49008848800246C6
:10016000FF24303AC83401231A49A24201D80B7047
:100170001FE00446FF3CFF22F83CF832944201D8CD
:10018000022215E0144C0419944201D803220FE016
:10019000124C0419944201D8042209E0104C0419AD
:1001A000944201D8052203E00E4A904201D3062270
:1001B0000A700D4A302803D200201070087000E049
:1001C00013700A491078087010BD000074030020F5
:1001D000440000204000002012FCFFFF1BFAFFFF3C
:1001E00024F8FFFFD3090000430000204100002055
:1001F00070B5044600688168490720D581681026DB
:100200004907002905DA8168890702D481683143EA
:10021000816001F01FFE05460DE001F01BFE401B52
:10022000022808D9606C30436064A06C0121084347
:10023000A064084670BD206880684007EDD40020A7
:1002400070BD10B50146406A426C50231A420AD173
:10025000416C01225202114341640168CA681205CF
:10026000920F05D020E0C06B026B0846904710BD8E
:10027000026A002A18D10A68120715D58A6853073E
:100280000122002B09DB4B680C24A3434B60416C1B
:10029000130299431143416406E0416C2023194342
:1002A0004164816C1143816401F0A8FA10BD10B55E
:1002B000406A416C402211434164816C0422114325
:1002C000816401F09DFA10BD10B5406A01F097FA03
:1002D00010BDF8B50446006881688907890F0129B7
:1002E00028D10168C90702D1C168090422D58168F3
:1002F000052211401025012601290FD18168022213
:100300001143816021680320086001F0A3FD0746C6
:100310000CE001F09FFDC01B022807D9606C284348
:100320006064A06C3043A0640120F8BD2068806840
:10033000C007EED10020F8BDF8B5044600200090BB
:10034000206881688907890F012905D10168C907DB
:100350002CD1C168090429D48168154A102611409E
:100360000125002915D1816829438160124811496E
:100370000068FFF7B5FE00E0401E00900028FBD1AA
:1003800001F068FD07460CE001F064FDC01B022887
:1003900007D9606C30436064A06C2843A0640120DE
:1003A000F8BD20680068C043C007EDD10020F8BD4B
:1003B0001700008040420F0048000020F0B5FE4BBF
:1003C000D878401CC0B2D87005287DD90026DE70D0
:1003D0009978FA4800290DD1F94C0022A55C855482
:1003E000A518871820352037521C2D79D2B23D71BF
:1003F000242AF3D301290ED1F14C00224834A55C04
:100400008554A518871820352037521C2D79D2B273
:100410003D71242AF3D302290ED1E94C0022B434D1
:10042000A55C8554A518871820352037521C2D79D6
:10043000D2B23D71242AF3D303290DD1E14C00221D
:10044000A55C8554A518871820352037521C2D79B6
:10045000D2B23D71242AF3D3DA4BD83304290ED11A
:1004600000221F466C3FBC5C84549C1885182034C5
:100470002035521C2479D2B22C71242AF3D3CE4FCA
:1004800005290CD100229C5C84549C1885182034CA
:100490002035521C2479D2B22C71242AF3D3062998
:1004A0000DD1C94B00229C5C84549C1885182034C3
:1004B0002035521C2479D2B22C71242AF3D3072977
:1004C00010D10022C04B00E0B5E36C339C5C845437
:1004D0009C18851820342035521C2479D2B22C71F6
:1004E000242AF3D308290ED1B74B0022D8339C5CC1
:1004F00084549C18851820342035521C2479D2B29B
:100500002C71242AF3D309290DD1B04B00229C5C15
:1005100084549C18851820342035521C2479D2B27A
:100520002C71242AF3D30A290ED1A84B00226C3354
:100530009C5C84549C18851820342035521C2479E6
:10054000D2B22C71242AF3D30B290ED19F4B002257
:10055000D8339C5C84549C18851820342035521C58
:100560002479D2B22C71242AF3D30C290DD1984BC3
:1005700000229C5C84549C18851820342035521C21
:100580002479D2B22C71242AF3D30D290ED1904BA9
:1005900000226C339C5C84549C18851820342035D0
:1005A000521C2479D2B22C71242AF3D30E290ED1F5
:1005B000874B0022D8339C5C84549C1885182034C7
:1005C0002035521C2479D2B22C71242AF3D30F295E
:1005D0000DD1804B00229C5C84549C1885182034DB
:1005E0002035521C2479D2B22C71242AF3D310293D
:1005F0000ED1784B00226C339C5C84549C18851877
:1006000020342035521C2479D2B22C71242AF3D301
:1006100011290ED16F4B0022D8339C5C84549C1856
:10062000851820342035521C2479D2B22C71242A0A
:10063000F3D312290DD1684B00229C5C84549C1882
:10064000851820342035521C2479D2B22C71242AEA
:10065000F3D313290ED1604B00226C339C5C84547D
:100660009C18851820342035521C2479D2B22C7164
:10067000242AF3D314290ED1574B0022D8339C5C83
:1006800084549C18851820342035521C2479D2B209
:100690002C71242AF3D315290DD1504B00229C5CD8
:1006A00084549C18851820342035521C2479D2B2E9
:1006B0002C71242AF3D316290ED1484B00226C3317
:1006C0009C5C84549C18851820342035521C247955
:1006D000D2B22C71242AF3D317290ED13F4B00221A
:1006E000D8339C5C84549C18851820342035521CC7
:1006F0002479D2B22C71242AF3D318290DD1384B86
:1007000000229C5C84549C18851820342035521C8F
:100710002479D2B22C71242AF3D319290ED1304B6B
:1007200000226C339C5C84549C188518203420353E
:10073000521C2479D2B22C71242AF3D31A290ED157
:10074000274B0022D8339C5C84549C188518203495
:100750002035521C2479D2B22C71242AF3D31B29C0
:100760000DD1204B00229C5C84549C1885182034A9
:100770002035521C2479D2B22C71242AF3D31C299F
:100780000ED1184B00226C339C5C84549C18851845
:1007900020342035521C2479D2B22C71242AF3D370
:1007A0001D2927D10F4B0022D8339C5C84549C1800
:1007B00020342479851817E03A00002078010020C1
:1007C000F8390008183B00085C3C0008A03D000810
:1007D000E43E0008284000086C410008B0420008D0
:1007E000F4430008384500082035521CD2B22C7161
:1007F000242ADAD31E290DD1FE4B00229C5C84549E
:100800009C18851820342035521C2479D2B22C71C2
:10081000242AF3D31F290ED1F64B00226C339C5CA3
:1008200084549C18851820342035521C2479D2B267
:100830002C71242AF3D320290ED1EE4B0022D83379
:100840009C5C84549C18851820342035521C2479D3
:10085000D2B22C71242AF3D321290DD1E64B0022E8
:100860009C5C84549C18851820342035521C2479B3
:10087000D2B22C71242AF3D322290ED1DE4B0022CE
:100880006C339C5C84549C18851820342035521C91
:100890002479D2B22C71242AF3D323290ED1D64B3A
:1008A0000022D8339C5C84549C1885182034203551
:1008B000521C2479D2B22C71242AF3D324290DD1CD
:1008C000CE4B00229C5C84549C1885182034203523
:1008D000521C2479D2B22C71242AF3D325290ED1AB
:1008E000C64B00226C339C5C84549C1885182034C1
:1008F0002035521C2479D2B22C71242AF3D3262914
:100900000ED1BE4B0022D8339C5C84549C188518B1
:1009100020342035521C2479D2B22C71242AF3D3EE
:1009200027290DD1B64B00229C5C84549C18851855
:1009300020342035521C2479D2B22C71242AF3D3CE
:1009400028290ED1AE4B00226C339C5C84549C1839
:10095000851820342035521C2479D2B22C71242AD7
:10096000F3D329290ED1A64B0022D8339C5C8454A2
:100970009C18851820342035521C2479D2B22C7151
:10098000242AF3D32A290DD19E4B00229C5C845447
:100990009C18851820342035521C2479D2B22C7131
:1009A000242AF3D32B290ED1964B00226C339C5C66
:1009B00084549C18851820342035521C2479D2B2D6
:1009C0002C71242AF3D32C290ED18E4B0022D8333C
:1009D0009C5C84549C18851820342035521C247942
:1009E000D2B22C71242AF3D32D290DD1864B0022AB
:1009F0009C5C84549C18851820342035521C247922
:100A0000D2B22C71242AF3D32E290ED17E4B002290
:100A10006C339C5C84549C18851820342035521CFF
:100A20002479D2B22C71242AF3D32F290ED1764BFC
:100A30000022D8339C5C84549C18851820342035BF
:100A4000521C2479D2B22C71242AF3D330290DD12F
:100A50006E4B00229C5C84549C18851820342035F1
:100A6000521C2479D2B22C71242AF3D331290ED10D
:100A7000664B00226C339C5C84549C18851820348F
:100A80002035521C2479D2B22C71242AF3D3322976
:100A90000ED15E4B0022D8339C5C84549C18851880
:100AA00020342035521C2479D2B22C71242AF3D35D
:100AB00033290DD1564B00229C5C84549C18851818
:100AC00020342035521C2479D2B22C71242AF3D33D
:100AD00034290ED14E4B00226C339C5C84549C18FC
:100AE000851820342035521C2479D2B22C71242A46
:100AF000F3D335290ED1464B0022D8339C5C845465
:100B00009C18851820342035521C2479D2B22C71BF
:100B1000242AF3D336290DD13E4B00229C5C845409
:100B20009C18851820342035521C2479D2B22C719F
:100B3000242AF3D337290ED1364B00226C339C5C28
:100B400084549C18851820342035521C2479D2B244
:100B50002C71242AF3D338290ED12E4B0022D833FE
:100B60009C5C84549C18851820342035521C2479B0
:100B7000D2B22C71242AF3D339290DD1264B00226D
:100B80009C5C84549C18851820342035521C247990
:100B9000D2B22C71242AF3D33A290ED11E4B002253
:100BA0006C339C5C84549C18851820342035521C6E
:100BB0002479D2B22C71242AF3D33B290ED1164BBF
:100BC0000022D8339C5C84549C188518203420352E
:100BD000521C2479D2B22C71242AF3D33C2924D17B
:100BE0000E4B00229C5C84549C1820348518247978
:100BF000203515E07C460008C0470008044900087D
:100C0000484A00088C4B0008D04C0008144E0008DD
:100C1000584F00089C500008E05100082453000879
:100C2000521CD2B22C71242ADCD3491CC8B2B87031
:100C30003D2800D3BE70F0BDF0B5FE4BD878401C07
:100C4000C0B2D87013287DD90025DD709978FA4894
:100C500000290DD1F94C0022A65C8654A6188718ED
:100C600020362037521C3679D2B23E71242AF3D373
:100C700001290ED1F14C00224834A65C8654A618F6
:100C8000871820362037521C3679D2B23E71242A7A
:100C9000F3D302290ED1E94C00229034A65C86548D
:100CA000A618871820362037521C3679D2B23E71EA
:100CB000242AF3D303290ED1E04C0022D834A65CB9
:100CC0008654A618871820362037521C3679D2B29F
:100CD0003E71242AF3D304290DD1D94C0022A65CFD
:100CE0008654A618871820362037521C3679D2B27F
:100CF0003E71242AF3D305290ED1D14C0022483469
:100D0000A65C8654A618871820362037521C3679E0
:100D1000D2B23E71242AF3D306290ED1C84C002248
:100D20009034A65C8654A618871820362037521CAB
:100D30003679D2B23E71242AF3D3072910D100228A
:100D4000BF4C00E02DE2D834A65C8654A618871864
:100D500020362037521C3679D2B23E71242AF3D382
:100D600008290DD1B74C0022A65C8654A618871816
:100D700020362037521C3679D2B23E71242AF3D362
:100D800009290ED1AF4C00224834A65C8654A6181F
:100D9000871820362037521C3679D2B23E71242A69
:100DA000F3D30A290ED1A74C00229034A65C8654B6
:100DB000A618871820362037521C3679D2B23E71D9
:100DC000242AF3D30B290ED19E4C0022D834A65CE2
:100DD0008654A618871820362037521C3679D2B28E
:100DE0003E71242AF3D30C290DD1974C0022A65C26
:100DF0008654A618871820362037521C3679D2B26E
:100E00003E71242AF3D30D290ED18F4C0022483491
:100E1000A65C8654A618871820362037521C3679CF
:100E2000D2B23E71242AF3D30E290ED1864C002271
:100E30009034A65C8654A618871820362037521C9A
:100E40003679D2B23E71242AF3D30F290ED17E4CCB
:100E50000022D834A65C8654A6188718203620377E
:100E6000521C3679D2B23E71242AF3D310290DD107
:100E7000764C0022A65C8654A618871820362037A8
:100E8000521C3679D2B23E71242AF3D311290ED1E5
:100E90006E4C00224834A65C8654A618871820366B
:100EA0002037521C3679D2B23E71242AF3D312294C
:100EB0000ED1664C00229034A65C8654A618871882
:100EC00020362037521C3679D2B23E71242AF3D311
:100ED00013290ED15D4C0022D834A65C8654A61886
:100EE000871820362037521C3679D2B23E71242A18
:100EF000F3D314290DD1564C0022A65C8654A618B3
:100F0000871820362037521C3679D2B23E71242AF7
:100F1000F3D315290ED14E4C00224834A65C8654DA
:100F2000A618871820362037521C3679D2B23E7167
:100F3000242AF3D316290ED1454C00229034A65C06
:100F40008654A618871820362037521C3679D2B21C
:100F50003E71242AF3D317290ED13D4C0022D834F8
:100F6000A65C8654A618871820362037521C36797E
:100F7000D2B23E71242AF3D318290DD1354C002268
:100F8000A65C8654A618871820362037521C36795E
:100F9000D2B23E71242AF3D319290ED12D4C00224E
:100FA0004834A65C8654A618871820362037521C71
:100FB0003679D2B23E71242AF3D31A290ED1254CA8
:100FC00000229034A65C8654A61887182036203755
:100FD000521C3679D2B23E71242AF3D31B290ED18A
:100FE0001C4C0022D834A65C8654A61887182036DC
:100FF0002037521C3679D2B23E71242AF3D31C29F1
:101000000DD1154C0022A65C8654A61887182036F0
:101010002037521C3679D2B23E71242AF3D31D29CF
:1010200023D10D4C00224834A65C8654A6182036E5
:10103000367913E03A000020780100209053000830
:10104000B0540008D0550008F056000810580008A9
:1010500030590008505A0008705B00088718203784
:10106000521CD2B23E71242ADED31E290DD14D4C22
:101070000022A65C8654A618871820362037521CFA
:101080003679D2B23E71242AF3D31F290ED1454CB2
:1010900000224834A65C8654A618871820362037CC
:1010A000521C3679D2B23E71242AF3D320290ED1B4
:1010B0003C4C00229034A65C8654A6188718203633
:1010C0002037521C3679D2B23E71242AF3D321291B
:1010D0000ED1344C0022D834A65C8654A61887184A
:1010E00020362037521C3679D2B23E71242AF3D3EF
:1010F00022290DD12C4C0022A65C8654A6188718F4
:1011000020362037521C3679D2B23E71242AF3D3CE
:1011100023290ED1244C00224834A65C8654A618FC
:10112000871820362037521C3679D2B23E71242AD5
:10113000F3D324290ED11C4C00229034A65C865493
:10114000A618871820362037521C3679D2B23E7145
:10115000242AF3D325290ED1134C0022D834A65CBF
:101160008654A618871820362037521C3679D2B2FA
:101170003E71242AF3D326290DD10C4C0022A65C03
:101180008654A618871820362037521C3679D2B2DA
:101190003E71242AF3D3491CC8B29870282800D382
:1011A0009D70F0BD005C0008205D0008405E0008F6
:1011B00030B55F490123CC7900225E48002C01D074
:1011C0000A7123E00C79641CE4B20C71642C1DD309
:1011D00064230B710A704A71CB785B1CDBB2CB7055
:1011E000272B21D04E2B2FD0752B0ED3CA70524AED
:1011F0000021535C4354531820331C794318203387
:10120000491CC9B21C712429F3D330BD0B70CA70BC
:101210004B795B1CDBB24B71052BF6D94A718A798D
:101220008A70012A20D02EE0434A0021903A535C74
:101230004354531820331C7943182033491CC9B236
:101240001C712429F3D330BD3B4A0021483A535C3A
:101250004354531820331C7943182033491CC9B216
:101260001C712429F3D330BD334B002148335C5C1F
:1012700044545C18451820342035491C2479C9B2DF
:101280002C712429F3D3022A0ED12B4B0021903349
:101290005C5C44545C18451820342035491C247982
:1012A000C9B22C712429F3D3032A0ED1224B002179
:1012B000D8335C5C44545C182034257944182034BD
:1012C000491CC9B225712429F3D3042A0DD11B4B23
:1012D00000215C5C44545C18203425794418203487
:1012E000491CC9B225712429F3D3052A0ED1134B09
:1012F000002148335C5C44545C1820342579441840
:101300002034491CC9B225712429F3D3062AAAD155
:101310000A4A00219032535C4354531820331C79FD
:1013200043182033491CC9B21C712429F3D330BDA2
:101330003A00002078010020185F0008386000089B
:1013400010B503490120087000F004F810BD00003A
:101350001300002070B52F484178002946D0491E5F
:101360000906090E417041D12B4801F003F92A48C2
:10137000406E006840686421081AC5B22748FEF72D
:10138000CCFE264C00202146C83903E00A5C2254DA
:10139000401CC0B2A842F9D320486421C838FEF7E7
:1013A000BCFE1E496422C8391B4801F03FFA0028E0
:1013B00003D05B211AA002F017FA2078422815D139
:1013C0006078302812D1A07830280FD1E078352805
:1013D0000CD1217917480225302908D0312914D0A1
:1013E000322914D0332901D10321017070BD0024AA
:1013F000047009200121C00600F020FD0E490128DB
:1014000001D00C7070BD0D7070BD0121EDE705704D
:1014100070BD000013000020F40300201401002020
:101420002E2E5C4170705C62745F6D6F64652E631C
:1014300000000000050000200400002010B5034853
:1014400000F0A8FB02490120087010BD64040020D0
:101450004400002010B5034800F09CFB024800F057
:1014600099FB10BDA8040020EC04002010B5044630
:101470000068054940181421FEF732FE8000206400
:101480000248E06310BD0000F8FFFDBF000002400D
:1014900030B5056C0124AC40C56B6C6004686360BA
:1014A0004368102B036803D099600068C26030BDA8
:1014B0009A600068C16030BD01E0401EC0B20028E3
:1014C000FBD17047F8B5514D6878002801D101F083
:1014D00069FE4F480023007800280BD04D4C26466B
:1014E000274648366C3701280DD0022825D003281E
:1014F0003DD061E0484900200B54401CC0B24B284D
:10150000FAD30B7058E0FEF759FF444800250078E5
:101510000090605D0099FEF7E3FD074660192030FA
:1015200000790099FEF7DCFD3A4977556C31485552
:101530006D1CEDB2242DECD33EE0FFF77DFB374868
:10154000002500780090605D0099FEF7C9FD074610
:101550006019203000790099FEF7C2FD2D497755BA
:101560006C3148556D1CEDB2242DECD324E0E879A4
:1015700000280FD0FFF71CFE0020215C221820322B
:1015800012798908315491083954401CC0B224287A
:10159000F3D311E0287A002811D0FFF709FE0020CC
:1015A000215C22182032127989083154910839546B
:1015B000401CC0B22428F3D301F0DAFCF8BD0121AD
:1015C00029720020225C022A07D3921E211822547D
:1015D00020310A79921E0A7105E0012A04D12118EE
:1015E000235420310B710021401CC0B22428E9D3C0
:1015F0002972002022182032215C127931543A5489
:10160000401CC0B22428F5D3D6E700003A000020E1
:101610000500002078010020500200200F0000206B
:1016200010B500241021044800F008FC002800D167
:101630000224204610BD000000040048F8B505460D
:101640000446403528780026012808D0012028705B
:10165000206881688907890F012908D101E00220EB
:10166000F8BD0168C90738D1C168090435D4616C77
:10167000FF2201329143022211436164C16889074C
:10168000890F0091C16889088900C160206881685C
:1016900092071143816000F0DDFB07460EE000F089
:1016A000D9FBC01B022809D9606C02218843102194
:1016B00008436064002028700120F8BD206880681D
:1016C0000028ECDB2068C168009A1143C160606C9F
:1016D00080088000401C606404E0606C20210843A6
:1016E00060640126002028703046F8BDF8B500255A
:1016F0000446403400952278012A39D00122227014
:1017000003689E68760767D4384F4E68BE424DD056
:101710009E6A0F78BA4016439E620123826B1B07B4
:101720009A421FD0012A1DD0022A1BD0032A19D0A9
:10173000042A17D0052A15D0062A13D0072A11D05B
:1017400002688B6856697607760FB3420AD05369F0
:10175000DB08DB005361006842690B7A5B075B0FB3
:101760001A4342610A68102A04D0112A02D038E0D4
:101770000220F8BD1E488368102A07D00122920576
:10178000134383600868102803D02AE00122D205A1
:10179000F6E7194817490068FEF7A2FC0A214843FA
:1017A00000E0401E00900028FBD11AE0986A0E78F5
:1017B000B240904398620968102901D0112910D1D4
:1017C0000B488268102904D0012189058A43826070
:1017D00007E00121C905F9E7416C2022114341646A
:1017E0000125002020702846F8BD000001100000EF
:1017F0000027014040420F0048000020704770471A
:1018000070470000F8B500250446002803D0606C3E
:10181000002802D008E00120F8BD0020A06440218B
:101820000855204600F0A8F8606C1022C006002879
:1018300070DB2068816849076CD4616C130199439F
:1018400002231943616481688907890F012905D141
:101850000168C9070FD1C16809040CD4C1681823F5
:101860009943A3681943C1602068016963688900CE
:101870008908194301612068C1683D4B1940C16066
:10188000A069E1698003C9030843216A4B03184337
:10189000636B012B02D001231B0300E000231843DC
:1018A000E36818432369022B09D000231843236BF4
:1018B000666A5B0018430123012E02D00AE004236C
:1018C000F4E7002927D0616C202631436164A16CC4
:1018D0001943A164A16A0E46FF3EC23E02D0E66AE9
:1018E000314308432168CE680643CE600126A16BD0
:1018F0003607B14213D0012911D002290FD0032994
:101900000DD004290BD0052909D0062907D00729B5
:1019100005D010E028E0012109040843DAE7216836
:101920004E69F608F6004E6121684E69278F7F07E1
:101930007F0F3E434E612168C9680E4E314081429F
:1019400007D10020A064606C80088000401C6064A7
:1019500008E0606C0221884310436064A06C184367
:10196000A06401252846F8BD606C10436064F8E768
:101970001902FEFFE7FF3F8370B50546006819496D
:1019800086B088422BD11848826941150A4382618A
:1019900080690026084005900220009003200190F5
:1019A000092069460296C00600F0A4F90F48104CC1
:1019B00041C48020266060604000A06080002661F5
:1019C000E060C00060610A48083C00F031F900287E
:1019D00003D06D2107A001F007FFEC63656206B03C
:1019E00070BD0000002401400010024008000240C9
:1019F000640400202E2E2F5372632F73746D3332C4
:101A0000663078785F68616C5F6D73702E6300007C
:101A1000F7B5044600680025806840073DD4264697
:101A20004036307801280AD001273770E069012854
:101A300007D02046FEF780FC050002D02EE00220F1
:101A4000FEBD606C16490840FF2101310843606407
:101A50000020A0643070E16B12488862E16B12488C
:101A6000C862E16B1148086321681C200860206887
:101A700041681022114341602068C1683943C16048
:101A80002168E06B4031029B019A00F0FDF820686C
:101A9000816804221143816000E002252846FEBDD2
:101AA000FEF1FFFF43020008C9020008AF02000870
:101AB000F8B50646044640363078012807D001279D
:101AC00037702046FEF794FB050002D024E0022088
:101AD000F8BD2068C16849084900C160E06B00F0AA
:101AE0001FF8050003D0606C402108436064206843
:101AF0004168102291434160002D204602D0FEF73C
:101B0000E8FB09E0FEF7E5FB050005D1606CFF216D
:101B10000131884338436064002030702846F8BDA6
:101B200001680A680E239A430A6001680A6852082D
:101B300052000A600121036C0A469A40C36B5A6046
:101B400020304170002101700846704770B50024B4
:101B5000014620314A78022A03D0042181630124FE
:101B600016E0026813680E25AB4313600268136821
:101B70005B085B0013600122056C1346AB40C56B2C
:101B80006B604A7000220A70416B002900D08847C0
:101B9000204670BDF0B4C16B0D6801680C6804226A
:101BA000066C1346B3402B420DD063070BD50B6870
:101BB0009B0602D40B6893430B60016C8A40C16B97
:101BC0004A60C16A19E00227B74002462F4001234C
:101BD0002032002F15D0A70713D50C68A40604D413
:101BE0000C680A25AC430C605370036C02219940C9
:101BF000C36B596000211170816A002916D0F0BCB6
:101C000008470827B7402F4210D024070ED50C688C
:101C10000E25AC430C60046C1946A140C46B616096
:101C20008363537000211170016BE6E7F0BC7047CD
:101C300070B5040024D00220214620310D464870A2
:101C4000226811680F48A36801406068266918433C
:101C5000E3683343184363691843A3691843E3698E
:101C60001843084310602046FFF700FC0020A062E4
:101C7000E06220636063A06301216970287070BD19
:101C8000012070BD0FC0FFFFF8B504468C46203020
:101C900001780025012909D0012606704178002726
:101CA000012905D0077002252846F8BD0220F8BD9D
:101CB00002214170A763206801684908490001605A
:101CC00061462046FFF7E4FBE06A002820680168CF
:101CD00002D00E22114306E00A221143016020685F
:101CE000016804229143016020680168314301606A
:101CF000DAE70000F8B500238DE001249C40A446FB
:101D000022407DD04C68022C01D0122C0CD1DC0872
:101D1000A40027183C6A5D07ED0E0F26AE40B443C1
:101D20000E69AE4026433E6205685E000324B4405F
:101D30000F79A543BF07BF0FB7402F4307604D681A
:101D4000012D05D0022D03D0112D01D0122D0ED161
:101D50008568CF68A543B7402F43876047686546CD
:101D6000AF430D79ED06ED0F9D403D434560C568DD
:101D7000A5438C68B4402C43C4604C68E40049D54A
:101D8000284CA56901263543A561A4699D08344006
:101D90000094254CAD002F19BC689D072E0F0F2510
:101DA000B540AC430925ED06A84201D100250FE05E
:101DB0001E4DA84201D101250AE01D4DA84201D1C6
:101DC000022505E01B4DA84201D1032500E00525B1
:101DD000B5402543BD60184C25684E689543F60311
:101DE00000D51543256065684E689543B60300D558
:101DF00015436560A5684E689543F60202D500E07C
:101E000008E01543A560E5684E689543B60200D525
:101E10001543E5605B1C0A681446DC4000D06CE7A3
:101E2000F8BD00000010024000000140000400481E
:101E300000080048000C0048000401400069084008
:101E400000D001207047002A01D081617047816273
:101E50007047000001480068704700000000002043
:101E600002480168491C0160704700000000002022
:101E700010B506480168102211430160002000F0EF
:101E800007F800F017F8002010BD00000020024005
:101E900010B5044600F048F97D21C900FEF720F98D
:101EA00000F04CFB00222146501E00F02FF80020CD
:101EB00010BD000008B50F488169012211438161FE
:101EC000816911400091C26901040A43C261C0697D
:101ED0000022084000901146501F00F017F8002221
:101EE0001146901E00F012F800221146501E00F01C
:101EF0000DF808BD00100240C106C90E012088403F
:101F0000014908607047000000E100E010B501F0F1
:101F1000B3F810BDF8B505460068354CC00352D57E
:101F2000E0690026C00007D4E16920040143E161B3
:101F3000E1690140012600912E480168C90510D4CD
:101F40000168821511430160FFF784FF074604E032
:101F5000FFF780FFC01B642824D826480068C0050E
:101F6000F6D5206A03273F02384020D069683940FF
:101F700081421CD0206A226AB843012109040A4325
:101F80002262226A8A4322622062C0070FD0FFF7D2
:101F900061FF009008E0FFF75DFF0099411A1648C5
:101FA000814201D90320F8BD206A8007F3D5206A59
:101FB0006968B84308432062002E04D0E16901201B
:101FC00000078143E1612878C00705D0206BA9682C
:101FD00080088000084320632878800605D5206BA0
:101FE00010218843E968084320630020F8BD000001
:101FF000001002400070004088130000F8B505464C
:1020000044480E460068C007C00FB0420AD241489B
:10201000016849084900314301600068C007C00FEA
:10202000B0425CD128783C4C800705D56068F0212F
:102030008843A968084360602878C0073FD0686873
:10204000012813D02168022813D08907002946DA15
:1020500061688908890001436160FFF7FBFE6968D8
:10206000074601290DD0022917D024E021688903F1
:10207000ECE78901EAE7FFF7EDFEC11B2748814243
:1020800017D860680007800F0128F4D117E0FFF728
:10209000E1FEC11B214881420BD860680007800F18
:1020A0000228F4D10BE0FFF7D5FEC11B1B4881428B
:1020B00001D90320F8BD60680007800FF3D11548EF
:1020C0000168C907C90FB1420BD901684908490025
:1020D000314301600068C007C00FB04201D0012049
:1020E000F8BD2878400706D56068072109028843B3
:1020F000E9680843606000F02DF86168084A090645
:10210000090F515CC840074908600020FFF7C0FE76
:102110000020F8BD0020024000100240881300009B
:102120001061000848000020014800687047000066
:10213000480000200448054900684968044A4905E8
:10214000490F515CC8407047480000200010024011
:102150002061000810B512A30FCB88B06C460FC4E5
:1021600013A30FCB0FC416494A680C201346034033
:102170001448042B0FD0082B0DD193021B0F6C4673
:10218000E45CC96A04AB0907090F595CD20304D5A2
:10219000FDF7A6FF604308B010BD0B486043FAE7A7
:1021A00002030405060708090A0B0C0D0E0F101098
:1021B0000102030405060708090A0B0C0D0E0F1097
:1021C0000010024000127A0000093D00FEB50446EE
:1021D0000078D04DC00747D068680007800F0128FD
:1021E00007D068680007800F022809D16868C0031B
:1021F00006D52868800337D5606800287ED033E094
:10220000012062680004012A11D08100002A01D057
:10221000052A10D02A6882432A60286888432860EB
:102220006068002814D0FFF715FE06460CE0296808
:1022300001432960F4E72A680A432A60F7E7FFF7B9
:1022400009FE801B64286FD828688003F7D50BE04F
:10225000FFF700FE064604E0FFF7FCFD801B642844
:10226000F1D828688003F7D4207801268007002859
:102270003BDA68680007800F07D068680007800FA6
:10228000022809D16868C00306D42868800715D5DC
:10229000E068012832D111E0E0680028286815D0F4
:1022A00030432860FFF7D6FD074604E0FFF7D2FD74
:1022B000C01B0228C7D828688007F7D52868F821EE
:1022C00088432169C900084328600EE040084000A7
:1022D0002860FFF7BFFD074604E0FFF7BBFDC01B0A
:1022E0000228B0D828688007F7D42078000724D5C2
:1022F000E0690028686A10D0304300E008E16862B5
:10230000FFF7A8FD074604E0FFF7A4FDC01B022865
:1023100099D8686A8007F7D50FE0400840006862E6
:10232000FFF798FD074605E09DE0FFF793FDC01B12
:10233000022888D8686A8007F7D4207804274007E5
:10234000002860DA00200190E869C00008D4E9693B
:10235000B8060143E961E96901400120009101905B
:102360006D480168C90511D40168821511430160E7
:10237000FFF770FD009005E0FFF76CFD0099401A33
:10238000642870D864480068C005F5D5A0680128A5
:102390000AD0002801D0052810D0286A4008400043
:1023A0002862286AB84301E0286A30432862A0689E
:1023B000002812D0FFF74EFD00900AE0286A38434B
:1023C0002862F1E7FFF746FD0099411A5348814220
:1023D00049D8286A8007F5D50DE0FFF73BFD00904E
:1023E00006E0FFF737FD0099411A4C4881423AD880
:1023F000286A8007F5D40198002804D0E9690120F3
:1024000000078143E9612078C00635D5606901285D
:102410000CD0401D686B23D038436863686B40085C
:1024200040006863FFF716FD064622E0686B3843FC
:102430006863686B30436863FFF70CFD064604E091
:10244000FFF708FD801B02285BD8686B8007F7D573
:10245000686BF8218843A169C900084368630BE0F1
:10246000B8436863F4E74CE0FFF7F4FC801B0228F4
:1024700047D8686B8007F7D4206A002846D069687F
:102480000907890F022943D0012636060228286849
:1024900005D0B0432860FFF7DDFC044633E0B043CD
:1024A0002860FFF7D7FC074604E0FFF7D3FCC01B0A
:1024B000022826D828688001F7D4E86AE16A000972
:1024C00000010843E862616AA06A084369683D2226
:1024D0001204914308436860286830432860FFF77E
:1024E000B9FC044604E0FFF7B5FC001B022808D83D
:1024F00028688001F7D509E0FFF7ACFC001B022833
:1025000001D90320FEBD28688001F5D40020FEBD5E
:102510000120FEBD00100240007000408813000042
:10252000042204490428086902D0904308617047D6
:102530001043FBE700E000E070470000094910B5D8
:10254000401E884201D9012010BD074C6061032163
:10255000081F00F091FD0020A061072020610020ED
:1025600010BD0000FFFFFF0000E000E010B5FFF726
:10257000E3FF10BD70B5044660300546407A21285F
:102580000FD12068816809060BD5816880229143AC
:102590008160206E002801D0FFF7C2FA204600F0CB
:1025A000ECFFA87A22280FD12068816849060BD554
:1025B0008168402291438160606E002801D0FFF75E
:1025C000AFFA204600F0BDFF002070BD704700004C
:1025D000F8B503680446D96918680D072D0F07D1AF
:1025E0008A0605D5820603D5204600F0CFFFF8BD48
:1025F0009A68002D64D0D507ED0FFF2621360640DE
:102600002E435DD0CE0706D0C60504D501261E6236
:10261000E36E3343E3668F0702230426002F06DAB6
:10262000D70704D027683B62E76E3743E7664F075A
:1026300006D5D20704D022681662E26E1A43E2661B
:102640000A0709D5202202402A4305D02368082220
:102650001A62E36E1343E366E26E002AC7D089066E
:1026600004D5800602D5204600F090FFE06E0007FA
:1026700003D42068806840061CD5204600F061FF26
:1026800020688168490611D58168402291438160A4
:10269000606E00280AD012494163606EFFF756FA57
:1026A0000028A4D0606E416B8847F8BD2046FFF734
:1026B0008DFFF8BD2046FFF789FF0020E066F8BDDA
:1026C0000A0605D5020603D5204601F027F8F8BD15
:1026D0004906FCD54006FAD5204600F041FFF8BD7A
:1026E0006134000870B5040005D025466035687A6D
:1026F000002802D006E0012070BD0020287220468C
:1027000000F026F824206872206801684908490012
:102710000160204600F078FF0128EDD0606A0028B3
:1027200002D0204600F02EFE206841680122D2022D
:10273000914341602068816808229143816020684C
:102740000168012211430160204600F080FE70BD47
:10275000F0B506460068294987B088424BD1284821
:102760008269012189030A4382618069002408404B
:1027700005900C200090022001900320039001207E
:102780000490092002946946C006FFF7B3FA1E4D73
:102790001C48286010208027291D91C12C616C6184
:1027A000AC612846EC61FFF743FA002803D0B5215D
:1027B00016A001F019F8356612486E621A4D1430F1
:1027C00011C52C60AC60EC602C616F606C611648C8
:1027D000083DFFF72DFA002803D0C5210BA001F01A
:1027E00003F87566002211461B206E62FFF78EFB10
:1027F0001B20FFF781FB07B0F0BD0000003801404F
:10280000001002401C000240A80400202E2E2F536E
:1028100072632F73746D3332663078785F68616CE1
:102820005F6D73702E630000EC040020F8B5054660
:1028300004466035A87A202841D100290BD0002A0F
:1028400009D00123A0681B03984206D12069002803
:1028500003D1C80701D00120F8BD287A01282ED065
:10286000012028725820616502530026E666222066
:10287000A872616E13488862616E1348C862616E07
:1028800012480863606E13464663676D21683A46D6
:102890002431606EFFF7F8F92E7220680168FF227C
:1028A0000132114301602068816801221143816077
:1028B000206881684022114381600020F8BD022019
:1028C000F8BD0000BF340008FF340008753400086C
:1028D00070477047F8B5054604466035687A202889
:1028E0003BD100290BD0002A09D00123A0681B038B
:1028F000984206D12069002803D1C80701D00120E1
:10290000F8BD287A012828D00120287220464030BE
:10291000E164028242820026E66621206872216E0E
:102920000F488862216E0F48C862216E0E48086306
:10293000206E134646632768E16C3A462832206EC3
:10294000FFF7A2F92168402008622E722068816892
:102950008022114381600020F8BD0220F8BD0000F4
:10296000093500083935000875340008704770478C
:10297000FEE7000010B50920C0060168032292029C
:10298000914301600268012189020A4302600268E2
:1029900003231B039A43026003688A001343036006
:1029A00003680324A403A343036003680C012343C7
:1029B0000360036803242404A343036003688C01B9
:1029C0002343036003680324A404A3430360036850
:1029D0000C0223430360036803242405A34303601C
:1029E00003688C022343036003680324A405A34304
:1029F000036003680C032343036003680324240675
:102A0000A343036003688C03234303602023836193
:102A100040238361802383618B1083614B1083612A
:102A2000816149008161826101490120886110BD95
:102A300000040048F0B52027FC0009210022C90647
:102A4000174E0346012518060DD58F614020886179
:102A5000802088618C618C61C00088614000886141
:102A6000400088610DE08F6240208862802088628B
:102A70008C6280008862400088624000886240006A
:102A800088620020FEF718FDB5610020FEF714FDF6
:102A90005806030EB562521CD2B2082AD3D3F0BD39
:102AA00000040048FEB5374A354E1218203A304F20
:102AB000029232183E18344F2E4B3F182E4C2F4D99
:102AC000203F01972D1824181B18304F002138186B
:102AD0002038203A203B203C203D203E0090F07FD3
:102AE000000606D580270920C00687612027876158
:102AF00005E080270920C006876220278762D87FEB
:102B0000234F0006234803D587614027876102E0F1
:102B10008762402787620020FEF7CEFC1E4F01200F
:102B2000B8610098009FC07F4000F8770198019F2E
:102B3000C07F4000F877F07F4000F077D87F4000FA
:102B4000D877E07F4000E077E87F4000E877D07FEB
:102B50004000D0770298029FC07F4000F8770E4F68
:102B60000120B862491CC9B20829B8D3FEBD0000D3
:102B70009B020020BF020020E30200200703002088
:102B80002B0300204F0300202C020020080200200D
:102B900000010000000000480004004800B52021AA
:102BA0000920C00681624021816280218162490042
:102BB0008162490081624900816249008162490065
:102BC00081620020FEF778FC01490120886200BD87
:102BD00000040048F0B520220921C9068A6240237A
:102BE0008B6280248C62D00088624000886245003D
:102BF0008D6286008E62C00088620020FEF75CFC59
:102C0000084F0120B8610020FEF756FC8A618B61F5
:102C10008C6160008861400088618D618E61C000B8
:102C20008861F0BD0004004800B5044901228A61B2
:102C30000020FEF741FC8A62002000BD000400482D
:102C4000F8B53A4C00252078394E00284FD0394944
:102C500001200A78002A00D10870A278422A02D006
:102C6000C22A44D13AE00B78334A022B02D0012B1E
:102C70001CD022E0E379002B1DD00227012B04D0C9
:102C8000022B05D0032B07D017E01770E77114E073
:102C900003211170E17110E01570284A1278012AA1
:102CA00001D10F7000E00D70E57106E0E379002BB3
:102CB00001D01570F7E71070E071307061894B201A
:102CC000C000814216D135706581E0790621484304
:102CD00016490C31401800F06BFD08E0E17832290C
:102CE00005D217490A78012A00D1032008703078EC
:102CF000002812D06089401C81B24B20C000618145
:102D0000814209D935706581E07906214843074938
:102D10000C31401800F04CFDF8BD60894B21C90012
:102D20008842F9D2401C6081F8BD000016000020E6
:102D300012000020040000200500002007000020F1
:102D40000F00002030B52F4900220A700C7A84420F
:102D500006D08A79824201D0887130BD087230BDB8
:102D6000487A0123844232D10028F8D04A79002AD7
:102D7000F5D0521E1206120E4A71F0D188704A78B0
:102D8000002A00D10B700C79002C12D01422012CD7
:102D900016D0022C01D0032CE1D103230B71802328
:102DA000184388704A71C878FA28D8D2401CC87075
:102DB00030BD20220B71104388703220487130BD25
:102DC00002230B716023184388704A7130BD0028BC
:102DD00012D088704D78002D00D10B700D79012D27
:102DE00005D0C023022D03D0032D03D100E04023E2
:102DF000184388700A7101E04A70CA700520487152
:102E00004C7230BD1600002010B5FEF709FCFFF72C
:102E100099FF10BD3EB51548134901604905416051
:102E200000218160C160012481610461C1610822C7
:102E3000046242614162FF22C162C2320163826266
:102E40004163FEF7DFFC002800D0FEE7012000030D
:102E5000019007200290009469460448FEF746FC62
:102E6000002800D0FEE73EBD00240140A80300205A
:102E7000F0B52E4887B04269012149040A434261F6
:102E800042690A400592426949000A434261406929
:102E900000220840059009202549C006FEF7D3FF0F
:102EA000002203212348FEF7CEFF0024012509203C
:102EB00001946946C00600950294FEF71BFF0220AC
:102EC000009003260920694601960294C006FEF789
:102ED00011FF102709206946C0060097029501944A
:102EE000FEF708FF124800900920029469460195F8
:102EF0000394C006FEF7FEFE029469460D48009654
:102F000001950394FEF7F6FE0820009001946946AF
:102F100002940848FEF7EEFE6946064800970295BF
:102F20000194FEF7E7FE07B0F0BD0000001002407C
:102F3000E09F00000004004810B50C480A490160F9
:102F40004B21C901416000218160C1600161816143
:102F5000C1610C22016242614162FFF7C3FB00289C
:102F600000D0FEE710BD000000380140F40300204F
:102F70003D493E480A7F42708A7FC2700A4620322D
:102F8000137843719278C271CA7B02704A7C827056
:102F9000CA7C02714A7D8271CA7D02724A7E827247
:102FA0008A7B42730A7CC2738A7C42740A7DC27433
:102FB0008A7D42750A7EC2754A780273CA78827326
:102FC0004A790274CA7982744A7A0275CA7A827519
:102FD0000A7842768A78C2760A7942778A79C27705
:102FE00002460B7A20325370897AD1701E492439F7
:102FF0004B780376CB7883764B790377CB798377DD
:10300000487A1070C87A907019480A7842708A78A5
:10301000C2700A7942718A79C2710A7A42728A7AD6
:10302000C272CA7B02704A7C8270CA7C02714A7D7D
:103030008271CA7D02724A7E82728A7B42730A7CE6
:10304000C2738A7C42740A7DC2748A7D42750A7E8C
:10305000C2754A7F0273C97F81730349091F4A7889
:103060000274C97881747047E40100209B0200203B
:10307000BF020020704700008307FF22DB0E9A404A
:103080008907090E994000280BDA0007000F08385D
:10309000830808489B001818C36993430B43C36116
:1030A0007047830804489B001B1818689043084326
:1030B0001860704700ED00E000E400E07047000099
:1030C00010B509240122E406D1032046FEF7BBFE19
:1030D0002D480221C17207218170216803229202CA
:1030E00091432160216801229202114321602168ED
:1030F000032212039143216021680122120311432C
:1031000021602168032292039143216021680122FA
:10311000920311432160216803221204914321602C
:1031200021680122120411432160216803229204C4
:10313000914321602168012292041143216021689A
:1031400003221205914321602168012212051143D7
:1031500021602168032292059143216021680122A8
:1031600092051143216021680322120691432160D8
:1031700021680122120611432160002141700121C2
:10318000017000F0EFFB10BD0400002010B500F04E
:1031900001F810BD10B5024800F02EF810BD000077
:1031A0005002002010B50020114A01461154401C65
:1031B000C0B22428FAD30E4A002024321154401CF5
:1031C000C0B22428FAD30A4A002048321154401CC5
:1031D000C0B24B28FAD30749262009781154401C65
:1031E000C0B24A28FAD301201070FFF7C3FB10BD0C
:1031F000080200200600002070B50546FFF7CEFC4F
:103200007820FFF717FCFFF70FFD0020FFF712FCF7
:10321000FFF70AFD0024601E242803D22046FFF792
:1032200041FC02E0285DFFF705FCFFF7FDFC641C94
:10323000E4B24B2CEFD3FFF7CDFC70BD704700001C
:1032400010B5FEF70DFEFFF791F911490120114A63
:1032500008701178491CC9B21170062902D30021E7
:1032600011700CE000290AD001290AD002290AD0E5
:1032700003290AD0052901D10749087010BD074963
:10328000FBE70749F9E70749F7E70749F5E70000D2
:103290000A00002010000020110000200B00002078
:1032A0000C0000200D0000200E00002070B594B02E
:1032B000012512200595009010200490069005200D
:1032C0000024C004039502260A90089609940B94E2
:1032D0006846FEF77BFF002800D0FEE707200C9031
:1032E0000E9401210D960F940CA8FEF787FE00287E
:1032F00000D0FEE710A810951294FEF70BFE0028F0
:1033000000D0FEE7FEF710FF7D21C900FCF7E8FEC4
:10331000FFF714F90420FFF703F900221146501EAD
:10332000FEF7F4FD14B070BD13480168012211438B
:1033300001604168114A114041600168104A114022
:1033400001600168012292049143016041683F22BB
:10335000120491434160C16A09090901C162016B0C
:10336000FF22143291430163416B490849004163D4
:103370000021816070470000001002400CB8FF0877
:10338000FFFFF6FE10B5818CC90707D001684A68B7
:1033900001235B049A43836A1A434A60818C89073C
:1033A00007D501684A6801231B049A43C36A1A437C
:1033B0004A60818C490707D501684A6801239B044C
:1033C0009A43036B1A434A60818C090707D5016849
:1033D0004A680123DB039A43436B1A434A60818C9A
:1033E000C90607D50268916801231B039943836BC3
:1033F00019439160818C890607D501688A68012389
:103400005B039A43C36B1A438A60818C490612D5C9
:1034100003685A6801210905046C8A4322435A60F3
:10342000026C8A4207D10268516803235B05994305
:10343000436C19435160818C090607D501684A68BD
:103440000123DB04806C9A4302434A6010BD0021D3
:10345000C166202260304272827201720846704753
:1034600010B5406A0022014640314A834A82FFF784
:10347000ADF810BD70B5446A25466035687A0026FF
:10348000212808D120688068000604D55220065300
:10349000204600F072F8A87A222808D120688068B7
:1034A000400604D55A200653204600F04AF8E06E44
:1034B00010210843E0662046FFF788F870BD10B57C
:1034C00001460968406A0968890615D400225A2114
:1034D0000A5201680A68FF2301339A430A600168AF
:1034E0008A68520852008A6001688A6840239A43B9
:1034F0008A6020226A210A54FFF7EAF910BD10B54C
:10350000406AFFF7E6F910BD10B501460968406A48
:10351000096889060DD4002252210A5201688A687E
:1035200080239A438A600068016840221143016049
:1035300010BDFFF71BFA10BD10B5406AFFF717FA70
:1035400010BD01680A68FF2321339A430A600168AD
:103550008A68520852008A60202160308172704768
:1035600010B501680A6840239A430A602022692145
:103570000A54FFF7FBF9002010BD01680A68C02358
:103580009A430A60202160304172704770B502464C
:10359000403203466033948B9D7A0168222D05D01A
:1035A0008869082210438861022070BD898C012639
:1035B00085683603B54202D10569002D0BD0214044
:1035C000446D651C45652170518B491E0904090C29
:1035D000518307D015E0456D21402980416D891C3C
:1035E0004165F1E701680A68FF242134A2430A60BB
:1035F00001688A68520852008A6020219972FFF798
:1036000067F9002070BD0000F8B504462369A26880
:10361000E6691A43636910213343002026681A4380
:1036200033680546394F3B401343336023685A687B
:1036300003263603B243E66832435A60236AA2691E
:1036400026681A43B3680B273F02BB431343B3609A
:103650002F4A126B9207920F06D0012A08D0022A35
:1036600008D0032A07D101E0002104E0022102E092
:10367000042100E008210122E369D203934224D10E
:1036800000290CD002290DD0042913D0082917D005
:103690000125010909010007400F084332E0FEF748
:1036A00049FD09E061681B4A48088018FCF718FDCD
:1036B00080B2EEE7FEF74EFD616840004A08F4E78D
:1036C0006168012248081204EFE7002908D00229A6
:1036D00009D004290BD008290ED001252846F8BDB1
:1036E000FEF728FD05E061680B4A480806E0FEF792
:1036F00031FD61684A0801E0616848088018FCF7FC
:10370000EFFC80B22168C860E8E70000F369FFFFC2
:10371000001002400024F40000127A006921095CC4
:10372000212901D00220704702464032518A0029E7
:1037300012D0012381681B03994202D1016900293B
:1037400015D0C16C4B1CC364006809780185508A90
:10375000401E50820020704701680A6880239A4307
:103760000A6000680168402211430160F2E7C16C01
:1037700003680988C905C90D1985C16C891CC16414
:10378000E5E7000010B508480068C169C90607D51B
:103790000168C90604D5102101620449142008708B
:1037A0000148FEF715FF10BDF403002014000020AF
:1037B00070B5054600240A48FEF7DCFE094903E01F
:1037C0000855641CE4B26D1C28780A2801D0002832
:1037D000F6D1224603490248FFF77CF870BD00008D
:1037E000F4030020B0000020FEE702E008C8121F2A
:1037F00008C1002AFAD170477047002001E001C1DA
:10380000121F002AFBD1704710B515480178012915
:1038100023D1002101701348FEF74AF9002803D094
:10382000D12111A0FFF7E0FF00F082F80A2212492F
:103830000C48FEF7EDF8002803D0DB210AA0FFF7C3
:10384000D3FF0D480A21143000F050F80A490A3914
:1038500008804A88821A8A804880FCF77BFC10BD69
:1038600044000020A80300202E2E5C4170705C688C
:103870005F6164632E6300007E030020FFF720FC7D
:10388000194C0025A079002810D0A571FFF7BCFFC6
:1038900009200121C006FEF7D1FAE07021798142AA
:1038A00004D0207101281CD025706570E0790028B3
:1038B00004D0E571FFF7A8FAFFF7C2F9207A0028D3
:1038C00002D02572FDF73CFD607A002802D06572B7
:1038D000FDF7F8FDA07A0028D4D0A572FFF756FCBA
:1038E000D0E702202070E1E704000020F8B504468C
:1038F0000D4A0020D0800D4B138103460EE05D0081
:10390000665B1789BE4200D21681665BD788BE42CD
:1039100000D9D680655B28185B1C9BB28B42EED326
:10392000FCF7DEFB80B2F8BD74030020FF0F00003F
:1039300070B50B4B00201C46143414220021424366
:10394000121945184E006D00491C5D5B89B29553F4
:103950000A29F6D3401C0006000EEED070BD000010
:103960007E03002010B50A48FDF768FE002803D04A
:10397000602108A0FFF738FF0A220A490448FEF731
:1039800047F8002803D0672102A0FFF72DFF10BDE4
:10399000A80300202E2E5C4170705C685F61646338
:1039A0002E6300007E03002008B5FEF761FAFFF7E2
:1039B0007DFCFFF75DFA0F48416901221143416127
:1039C000406910400022009011460920FEF79EFA3F
:1039D0000920FEF791FA002211460A20FEF796FA16
:1039E0000A20FEF789FAFFF7A7FAFFF713FAFFF7A5
:1039F00045FFFEE70010024000000000000000004C
:103A0000000000000000ADAD00000000000000005C
:103A100000000000ADAD000000000000000000004C
:103A200000000000000000000000ADAD000000003C
:103A3000000000000000000000AD000000000000D9
:103A40000000686800000000000000000000ADAD4C
:103A5000ADAD00000000000000000000ADADADAD58
:103A60000000000000006868000000000000000086
:103A70000000ADAD6868000000000000000000001C
:103A8000ADAD68680000000000000000000000000C
:103A90000000000000000000000000000000000026
:103AA0000000000000000000000000000000ADADBC
:103AB00000000000000000000000ADADADAD000052
:103AC0000000000000000000ADADADAD0000000042
:103AD0000000ADAD00000000000000000000ADAD32
:103AE000ADAD68680000000000000000ADADADADF8
:103AF00068680000000000000000000000000000F6
:103B000000000000000000000000000000000000B5
:103B100000000000000000000000ADAD686800007B
:103B2000000000000000ADAD68680000000000006B
:103B300000000000ADAD6868000000000000ADAD01
:103B400068680000000000000000ADADADADADAD97
:103B50000000000000000000ADADADADADAD000057
:103B60000000000000000000000000000000000055
:103B70000000000000000000000000000000000045
:103B8000000000000000ADAD68680000000000000B
:103B90000000ADAD686800000000000000000000FB
:103BA000ADAD6868000000000000ADADADAD000037
:103BB000000000000000ADADADADADAD00000000F7
:103BC00000000000ADADADADADAD000000000000E7
:103BD00000000000000000000000000000000000E5
:103BE00000000000000000000000000000000000D5
:103BF0000000ADAD80808080000000000000ADAD11
:103C0000686800000000000000000000ADAD6868BA
:103C1000000000000000ADAD80808080000000004A
:103C20000000ADAD8080000000000000000000003A
:103C3000ADAD80800000000000000000000000002A
:103C40000000000000000000000000000000000074
:103C50000000000000000000000000000000ADAD0A
:103C600080808080000000000000ADAD686800002A
:103C70000000000000000000ADAD6868000000001A
:103C80000000ADAD80808080000000000000ADAD80
:103C9000808000000000000000000000ADAD8080CA
:103CA0000000000000000000000000000000000014
:103CB0000000000000000000000000000000000004
:103CC00000000000000000000000ADAD68688080CA
:103CD000000000000000ADAD80800000000000008A
:103CE00000000000ADAD8080000000000000ADAD20
:103CF00068688080000000000000ADAD68680000CA
:103D00000000000000000000ADAD68680000000089
:103D100000000000000000000000000000000000A3
:103D20000000000000000000000000000000000093
:103D300000000000000068680000808068680000E3
:103D40000000ADAD80808080000068680000000049
:103D5000ADAD808080800000000068680000808039
:103D6000000000000000ADAD686800000000000029
:103D700000000000ADAD6868000000000000000019
:103D80000000000000000000000000000000000033
:103D90000000000000000000000000000000000023
:103DA0000000282800002828686868686868ADADA9
:103DB000686868680000686800000000ADAD686869
:103DC0006868000000002828000000000000686803
:103DD0000000ADAD80800000000000000000000089
:103DE000ADAD808000000000000000000000000079
:103DF00000000000000000000000000000000000C3
:103E000000000000000000000000000000000000B2
:103E100000000000000000000000ADAD68686868A8
:103E20000000000000000000ADAD68686868000098
:103E30000000000000000000000000000000ADAD28
:103E4000ADAD00000000000000000000ADADADAD64
:103E50000000000000000000000000000000000062
:103E60000000000000000000000000000000000052
:103E70000000000000000000000000000000000042
:103E8000000000000000ADAD686800000000000008
:103E900000000000ADAD68680000000000000000F8
:103EA00000000000000000000000ADADADAD68688E
:103EB0000000000000000000ADADADAD686800007E
:103EC00000000000000000000000000000000000F2
:103ED00000000000000000000000000000000000E2
:103EE0000000000000006868000000000000000002
:103EF0000000ADAD00000000000000000000000068
:103F0000ADAD000000000000000068680000000087
:103F1000000000000000ADADADAD808000000000ED
:103F200000000000ADADADAD8080000000000000DD
:103F30000000000000000000000000000000000081
:103F40000000000000000000000000000000000071
:103F50000000686800000000000000000000ADAD37
:103F6000686800000000000000000000ADAD686857
:103F70000000000000006868000000000000000071
:103F80000000ADADADAD808000000000000000007D
:103F9000ADADADAD8080000000000000000000006D
:103FA0000000000000000000000000000000000011
:103FB0000000000000000000000000000000686831
:103FC00068680000000000000000ADAD80800000C7
:103FD0000000000000000000ADAD80800000000087
:103FE00000008080808000000000000000008080D1
:103FF00080800000000000000000000080808080C1
:1040000000000000000000000000000000000000B0
:1040100000000000000000000000000000000000A0
:1040200000000000000000000000ADAD6868686896
:10403000000000000000ADADADADADADADAD000018
:1040400000000000ADADADADADAD68680000ADAD38
:1040500080808080000000000000ADAD8080000006
:104060000000000000000000ADAD808000000000F6
:104070000000000000000000000000000000000040
:104080000000000000000000000000000000000030
:10409000000000000000ADAD0000808000000000C6
:1040A0000000ADADADADADAD808080806868000032
:1040B000ADADADAD808080800000ADAD00008080F2
:1040C000000000000000ADADADAD0000000000003C
:1040D00000000000ADADADAD00000000000000002C
:1040E00000000000000000000000000000000000D0
:1040F00000000000000000000000000000000000C0
:104100000000808000000000686868680000ADADB5
:10411000ADAD0000686868688080000080808080A5
:1041200000006868000080800000000080808080BF
:104130000000ADADADAD80800000000000000000CB
:10414000ADADADAD808000000000000000000000BB
:10415000000000000000000000000000000000005F
:104160000000000000000000000000000000ADADF5
:10417000000000000000ADADADADADADADAD0000D7
:10418000000080800000000080808080000080802F
:104190000000ADAD000000000000ADADADADADADB7
:1041A000ADAD0000000080800000000080808080B5
:1041B00000008080000000000000000000000000FF
:1041C00000000000000000000000000000000000EF
:1041D00000000000000000000000ADAD0000000085
:1041E000000068680000ADADADAD0000686800007B
:1041F0000000000080808080000068680000ADAD95
:1042000000000000000068680000ADADADAD00002A
:104210008080000000000000ADADADADADAD000090
:10422000000000000000000000000000000000008E
:10423000000000000000000000000000000000007E
:10424000000000000000686800000000000000009E
:104250000000ADAD40400000000000000000000084
:10426000ADAD4040000000000000686800000000A4
:10427000000000000000ADADADAD8080000000008A
:1042800000000000ADADADAD80800000000000007A
:10429000000000000000000000000000000000001E
:1042A000000000000000000000000000000000000E
:1042B0000000404000000000000000000000ADAD24
:1042C000686800000000000000000000ADAD6868F4
:1042D00000000000000080800000000000000000DE
:1042E0000000ADAD686800000000000000000000A4
:1042F000ADAD808000000000000000000000000064
:1043000000000000000000000000000000000000AD
:10431000000000000000000000000000000080809D
:1043200000000000000000000000ADADADAD0000D9
:104330000000000000000000ADADADAD00000000C9
:104340000000ADAD00000000000000000000ADADB9
:10435000000000000000000000000000ADAD000003
:10436000000000000000000000000000000000004D
:10437000000000000000000000000000000000003D
:104380000000000000000000ADADADAD0000000079
:10439000000000000000ADAD0000000000000000C3
:1043A00000000000ADAD000000000000ADADADADFF
:1043B00000000000000000000000ADAD00000000A3
:1043C0000000000000000000ADAD00000000000093
:1043D00000000000000000000000000000000000DD
:1043E00000000000000000000000000000000000CD
:1043F000000000000000ADAD686800000000000093
:104400000000ADAD80806868000000000000000082
:10441000ADAD8080686800000000ADAD6868000048
:10442000000000000000ADAD000000000000000032
:1044300000000000ADAD0000000000000000000022
:10444000000000000000000000000000000000006C
:10445000000000000000000000000000000000005C
:104460000000ADAD80806868000000000000ADADC8
:10447000808080800000000000000000ADAD8080E2
:10448000808000000000ADAD808068680000000002
:104490000000ADAD686800000000000000000000F2
:1044A000ADAD6868000000000000000000000000E2
:1044B00000000000000000000000000000000000FC
:1044C0000000000000000000000000000000ADAD92
:1044D000686880800000000000008080686868686C
:1044E000000000000000000080806868686800002C
:1044F0000000ADAD68686868000000000000ADAD68
:10450000ADAD68680000000000000000ADADADADCD
:1045100068686868000000000000000000000000FB
:10452000000000000000000000000000000000008B
:1045300000000000000000000000808000006868AB
:10454000000000000000808080800000000000006B
:104550000000000080808080000000000000ADAD01
:1045600000004040000000000000ADADADAD808017
:104570000000000000000000ADADADAD8080808087
:10458000000000000000000000000000000000002B
:10459000000000000000000000000000000000001B
:1045A000000000000000404000000000000000008B
:1045B0000000ADAD40400000000000000000000021
:1045C000ADAD404000000000000040400000000091
:1045D000000000000000ADADADADADAD68680000FD
:1045E00000000000ADADADADADAD000000000000BD
:1045F00000000000000000000000000000000000BB
:1046000000000000000000000000000000000000AA
:104610000000686800000000000000000000ADAD70
:10462000686800000000000000000000ADAD686890
:1046300000000000000068680000000000000000AA
:104640000000ADADADAD00008080808000000000B6
:10465000ADADADAD000080800000000000000000A6
:10466000000000000000000000000000000000004A
:10467000000000000000000000000000000080803A
:1046800000000000000000000000ADAD80800000D0
:104690000000000000000000ADAD808000000000C0
:1046A0000000ADAD00000000000000000000ADAD56
:1046B000686800006868686800000000ADAD686860
:1046C000000068680000000000000000000000001A
:1046D00000000000000000000000000000000000DA
:1046E00000000000000000000000ADAD40400000F0
:1046F000000000000000ADADADAD68680000000036
:1047000000000000ADADADAD404000000000ADAD1B
:10471000006868000000000000008080ADAD00006F
:1047200000000000000000008080ADAD000000002F
:104730000000000000000000000000000000000079
:104740000000000000000000000000000000000069
:10475000000000000000ADAD4040404000000000FF
:104760000000ADADADAD68680000000000000000C5
:10477000ADADADAD404000000000ADAD808040402B
:104780000000000000008080808000000000000029
:104790000000000080808080000000000000000019
:1047A0000000000000000000000000000000000009
:1047B00000000000000000000000000000000000F9
:1047C0000000808000004040000000000000ADAD0F
:1047D000808000000000000000000000ADAD80807F
:1047E0000000000000008080000040400000000049
:1047F00000008080808000000000000000000000B9
:1048000080808080000000000000000000000000A8
:104810000000000000000000000000000000000098
:104820000000000000000000000000000000282838
:1048300000000000000000000000ADAD686800004E
:104840000000000000000000ADAD6868000000003E
:104850000000282800000000000000000000ADADAE
:10486000ADAD68680000000000000000ADADADAD6A
:104870006868000000000000000000000000000068
:104880000000000000000000000000000000000028
:104890000000000000000000000000000000000018
:1048A000000000000000ADAD6868000000000000DE
:1048B00000000000ADAD68680000000000000000CE
:1048C00000000000000000000000ADADADAD686864
:1048D0006868686800000000ADADADAD68686868E4
:1048E00000000000000000000000000000000000C8
:1048F00000000000000000000000000000000000B8
:104900000000000000004040000000000000000027
:104910000000ADAD8080000000000000000000003D
:10492000ADAD80800000000000006868000000005D
:10493000000000000000ADADADAD40406868000073
:1049400000000000ADADADAD404068680000000063
:104950000000000000000000000000000000000057
:104960000000000000000000000000000000000047
:104970000000ADAD00000000000000000000ADAD83
:10498000ADAD00000000000000000000ADADADAD19
:10499000000000000000ADAD0000000000000000BD
:1049A0000000ADADADAD00004040000000000000D3
:1049B000ADADADAD000040400000000000000000C3
:1049C00000000000000000000000000000000000E7
:1049D0000000000000000000000000000000ADAD7D
:1049E00000000000000000000000ADAD808080806D
:1049F0000000000000000000ADAD8080808000005D
:104A00000000ADADADAD0000000000000000ADAD98
:104A1000686800000000000000000000ADAD68689C
:104A20000000000000000000000000000000000086
:104A30000000000000000000000000000000000076
:104A400000000000000000000000ADAD808000000C
:104A5000000000000000ADADADADADAD8080000048
:104A600000000000ADADADAD808080800000ADAD38
:104A700080800000000000000000ADAD686800000C
:104A80000000000000000000ADAD686800000000FC
:104A90000000000000000000000000000000000016
:104AA0000000000000000000000000000000000006
:104AB000000000000000ADAD6868686800000000FC
:104AC00000008080808040404040000000000000E6
:104AD00068686868404040400000ADADADADADAD28
:104AE000000000000000ADADADAD00000000000012
:104AF00000000000ADADADAD000000000000000002
:104B000000000000000000000000000000000000A5
:104B10000000000000000000000000000000000095
:104B20000000ADAD0000686800000000000080805B
:104B30008080000068684040000000004040404025
:104B4000000000000000ADAD00006868000000003B
:104B50000000ADADADAD4040000000000000000021
:104B6000ADADADAD40400000000000000000000011
:104B70000000000000000000000000000000000035
:104B80000000000000000000000000000000686855
:104B900000002828000040400000ADAD686800001B
:104BA00068686868404040406868686800000000C5
:104BB0000000808000000000000040400000ADAD1B
:104BC000808068680000404000000000ADAD80803B
:104BD0006868000000000000000000000000000005
:104BE00000000000000000000000000000000000C5
:104BF00000000000000000000000000000000000B5
:104C0000000068686868ADAD6868000000000000DA
:104C10006868686868686868000000000000000054
:104C200000000000000068686868ADAD80806868BA
:104C30000000000000000000ADAD8080686800004A
:104C40000000000000000000000000000000000064
:104C50000000000000000000000000000000000054
:104C60000000000000000000000000000000000044
:104C70000000ADAD000000000000000000000000DA
:104C8000ADAD0000000000000000000000000000CA
:104C9000000000000000ADAD8080000000000000BA
:104CA00000000000ADAD80800000000000000000AA
:104CB00000000000000000000000000000000000F4
:104CC00000000000000000000000000000000000E4
:104CD0000000404000000000000000000000ADADFA
:104CE000ADADADAD8080000000000000ADADADAD5C
:104CF00000008080000068680000000000000000E4
:104D00000000ADAD80800000000000000000000049
:104D1000ADADADAD000000000000000000000000DF
:104D20000000000000000000000000000000000083
:104D300000000000000000000000000000006868A3
:104D400000000000000000000000ADADADADADAD55
:104D50008080000000000000ADADADAD000080809F
:104D60000000808000000000000000000000ADADE9
:104D7000ADAD00000000000000000000ADADADAD25
:104D80000000000000000000000000000000000023
:104D90000000000000000000000000000000000013
:104DA00000000000000000000000ADAD68680000D9
:104DB000000000000000ADAD808000008080000099
:104DC0000000000080808080404080800000ADAD09
:104DD00000000000000000000000ADADADAD00001F
:104DE00000000000000000008080808000000000C3
:104DF00000000000000000000000000000000000B3
:104E000000000000000000000000000000000000A2
:104E1000000000000000ADADADAD000000000000DE
:104E20000000ADAD68680000282800000000000008
:104E3000ADAD6868000028280000ADADADAD000044
:104E4000000000000000ADADADAD686800000000DE
:104E500000000000ADADADAD6868000000000000CE
:104E60000000000000000000000000000000000042
:104E70000000000000000000000000000000000032
:104E80000000808080806868000000000000ADADF8
:104E9000404000000000000000000000ADAD4040B8
:104EA000000000000000ADADADAD8080000000004E
:104EB0000000ADADADAD686800000000000000006E
:104EC000ADADADAD6868000000000000000000005E
:104ED00000000000000000000000000000000000D2
:104EE0000000000000000000000000000000ADAD68
:104EF00080808080000000000000ADADADAD0000FE
:104F00006868000000000000ADADADAD000068684D
:104F10000000ADAD80808080000000000000ADADDD
:104F2000ADAD80800000000000000000ADADADAD73
:104F30008080000000000000000000000000000071
:104F40000000000000000000000000000000000061
:104F50000000000000000000000068682828808031
:104F6000404068680000ADAD8080000080806868C7
:104F700000000000ADAD80800000808000008080D7
:104F800068688080000068680000ADAD8080686857
:104F90000000000000006868ADAD80806868000017
:104FA0000000000000000000000000000000000001
:104FB00000000000000000000000000000000000F1
:104FC00000000000000068680000282800000000C1
:104FD0000000ADADADAD000080000000000000009D
:104FE000ADADADAD0000808000002828000028286D
:104FF000000080808080ADAD000000000000000057
:1050000000008080ADAD0000000000000000000046
:105010000000000000000000000000000000000090
:105020000000000000000000000000000000000080
:1050300000004040000000000000000000008080F0
:105040008080686800000000000000008080808090
:1050500068680000000000000000000000006868B0
:105060006868ADAD686800000000000068686868A6
:10507000ADAD686800000000000000000000000006
:105080000000000000000000000000000000000020
:105090000000000000000000000000000000404090
:1050A00000000000000000000000ADADADAD68687C
:1050B0000000000000000000ADADADAD686800006C
:1050C0000000000000000000000000000000ADAD86
:1050D000686800000000000000000000ADAD6868D6
:1050E00000000000000000000000000000000000C0
:1050F00000000000000000000000000000000000B0
:1051000000000000000000000000686800000000CF
:10511000000000000000ADAD4040686880800000E5
:1051200000000000ADAD40406868808000008080D5
:1051300000000000000000000000ADAD68682828F5
:105140000000000000000000ADAD686800282800E5
:10515000000000000000000000000000000000004F
:10516000000000000000000000000000000000003F
:10517000000000000000ADAD0000000000000000D5
:105180000000ADADADAD404040400000000000006B
:10519000ADADADAD404040400000ADAD28280000B1
:1051A000000000000000ADADADAD6868000000007B
:1051B00000000000ADADADAD68680000000000006B
:1051C00000000000000000000000000000000000DF
:1051D00000000000000000000000000000000000CF
:1051E000000080808080686800000000000068681F
:1051F00040400000000000000000000068684040DF
:10520000000000000000ADADADAD6868000000001A
:105210000000ADADADAD80804040404000000000DA
:10522000ADADADAD808000000000000000000000CA
:10523000000000000000000000000000000000006E
:105240000000000000000000000000000000ADAD04
:1052500040406868000000000000ADAD68680000D4
:105260000000000000000000ADAD68680000000014
:105270000000ADAD40406868000000000000ADAD2A
:10528000ADAD40400000686868680000ADADADADF0
:10529000404000000000000000000000000000008E
:1052A00000000000000000000000000000000000FE
:1052B00000000000000000000000ADAD68686868F4
:1052C000000000000000ADAD8080000068680000B4
:1052D00000000000ADAD80800000686800006868D4
:1052E00028286868000000000000ADADADAD0000EA
:1052F0000000282868686868ADADADAD000000000A
:10530000000000000000000000000000000000009D
:10531000000000000000000000000000000000008D
:10532000000000000000ADAD404040400000000023
:105330000000ADADADAD00006868686868000000B1
:10534000ADADADAD000068680000ADAD406868006F
:10535000000000000000ADADADAD00000000000099
:1053600040404040ADADADAD000000000000000089
:10537000000000000000000000000000000000002D
:10538000000000000000000000000000000000001D
:10539000000000000000000000000000000080008D
:1053A000800080000080000000000000800080007D
:1053B00000000000000000000000008080000000ED
:1053C00000000000008080000000000000000000DD
:1053D00000008000008000000000000000000000CD
:1053E000000000000000000000008000008000803D
:1053F00000800000800000800000000000800000AD
:10540000000000000000000000000000800080009C
:10541000800080008000000000008080800000008C
:10542000000000000000800000800000000000007C
:1054300000008000008000000000000080800080EC
:10544000000000008080008000800000000000005C
:1054500000008000000000008000008000800080CC
:105460000000000000000000000000AD400000004F
:10547000000000000000ADAD000000000040400052
:1054800040000000ADAD0040400000000000AD0055
:1054900000000000000000000000ADAD0040000072
:1054A0000000000000000000ADAD40000000000062
:1054B000808000000000000000000000000080006C
:1054C000000000404000400000000000808000001C
:1054D000000000408080000000000000000000008C
:1054E00000000000000080800000000000000000BC
:1054F000808000000000000080800000404000002C
:10550000000080008000000000000000008080801B
:10551000000000008000008000000000808080000B
:1055200040800000000000000000000000000000BB
:1055300080008000800000000080800000000000EB
:1055400000000000000080000000000000000000DB
:10555000000000800000000000000000808000804B
:10556000000080000000800000800080008080003B
:1055700000000000008000000000000000000000AB
:10558000800000000000000000000000000000009B
:10559000000000000000800080008080000000000B
:1055A000000000008080000000000000000080007B
:1055B00080008000000000000000000000000000EB
:1055C00000008000008000000080800000000000DB
:1055D00000000000000000000000000000000000CB
:1055E00080808000800080000080008000000080BB
:1055F00000800000000000800000000000000000AB
:10560000000000000000008000000000000000001A
:10561000000000800000008000000000800000000A
:10562000000000000000808080808080000000007A
:10563000000000000000808000800080000000006A
:10564000000000000000000000000000000000005A
:10565000000000000000000000000000000000004A
:10566000000000000000000000000000000000003A
:1056700000000000800080000000400080008000EA
:10568000008000000000008000000080800000001A
:10569000000000008000000000000000000000008A
:1056A000000000000000000080800080800000807A
:1056B000800000800000808000800000000000006A
:1056C00000000000808000000080008080808080DA
:1056D000000000800000008000008080008000004A
:1056E00000000000000000008080000000000000BA
:1056F00000000000800000800000000000000000AA
:105700008000008000000000000000008080000099
:105710000000000000000000000080800000000089
:105720000000008000800000000080000080000079
:105730008000800000000000000000008000008069
:1057400000000000000000008080008000000000D9
:105750000000000080800000000000000000000049
:1057600000008000008000800080800080000080B9
:1057700000008000000000000000000000000000A9
:105780000000000000008000800080000080800099
:105790008000008000000000000000000080000089
:1057A00000000000000000000000000000000000F9
:1057B0000000808080000080008000800080000069
:1057C00000000000000000008080000000000000D9
:1057D00000000000000000000080808000008000C9
:1057E0008000008000000080800000000080000039
:1057F00000000000000000808000000080000080A9
:105800008080800000000000000000000000000018
:105810008000000000000000000000000000808008
:105820000000808000000080000000000080000078
:1058300000000000000000800000008080000000E8
:1058400000000000000080000000000000000000D8
:1058500000800000000000000000000000000000C8
:105860000000000000008000000000000028000090
:1058700000000000800000800000000000000080A8
:105880008000000000000000000080800000000098
:105890000000000080800080808000000000000088
:1058A00000000000000000000000000000000000F8
:1058B0000000000000000000000000008080008068
:1058C00080008000800000808000000000800000D8
:1058D0000000000000000000008000808000000048
:1058E00000000000008080000000000000808000B8
:1058F0000000000000000080800000000000008028
:105900000000000000808000008080000000800017
:105910000000000000000000000000000000000087
:105920000000000000000000000000000000000077
:105930008000000000000000008080000000800067
:105940000080800000000000000000800000008057
:1059500080000080000000000080800000000080C7
:105960000000000000000080008000808000000037
:1059700080808000000000000000000080000080A7
:105980008000000000808080000000800000000097
:105990000000000080000000000000000000008007
:1059A00000008000000000000000800000000000F7
:1059B00000000000000000000000000000000000E7
:1059C0000080000000008000008000000000000057
:1059D00080000080000000000000000080800000C7
:1059E00000000000008000008000000000000000B7
:1059F00000000000000000000000000000000000A7
:105A00000000000000000000000000008000008096
:105A10008000000000808080000000800000000006
:105A20000000000080000000000000000000008076
:105A30000000800000000000000080000000000066
:105A40000000000000000000000000000000000056
:105A500000808000000000000000400000400000C6
:105A600000000080008000800000000080008000B6
:105A70000000000000000080800000808000000026
:105A80000000800000008000000000800000000096
:105A90000000000000008000004040000000000006
:105AA00000004000004000000000004000400040B6
:105AB0000000000040004000000000000000004026
:105AC0004000004040000000000040000000400096
:105AD0000000004000000000000000000000400046
