:020000040800F2
:10000000680A0020C5000008592000080F190008E0
:1000100000000000000000000000000000000000E0
:10002000000000000000000000000000292100087E
:100030000000000000000000CD2000089D21000805
:10004000D700000800000000D7000008D700000813
:10005000D7000008D7000008D7000008D700000824
:100060000000000005060008D7000008D7000008BF
:10007000D7000008D7000008D700000800000000E3
:10008000D70000080000000000000000D7000008B2
:1000900000000000D7000008D7000008D7000008C3
:1000A00000000000D7000008000000000126000842
:1000B0000348854600F03CF8004800473D2A000808
:1000C000680A00200448804704480047FEE7FEE72E
:1000D000FEE7FEE7FEE7FEE7A5220008B100000804
:1000E00030B50B46014600202022012409E00D46D0
:1000F000D5409D4205D31D469540491B2546954058
:1001000040191546521E002DF1DC30BDD2B201E07F
:100110000270401C491EFBD270470022F6E710B562
:1001200013460A4604461946FFF7F0FF204610BD65
:10013000064C0125064E05E0E36807CC2B430C3C3A
:1001400098471034B442F7D3FFF7B6FFAC5200081B
:10015000CC52000870B5044600688168490720D574
:10016000816810264907002905DA8168890702D4C9
:1001700081683143816000F0B5FE05460DE000F076
:10018000B1FE401B022808D9606C30436064A06C4B
:1001900001210843A064084670BD206880684007BC
:1001A000EDD4002070BD10B50146406A426C50236A
:1001B0001A420AD1416C0122520211434164016882
:1001C000CA681205920F05D020E0C06B026B08468A
:1001D000904710BD026A002A18D10A68120715D587
:1001E0008A6853070122002B09DB4B680C24A343C8
:1001F0004B60416C130299431143416406E0416C2A
:10020000202319434164816C1143816400F040FB59
:1002100010BD10B5406A416C402211434164816CAD
:1002200004221143816400F035FB10BD10B5406A13
:1002300000F02FFB10BDF8B50446006881688907FF
:10024000890F012928D10168C90702D1C1680904B1
:1002500022D58168052211401025012601290FD1E0
:10026000816802221143816021680320086000F048
:1002700039FE07460CE000F035FEC01B022807D906
:10028000606C28436064A06C3043A0640120F8BD1A
:1002900020688068C007EED10020F8BDF8B504469C
:1002A00000200090206881688907890F012905D105
:1002B0000168C9072CD1C168090429D48168154A8D
:1002C000102611400125002915D18168294381603C
:1002D000124811490068FFF703FF00E0401E00903C
:1002E0000028FBD100F0FEFD07460CE000F0FAFD0F
:1002F000C01B022807D9606C30436064A06C28439F
:10030000A0640120F8BD20680068C043C007EDD19B
:100310000020F8BD1700008040420F006C00002054
:1003200070B5144C6078002823D000256570124801
:1003300000F006FC002803D0102110A002F098F96C
:100340000C48124B801C018820784200401CC0B22F
:1003500099522070642800D3257006490122891C17
:10036000054800F09DFB002803D0172103A002F0F0
:100370007FF970BD14000020680500202E2E5C411E
:1003800070705C685F6164632E63000092010020FE
:10039000F0B5B3B0584B002069464200401C9C5A4F
:1003A000C0B28C526428F8D30024002022460A25CB
:1003B00001466B466A4355186D005D5B491C281861
:1003C000C9B20A29F7D30A21FFF78AFE4A4983B244
:1003D0006700DC31484ACB5314250021C83A6543F5
:1003E000AA184D005619491C7688C9B256530929D6
:1003F000F7D3538200256900515A6D1C0818EDB2DD
:100400000A2DF8D30A21FFF76BFE3B4E641CC83659
:10041000E4B2F0530A2CC8D300277C00305BFF21E4
:100420000131884204D93448DC30005B0B2136E0CE
:10043000E02804D93048DC30005B0A212FE0C028D6
:1004400004D92D48DC30005B092128E0A02804D91C
:100450002948DC30015BC90847E0802804D92648D8
:10046000DC30005B07211AE0602804D92248DC3028
:10047000005B062113E0402804D91F48DC30005BF4
:1004800005210CE0302804D91B48DC30015B8908C9
:100490002BE0282809D918480321DC30005BFFF73E
:1004A0001FFE1549DC31085320E0202804D91248EA
:1004B000DC30015B490818E06900715A102903D942
:1004C0000D48DC30015B10E0082804D90A48DC3014
:1004D000015B490009E0032804D90748DC30015BCF
:1004E000890002E004480021DC3001537F1CFFB288
:1004F0000A2F92D333B0F0BD9201002010B500F066
:1005000001F810BDF8B53B480024C17805783A4E93
:1005100010E0394B0A211E339F5C8378F7545B1C33
:100520008370354B1E339C54521CD2B242701E2A2B
:1005300000D3447042789542EBD1C170002956D067
:10054000491E0906090EC1702ED1314632780226A5
:100550002A4D422A04D0492A34D04F2A38D040E0CC
:100560004A78302A3DD18A78302A3AD1CA78352A59
:1005700037D10979224830290DD0312917D03229B5
:1005800017D0332917D0342918D0352918D0362957
:100590000AD1062110E0047009200121C00600F0F4
:1005A00095FC012801D02C70F8BD2E70F8BD0121FA
:1005B00002E00670F8BD03210170F8BD0421FBE7DD
:1005C0000521F9E7497849290AD0412908D008E0EE
:1005D0004978462902D04E2902D002E02C7000E072
:1005E0002E7084701E210448FFF797FDF8BD8470BB
:1005F000F8BD000010000020700000200A0000205C
:100600000B00002010B5034800F00CFB024901204C
:10061000087010BD240600201500002010B5044607
:100620000068054940181421FFF75AFD8000206436
:100630000248E06310BD0000F8FFFDBF000002406B
:1006400030B5056C0124AC40C56B6C600468636018
:100650004368102B036803D099600068C26030BD06
:100660009A600068C16030BD10B51148007801285B
:100670000CD002280DD003280ED004280FD0052856
:1006800010D0062811D001F00BFD10BD02F00CF9BE
:1006900010BD02F0A1F810BD02F02AF810BD02F062
:1006A0006BF910BD01F054FC10BD01F047FA10BD0C
:1006B0000B00002010B500241021044800F006FCB7
:1006C000002800D10224204610BD0000000400488C
:1006D000F8B505460446403528780026012808D09C
:1006E00001202870206881688907890F012908D1B5
:1006F00001E00220F8BD0168C90738D1C1680904CA
:1007000035D4616CFF2201329143022211436164AE
:10071000C1688907890F0091C16889088900C16093
:100720002068816892071143816000F0DBFB074677
:100730000EE000F0D7FBC01B022809D9606C022133
:100740008843102108436064002028700120F8BD10
:10075000206880680028ECDB2068C168009A11439B
:10076000C160606C80088000401C606404E0606CC4
:100770002021084360640126002028703046F8BD1F
:10078000F8B500250446403400952278012A39D076
:100790000122227003689E68760767D4384F4E683E
:1007A000BE424DD09E6A0F78BA4016439E62012326
:1007B000826B1B079A421FD0012A1DD0022A1BD030
:1007C000032A19D0042A17D0052A15D0062A13D0D7
:1007D000072A11D002688B6856697607760FB342F4
:1007E0000AD05369DB08DB005361006842690B7A69
:1007F0005B075B0F1A4342610A68102A04D0112A72
:1008000002D038E00220F8BD1E488368102A07D0C5
:1008100001229205134383600868102803D02AE060
:100820000122D205F6E7194817490068FFF758FC7E
:100830000A21484300E0401E00900028FBD11AE046
:10084000986A0E78B240904398620968102901D0E6
:10085000112910D10B488268102904D00121890583
:100860008A43826007E00121C905F9E7416C202233
:10087000114341640125002020702846F8BD000086
:10088000011000000027014040420F006C000020D2
:100890007047704770470000F8B5002504460028EF
:1008A00003D0606C002802D008E00120F8BD0020D1
:1008B000A06440210855204600F0A8F8606C102282
:1008C000C006002870DB2068816849076CD4616C21
:1008D0001301994302231943616481688907890FD1
:1008E000012905D10168C9070FD1C16809040CD4D9
:1008F000C16818239943A3681943C160206801693E
:10090000636889008908194301612068C1683D4B0B
:100910001940C160A069E1698003C9030843216AE5
:100920004B031843636B012B02D001231B0300E030
:1009300000231843E36818432369022B09D00023DE
:100940001843236B666A5B0018430123012E02D013
:100950000AE00423F4E7002927D0616C2026314304
:100960006164A16C1943A164A16A0E46FF3EC23EB8
:1009700002D0E66A314308432168CE680643CE6060
:100980000126A16B3607B14213D0012911D00229EB
:100990000FD003290DD004290BD0052909D0062931
:1009A00007D0072905D010E028E0012109040843F9
:1009B000DAE721684E69F608F6004E6121684E6953
:1009C000278F7F077F0F3E434E612168C9680E4E17
:1009D0003140814207D10020A064606C8008800013
:1009E000401C606408E0606C02218843104360642E
:1009F000A06C1843A06401252846F8BD606C104324
:100A00006064F8E71902FEFFE7FF3F8370B5064612
:100A10000068184986B088422AD117488269411572
:100A20000A438261806900250840059002200090F9
:100A300003200190092069460295C00600F0A2F942
:100A40000E480F4C21C48020256060604000A060EB
:100A5000256180006561E0600948083C00F030F9DC
:100A6000002803D0682107A001F002FEF46366624B
:100A700006B070BD00240140001002400800024092
:100A8000240600202E2E2F5372632F73746D333281
:100A9000663078785F68616C5F6D73702E630000FC
:100AA000F7B5044600680025806840073DD4264617
:100AB0004036307801280AD001273770E0690128D4
:100AC00007D02046FFF7EAFB050002D02EE0022007
:100AD000FEBD606C16490840FF2101310843606487
:100AE0000020A0643070E16B12488862E16B12480C
:100AF000C862E16B1148086321681C200860206807
:100B000041681022114341602068C1683943C160C7
:100B10002168E06B4031029B019A00F0FDF82068EB
:100B2000816804221143816000E002252846FEBD51
:100B3000FEF1FFFFA70100082D02000813020008C4
:100B4000F8B50646044640363078012807D001271C
:100B500037702046FFF7FEFA050002D024E002209D
:100B6000F8BD2068C16849084900C160E06B00F029
:100B70001FF8050003D0606C4021084360642068C2
:100B80004168102291434160002D204602D0FFF7BA
:100B900052FB09E0FFF74FFB050005D1606CFF2118
:100BA0000131884338436064002030702846F8BD26
:100BB00001680A680E239A430A6001680A685208AD
:100BC00052000A600121036C0A469A40C36B5A60C6
:100BD00020304170002101700846704770B5002434
:100BE000014620314A78022A03D00421816301247E
:100BF00016E0026813680E25AB43136002681368A1
:100C00005B085B0013600122056C1346AB40C56BAB
:100C10006B604A7000220A70416B002900D088473F
:100C2000204670BDF0B4C16B0D6801680C680422E9
:100C3000066C1346B3402B420DD063070BD50B68EF
:100C40009B0602D40B6893430B60016C8A40C16B16
:100C50004A60C16A19E00227B74002462F400123CB
:100C60002032002F15D0A70713D50C68A40604D492
:100C70000C680A25AC430C605370036C0221994048
:100C8000C36B596000211170816A002916D0F0BC35
:100C900008470827B7402F4210D024070ED50C680C
:100CA0000E25AC430C60046C1946A140C46B616016
:100CB0008363537000211170016BE6E7F0BC70474D
:100CC00070B5040024D00220214620310D46487022
:100CD000226811680F48A3680140606826691843BC
:100CE000E3683343184363691843A3691843E3690E
:100CF0001843084310602046FFF790FC0020A062D4
:100D0000E06220636063A06301216970287070BD98
:100D1000012070BD0FC0FFFFF8B504468C4620309F
:100D200001780025012909D00126067041780027A5
:100D3000012905D0077002252846F8BD0220F8BD1C
:100D400002214170A76320680168490849000160D9
:100D500061462046FFF774FCE06A002820680168BD
:100D600002D00E22114306E00A22114301602068DE
:100D700001680422914301602068016831430160E9
:100D8000DAE70000F8B500238DE001249C40A4467A
:100D900022407DD04C68022C01D0122C0CD1DC08F2
:100DA000A40027183C6A5D07ED0E0F26AE40B44341
:100DB0000E69AE4026433E6205685E000324B440DF
:100DC0000F79A543BF07BF0FB7402F4307604D689A
:100DD000012D05D0022D03D0112D01D0122D0ED1E1
:100DE0008568CF68A543B7402F438760476865464D
:100DF000AF430D79ED06ED0F9D403D434560C5685D
:100E0000A5438C68B4402C43C4604C68E40049D5C9
:100E1000284CA56901263543A561A4699D08344085
:100E20000094254CAD002F19BC689D072E0F0F258F
:100E3000B540AC430925ED06A84201D100250FE0DD
:100E40001E4DA84201D101250AE01D4DA84201D145
:100E5000022505E01B4DA84201D1032500E0052530
:100E6000B5402543BD60184C25684E689543F60390
:100E700000D51543256065684E689543B60300D5D7
:100E800015436560A5684E689543F60202D500E0FB
:100E900008E01543A560E5684E689543B60200D5A5
:100EA0001543E5605B1C0A681446DC4000D06CE723
:100EB000F8BD00000010024000000140000400489E
:100EC00000080048000C0048000401400069084088
:100ED00000D001207047002A01D0816170478162F3
:100EE00070470000014800687047000000000020C3
:100EF00002480168491C01607047000000000020A2
:100F000010B506480168102211430160002000F06E
:100F100007F800F017F8002010BD00000020024084
:100F200010B5044600F042F97D21C900FFF7D8F85A
:100F300000F046FB00222146501E00F029F8002058
:100F400010BD000008B50C48816901221143816180
:100F500080691040002200901146501F00F018F8E0
:100F600000221146901E00F013F800221146501E78
:100F700000F00EF808BD000000100240C106C90EC6
:100F800001208840014908607047000000E100E04E
:100F900010B501F063F810BDF8B505460068354C92
:100FA000C00352D5E0690026C00007D4E1692004DF
:100FB0000143E161E1690140012600912E48016889
:100FC000C90510D40168821511430160FFF78AFF3B
:100FD000074604E0FFF786FFC01B642824D8264894
:100FE0000068C005F6D5206A03273F02384020D0AC
:100FF0006968394081421CD0206A226AB8430121C5
:1010000009040A432262226A8A4322622062C007DC
:101010000FD0FFF767FF009008E0FFF763FF00992C
:10102000411A1648814201D90320F8BD206A800781
:10103000F3D5206A6968B84308432062002E04D0C3
:10104000E169012000078143E1612878C00705D0EC
:10105000206BA968800880000843206328788006F8
:1010600005D5206B10218843E968084320630020E0
:10107000F8BD00000010024000700040881300001E
:10108000F8B5054644480E460068C007C00FB04298
:101090000AD24148016849084900314301600068AB
:1010A000C007C00FB0425CD128783C4C800705D502
:1010B0006068F0218843A968084360602878C00709
:1010C0003FD06868012813D02168022813D089070F
:1010D000002946DA61688908890001436160FFF7E9
:1010E00001FF6968074601290DD0022917D024E0C5
:1010F00021688903ECE78901EAE7FFF7F3FEC11BEA
:101100002748814217D860680007800F0128F4D172
:1011100017E0FFF7E7FEC11B214881420BD860684A
:101120000007800F0228F4D10BE0FFF7DBFEC11BA4
:101130001B48814201D90320F8BD60680007800F79
:10114000F3D115480168C907C90FB1420BD901682D
:1011500049084900314301600068C007C00FB04230
:1011600001D00120F8BD2878400706D56068072126
:1011700009028843E9680843606000F02DF861685F
:10118000084A0906090F515CC84007490860002059
:10119000FFF7C6FE0020F8BD00200240001002400C
:1011A00088130000945200086C0000200148006879
:1011B000704700006C000020044805490068496839
:1011C000044A4905490F515CC84070476C00002033
:1011D00000100240A452000810B512A30FCB88B033
:1011E0006C460FC413A30FCB0FC416494A680C20DA
:1011F000134603401448042B0FD0082B0DD1930243
:101200001B0F6C46E45CC96A04AB0907090F595C03
:10121000D20304D5FEF764FF604308B010BD0B484D
:101220006043FAE702030405060708090A0B0C0DE0
:101230000E0F10100102030405060708090A0B0C23
:101240000D0E0F100010024000127A0000093D0040
:10125000FEB504460078D04DC00747D06868000747
:10126000800F012807D068680007800F022809D185
:101270006868C00306D52868800337D560680028F1
:101280007ED033E0012062680004012A11D0810081
:10129000002A01D0052A10D02A6882432A602868D3
:1012A000884328606068002814D0FFF71BFE0646BC
:1012B0000CE0296801432960F4E72A680A432A60A0
:1012C000F7E7FFF70FFE801B64286FD828688003BC
:1012D000F7D50BE0FFF706FE064604E0FFF702FE37
:1012E000801B6428F1D828688003F7D42078012671
:1012F000800700283BDA68680007800F07D068681D
:101300000007800F022809D16868C00306D4286846
:10131000800715D5E068012832D111E0E068002887
:10132000286815D030432860FFF7DCFD074604E04D
:10133000FFF7D8FDC01B0228C7D828688007F7D55B
:101340002868F82188432169C900084328600EE015
:10135000400840002860FFF7C5FD074604E0FFF79E
:10136000C1FDC01B0228B0D828688007F7D42078B8
:10137000000724D5E0690028686A10D0304300E0F7
:1013800008E16862FFF7AEFD074604E0FFF7AAFD3B
:10139000C01B022899D8686A8007F7D50FE040087B
:1013A00040006862FFF79EFD074605E09DE0FFF7FD
:1013B00099FDC01B022888D8686A8007F7D4207876
:1013C00004274007002860DA00200190E869C00087
:1013D00008D4E969B8060143E961E96901400120DF
:1013E000009101906D480168C90511D4016882150A
:1013F00011430160FFF776FD009005E0FFF772FDF5
:101400000099401A642870D864480068C005F5D572
:10141000A06801280AD0002801D0052810D0286A29
:10142000400840002862286AB84301E0286A304337
:101430002862A068002812D0FFF754FD00900AE04F
:10144000286A38432862F1E7FFF74CFD0099411AFA
:101450005348814249D8286A8007F5D50DE0FFF747
:1014600041FD009006E0FFF73DFD0099411A4C4810
:1014700081423AD8286A8007F5D40198002804D020
:10148000E969012000078143E9612078C00635D56C
:10149000606901280CD0401D686B23D03843686315
:1014A000686B400840006863FFF71CFD064622E0B9
:1014B000686B38436863686B30436863FFF712FDFD
:1014C000064604E0FFF70EFD801B02285BD8686B20
:1014D0008007F7D5686BF8218843A169C9000843E4
:1014E00068630BE0B8436863F4E74CE0FFF7FAFC8D
:1014F000801B022847D8686B8007F7D4206A002831
:1015000046D069680907890F022943D001263606AB
:101510000228286805D0B0432860FFF7E3FC0446A2
:1015200033E0B0432860FFF7DDFC074604E0FFF737
:10153000D9FCC01B022826D828688001F7D4E86AA5
:10154000E16A000900010843E862616AA06A084391
:1015500069683D221204914308436860286830435B
:101560002860FFF7BFFC044604E0FFF7BBFC001B4C
:10157000022808D828688001F7D509E0FFF7B2FCF7
:10158000001B022801D90320FEBD28688001F5D484
:101590000020FEBD0120FEBD001002400070004092
:1015A00088130000042204490428086902D09043EB
:1015B000086170471043FBE700E000E0704700005F
:1015C000094910B5401E884201D9012010BD074CC1
:1015D00060610321081F00F041FD0020A061072089
:1015E0002061002010BD0000FFFFFF0000E000E0D0
:1015F00010B5FFF7E3FF10BD70B504466030054637
:10160000407A21280FD12068816809060BD58168AE
:10161000802291438160206E002801D0FFF7C8FA34
:10162000204600F001FFA87A22280FD120688168A7
:1016300049060BD58168402291438160606E002885
:1016400001D0FFF7B5FA204600F0D2FE002070BDB1
:1016500070470000F8B503680446D96918680D079B
:101660002D0F07D18A0605D5820603D5204600F046
:10167000E4FEF8BD9A68002D64D0D507ED0FFF2673
:10168000213606402E435DD0CE0706D0C60504D5D0
:1016900001261E62E36E3343E3668F0702230426AE
:1016A000002F06DAD70704D027683B62E76E37437E
:1016B000E7664F0706D5D20704D022681662E26EAD
:1016C0001A43E2660A0709D5202202402A4305D0C0
:1016D000236808221A62E36E1343E366E26E002A6F
:1016E000C7D0890604D5800602D5204600F0A5FEA5
:1016F000E06E000703D42068806840061CD52046B1
:1017000000F076FE20688168490611D58168402284
:1017100091438160606E00280AD012494163606E77
:10172000FFF75CFA0028A4D0606E416B8847F8BDD3
:101730002046FFF78DFFF8BD2046FFF789FF002008
:10174000E066F8BD0A0605D5020603D5204600F07E
:1017500023FFF8BD4906FCD54006FAD5204600F027
:1017600056FEF8BDDD23000870B5040005D02546FF
:101770006035687A002802D006E0012070BD0020A4
:101780002872204600F026F824206872206801683C
:10179000490849000160204600F074FE0128EDD0A0
:1017A000606A002802D0204600F0AAFD2068416847
:1017B0000122D2029143416020688168082291434E
:1017C000816020680168012211430160204600F019
:1017D000FCFD70BD00B50068124987B088421FD17A
:1017E00011488269012189030A43826180690840A6
:1017F00005900C2000900220019000200290032010
:1018000003900120049009206946C006FFF7BAFA48
:10181000002211461B20FFF7BBFB1B20FFF7AEFB8E
:1018200007B000BD003801400010024070B503460B
:1018300060339C7A202C39D100290BD0002A09D0A2
:10184000012584682D03AC4206D10669002E03D120
:10185000CE0701D0012070BD1E7A012E26D00126B0
:101860001E724165014640310A834A83FF22AC4221
:1018700004D10469002C07D10D4A05E0002C04D1E5
:101880000469002C00D07F228A830021C1662222B5
:101890009A72197201688A6832438A600068016826
:1018A000FF22213211430160002070BD022070BD73
:1018B000FF01000030B5034660335C7A202C23D151
:1018C00000290BD0002A09D0012584682D03AC42E1
:1018D00006D10469002C03D1CC0701D0012030BD12
:1018E0001C7A012C10D0C164014640310A824A8220
:1018F0000021C16621225A72197200680168802293
:1019000011430160002030BD022030BD7047FEE76A
:10191000F8B5254C0026A078244D254F002822D06C
:10192000207922281FD123480121027828460078F7
:10193000022A02D000282CD004E0401CC0B228703B
:10194000062800D92E70397021894B20C0008142B1
:101950000CD33E70268128780621484312490A316B
:10196000401800F055FE3878002814D02089401C1B
:1019700081B24B20C0002181814209D93E7026816D
:1019800028780621484308490A31401800F040FEF3
:10199000F8BD2970D7E720894B21C9008842F7D2CA
:1019A000401C2081F8BD0000180000200B00002022
:1019B0000F0000200A00002070B52E4900228A7016
:1019C0000B78834201D0087070BD2A4C4878E678C5
:1019D00065790124834230D10028F5D08A79002A24
:1019E000F2D0521E1206120E8A71EDD10871002E2D
:1019F00000D18C70002D12D01422012D16D0022D92
:101A000001D0032DE0D103234B71802318430871CB
:101A10008A71C879FA28D7D2401CC87170BD2022BB
:101A20004C71104308713220887170BD02234B71D4
:101A30006023184308718A7170BD002813D00871A3
:101A4000002E00D18C70012D08D00A48C0244078A7
:101A50002043022D04D0032D03D101E04024204374
:101A600008714A7101E0CA70CA71052088714B7013
:101A700070BD00001800002010B5FEF71BFEFFF738
:101A80009BFF10BDF0B52A4C00212A48284D4A0082
:101A9000865A0A3D685C142703467B431F19BF5AC8
:101AA000B74211D2823501275B199F52002803D01B
:101AB0002B46823B401E58541D4814230A38405C74
:101AC00058430019865216E0194D002778355B19E6
:101AD0009F52052803D22B46823B401C5854144881
:101AE00014230A38405C0125584303199E52104BB9
:101AF0007833C0188552491CC9B20A29C5D30021C0
:101B00000C4A08464300D35A401C5918C0B20A2850
:101B1000F8D309483B2904D88188642907D2491C95
:101B200004E0FF229132914201D300218180F0BD77
:101B3000760400206E0200205C000020F8B53648D4
:101B4000364902780978364C8A421FD0017000214C
:101B5000344864220170828026460A46783E00207E
:101B600055000A2703467B432F4FDB199954034640
:101B700014277B439F191B19401C7953C0B259533A
:101B80000628EED3521CD2B20A2AE8D3FFF77AFF16
:101B9000254900230022002055001426464336190B
:101BA000765B002E04D00A271E2647437F1806E0E6
:101BB0000A2646437718BE5C002E01D0761EBE541E
:101BC000401CC0B20628E8D3521CD2B20A2AE2D383
:101BD0005B1CDBB2022BDDD3124B18780A2810D223
:101BE000401C00221870144600200A2545436D1839
:101BF000401CC0B2AC540628F7D3521CD2B20A2AF9
:101C0000F2D39888642804D300F038FF00F02AF853
:101C1000F8BD00F00BF8F8BD0E0000200B0000200E
:101C2000EE0400205C000020B8030020F0B50B4F4C
:101C30000B4A00200A230A4D43430021DC19783D5A
:101C40005B19655C5E5C491CC9B256550A29F8D31C
:101C5000401CC0B20628EDD3F0BD0000903800084B
:101C600030040020F0B50B4F0B4A00218B00CD183B
:101C7000094B0020EC193C3BEB18255C1E5C401C1A
:101C8000C0B256550528F8D3491CC9B20C29EDD36A
:101C9000F0BD00005438000830040020F0B51C48A6
:101CA0004178002933D01B4D0124AC621A490378D6
:101CB0002026CA5C0921D707C906002F01D08E61F2
:101CC00000E08E6297074026002F01DA8E6100E067
:101CD0008E6257078026002F01DA8E6100E08E6247
:101CE0000E4E170701D58E6100E08E62D6060C4AB3
:101CF00001D58A6100E08A6200BF00BFAC615B1C55
:101D0000D9B201703C2902D3002101704170F0BDAD
:101D10005A000020000400483004002000010000A8
:101D2000000200003EB51848164901600822490526
:101D3000826041600021C160012481610461C16150
:101D4000046242614162FF22C162C2320163826267
:101D50004163FEF7A1FD002800D0FEE7012000034B
:101D6000019004200290009469460748FEF708FDA0
:101D7000002800D0FEE70448FEF7AAFC002800D0A7
:101D8000FEE73EBD0024014068050020F0B525486F
:101D900087B04269012149040A43426142690A400D
:101DA0000592426949000A43426140691E4D08405C
:101DB0000926F6060590002229463046FFF78BF8E3
:101DC0001A4F002203213846FFF785F8112000241E
:101DD00000900194694602943046FEF7D3FF0095C7
:101DE000012502946946304601950394FEF7CAFF27
:101DF0000320009002946946019503943846FEF74B
:101E0000C1FF082000900194694602943846FEF70D
:101E1000B9FF10206A4631C269463846FEF7B2FF64
:101E200007B0F0BD00100240E09F00000004004831
:101E300010B50F480D4901604B21C90141600021D7
:101E40008160C160016181610C22C16142610162F6
:101E5000302141620121090381634900C163FFF719
:101E600083FC002800D0FEE710BD000000380140D0
:101E7000B4050020F8B50020324D01464A00AA5AA8
:101E8000491C101889B20A29F8D30A21FEF728F94B
:101E90002D49052804D88888642805D2401C02E012
:101EA000282801D300208880002426486600875B0C
:101EB00026482649055D142068430A3100904018E1
:101EC000805BB84216D203213846FEF709F9014675
:101ED0001E48009A03468233D2189153002D01D038
:101EE0006D1E0555005D1421484318490A314018FC
:101EF00087531EE01548009A034682330021D2180A
:101F00009153052D01D26D1C0555015D1422084623
:101F100050430E4A0A328218C01897538753052936
:101F200001D0042905D1002F03D1042906D00221B4
:101F30008153641CA4B20A2CB7D3F8BD0348012115
:101F4000D230F5E76E02002054000020820200200B
:101F5000F8B53C4A3C4811780378994224D00021D6
:101F60003A486424017084801370394E0A46002078
:101F700055000A2304465C43364B1427E318995452
:101F800003467B439F197953314F401C7837DB1947
:101F900059533B467833E318C0B299540628E8D326
:101FA000521CD2B20A2AE2D3FFF764FF284F002066
:101FB0007837394678310022460014235343DB1921
:101FC0009D5B0A24134663435B181C5CA54201D940
:101FD000641C1C54E4B2A54201D2641E1C54E4B239
:101FE0001F2C01D31F241C54521CD2B2062AE4D346
:101FF000401CC0B20A28DED3144B1878401CC0B273
:102000001870052813D90020124D187002460020C0
:1020100004460A26744366186419401CB65CC0B2B4
:10202000A6540628F4D3521CD2B20A2AEFD39888B9
:10203000642804D300F05CFDFFF714FEF8BDFFF741
:10204000F5FDF8BD0E0000200B000020540000201C
:102050008C020020B8030020704700008307FF2295
:10206000DB0E9A408907090E994000280BDA000719
:10207000000F0838830808489B001818C369934369
:102080000B43C3617047830804489B001B18186802
:10209000904308431860704700ED00E000E400E062
:1020A00010B50021084C0A468B000020CB181B19E4
:1020B0001A54401CC0B20528FAD3491CC9B20C29D5
:1020C000F2D3FFF7CFFD10BDF403002070470000EE
:1020D00010B50B48012181710021C1711E220949EF
:1020E0000948FFF7A3FB012208490948FEF7D8FC7D
:1020F000002803D0152107A000F0BAFA10BD000097
:10210000040000208E000020B405002016000020EE
:10211000680500202E2E5C4170705C6170705F6DF0
:1021200061696E2E630000007047000070B50926DB
:10213000F60686B001213046FEF7C8FE164C012592
:102140002178ED0388421BD001213046FEF7BEFE08
:10215000207001213046FEF7B9FE0146002000291B
:1021600004D00221A1710095019004E0A071E071FA
:10217000012100950191029069463046FEF702FE6A
:10218000E079002806D0012229463046FEF7A3FE5A
:1021900006B070BD0022F7E70400002010B5FEF77E
:1021A000BFF8FFF77BFD17480178491CC9B20170E1
:1021B0000A2922D300240470FEF79AFEFFF718FACA
:1021C000114A1078401CC1B2012011700A2901D3B4
:1021D00014700AE0002908D0022908D0042908D088
:1021E00006290BD008290BD005E0084902E0084970
:1021F00000E0084908700849087010BD0749F9E770
:102200000749F7E76A0000200C00002006000020C4
:102210000700002008000020050000200900002021
:102220000D00002070B594B0012512200595009096
:1022300010200490069005200024C0040395022677
:102240000A90089609940B946846FFF701F8002855
:1022500000D0FEE707200C900E9401210D960F94FC
:102260000CA8FEF70DFF002800D0FEE710A810957F
:102270001294FEF791FE002800D0FEE7FEF796FFCD
:102280000749FDF72DFFFFF79BF90420FFF78AF9B7
:1022900000221146501EFEF77BFE14B070BD0000F8
:1022A00010270000134801680122114301604168B2
:1022B000114A114041600168104A114001600168F3
:1022C000012292049143016041683F22120491432C
:1022D0004160C16A09090901C162016BFF22143220
:1022E00091430163416B49084900416300218160CA
:1022F00070470000001002400CB8FF08FFFFF6FE18
:1023000010B5818CC90707D001684A6801235B04B6
:102310009A43836A1A434A60818C890707D501680A
:102320004A6801231B049A43C36A1A434A60818C9A
:10233000490707D501684A6801239B049A43036B48
:102340001A434A60818C090707D501684A6801234E
:10235000DB039A43436B1A434A60818CC90607D555
:102360000268916801231B039943836B19439160B1
:10237000818C890607D501688A6801235B039A432B
:10238000C36B1A438A60818C490612D503685A6868
:1023900001210905046C8A4322435A60026C8A4277
:1023A00007D10268516803235B059943436C1943C5
:1023B0005160818C090607D501684A680123DB0456
:1023C000806C9A4302434A6010BD0021C1662022FE
:1023D00060304272827201720846704710B5406ADE
:1023E0000022014640314A834A82FFF731F910BD8D
:1023F00001680A68FF2321339A430A6001688A68EA
:10240000520852008A60202160308172704710B5F6
:1024100001680A6840239A430A60202269210A540D
:10242000FFF774FA002010BD01680A68C0239A43C0
:102430000A60202160304172704710B55C210A5A51
:102440006A210B5C0168222B05D0886908221043A1
:102450008861022010BD898C012483682403A34273
:1024600002D10369002B05D01140C8B200F0ECF88E
:10247000002010BD436D11401980416D891C4165DC
:10248000F6E70000F8B504462369A268E6691A4336
:10249000636910213343002026681A4333680546D8
:1024A000394F3B401343336023685A680326360391
:1024B000B243E66832435A60236AA26926681A4327
:1024C000B3680B273F02BB431343B3602F4A126B21
:1024D0009207920F06D0012A08D0022A08D0032AB8
:1024E00007D101E0002104E0022102E0042100E024
:1024F00008210122E369D203934224D100290CD0A0
:1025000002290DD0042913D0082917D0012501096B
:1025100009010007400F084332E0FEF74DFE09E0D5
:1025200061681B4A48088018FDF7DAFD80B2EEE7C3
:10253000FEF752FE616840004A08F4E76168012234
:1025400048081204EFE7002908D0022909D004291D
:102550000BD008290ED001252846F8BDFEF72CFE29
:1025600005E061680B4A480806E0FEF735FE616841
:102570004A0801E0616848088018FDF7B1FD80B2A3
:102580002168C860E8E70000F369FFFF001002401F
:102590000024F40000127A006921095C212901D08D
:1025A0000220704702464032518A002912D001238E
:1025B00081681B03994202D10169002915D0C16CC1
:1025C0004B1CC364006809780185508A401E508204
:1025D0000020704701680A6880239A430A600068F7
:1025E0000168402211430160F2E7C16C0368098869
:1025F000C905C90D1985C16C891CC164E5E70000D6
:1026000010B50248FFF726F810BD0000B405002001
:1026100070B5054600240A48FEF7EEFF094903E0BD
:102620000855641CE4B26D1C28780A2801D00028E3
:10263000F6D1224603490248FFF73CF970BD00007D
:10264000B4050020AC000020084A074B117858540C
:10265000491CC8B210701E2801D3002010700A2037
:10266000D0700020704700008E0000201000002075
:10267000FEE702E008C8121F08C1002AFAD170471D
:102680007047002001E001C1121F002AFBD17047F2
:10269000FFF71EFD0025134C134E0127607800281C
:1026A00002D06570FDF72AFFA078002806D0A5703B
:1026B000FFF7E2F9FFF72CF9FFF738FDE078002883
:1026C00002D0E570FDF764FE2079002800D0257166
:1026D00060790028E2D06571044835700770FDF715
:1026E000C3FFDBE7040000205A0000205B0000204D
:1026F000F8B534483449057809780022334B344C16
:102700008D4213D001705A70DA70C8201A70987018
:1027100000218D0000204D192D192A54401CC0B2F3
:102720000528FAD3491CC9B20C29F2D39878401C69
:10273000C0B298700A283FD99A701878401CC0B26D
:1027400018700D2814D31A70D878401CC0B2D870F5
:10275000052803D3DA705878C0435870D878401CE5
:10276000C0B2D870052803D3DA705878C0435870C7
:10277000D97818785D783C235843164B0022C0184E
:102780008446134C93000020D3181C196344002D79
:1027900015D00426761A9E5D491C7700F619C9B239
:1027A0002654052900D30021401CC0B20528EED3D1
:1027B000521CD2B20C2AE4D3FFF754FAF8BD5E5C87
:1027C000EAE700000E0000200B0000204C00002073
:1027D000F4030020702B0008F8B52E482E49057828
:1027E000097800222D4B2E4C8D4213D001701A70A7
:1027F0009A70C820DA70587000218D0000204D19A1
:102800002D192A54401CC0B20528FAD3491CC9B25C
:102810000C29F2D35878401CC0B258700C2833D918
:102820005A70D878401CC0B2D8700D280AD3DA701C
:102830009878401CC0B29870052800D39A70187818
:10284000C04318709978D8781D783C235843154BAD
:102850000022C718124C9300D31800201C19FB1833
:10286000002D14D00426761A9E5D491C7600C9B24C
:102870002654052900D30021401CC0B20528EFD3FF
:10288000521CD2B20C2AE5D3FFF7ECF9F8BD5E5C1E
:10289000EBE700000E0000200B000020620000208B
:1028A000F4030020D43F0008F8B52E482E490578DF
:1028B000097800222D4B2E4C8D4213D001701A70D6
:1028C0009A70C820DA70587000218D0000204D19D0
:1028D0002D192A54401CC0B20528FAD3491CC9B28C
:1028E0000C29F2D35878401CC0B258700F2833D945
:1028F0005A70D878401CC0B2D87006280AD3DA7053
:102900009878401CC0B29870052800D39A70187847
:10291000C04318709978D8781D783C235843154BDC
:102920000022C0188446124C9300D3181C190020B2
:1029300063440426002D12D0771ADF5D491CC9B20A
:102940002754052900D30021401CC0B20528F1D32B
:10295000521CD2B20C2AE6D3FFF784F9F8BD5F5CB3
:10296000ECE700000E0000200B00002050000020CB
:10297000F40300207C2E0008F8B52B482B4905787D
:10298000097800222A4B2B4C8D4213D001701A700B
:10299000DA70C8205A70987000218D0000204D19FF
:1029A0002D192A54401CC0B20528FAD3491CC9B2BB
:1029B0000C29F2D39878401CC0B2987014282FD9F3
:1029C0009A70D878401CC0B2D870122803D3DA703D
:1029D0001878C04318705A78D8781D783C2358432B
:1029E000154B0021C0188446124C8B000020042691
:1029F000CB181C196344002D02D0371ADF5D00E0AC
:102A00001F5C7F002754401CC0B20528F3D3521C22
:102A1000D2B2052A00D30022491CC9B20C29E3D343
:102A2000FFF720F9F8BD00000E0000200B00002089
:102A300066000020F4030020DC46000808B5FEF71D
:102A40005FFAFFF7EFFBFFF7A1F90B48416901229D
:102A50001143416140691040002200901146092055
:102A6000FEF796FA0920FEF789FAFFF75BF9FFF700
:102A7000DFF9FFF70DFEFEE700100240F0B5194840
:102A80008178491CC9B281700A2927D90021817037
:102A9000C278521CD2B2C2700D2A03D3C1704178E1
:102AA000C9434170C27844783C2042430E4800211B
:102AB00015188A008E180D4AAB190020B21804268A
:102AC000002C0CD0371ADF5D7F081754401CC0B2B1
:102AD0000528F5D3491CC9B20C29EAD3F0BD1F5C07
:102AE000F2E700005C000020CC380008F40300206E
:102AF000F0B51C488178491CC9B281700C2930D9C5
:102B000000228270C178491CC9B2C1700C2903D35C
:102B1000C2704178C9434170C678447800210020D2
:102B2000114A8B00CB1805469A181554401CC0B2A8
:102B30000528FAD33C270D4D77437D190120EB186A
:102B40000425002C01D01F5C01E02F1ADF5D7F08F7
:102B50001754401CC0B20428F3D3491CC9B20C2935
:102B6000DDD3F0BD54000020F403002084350008BC
:102B70000000000000000000000000000000000055
:102B80000000000000000000000000000000000045
:102B900000010000000002000600010302080A060E
:102BA0000A0A060A070A090A040A080500000000C2
:102BB0000000000000000000000000000000000015
:102BC0000200000200000000000000000001000000
:102BD00005000200070002030204070A040A0405B4
:102BE0000A060603070508070000000000000000B1
:102BF00000000000000200020000000000000000D1
:102C000000000000000000030001000004000200BA
:102C100005010209020804090508060708070A0455
:102C2000040A060900000002000000000000000283
:102C3000000000000002000000020100000003008C
:102C40000000010100000000050001000505010170
:102C5000000A080A0A05060A06060A0A09070A07F8
:102C60000000000000000001000000020000000061
:102C70000001000000000000000000000000000251
:102C800000000000040100000202010000050A0625
:102C90000A0A040A070A060A080A080A00020000CB
:102CA0000000000000000000000000000000000024
:102CB0000000000000000000000000000000000014
:102CC000020000000100000000080A0A050A050AC7
:102CD00008060A0A09070A090000000000000000AF
:102CE00000000000000000000002000000020000E0
:102CF00000000000000000000000000802000802C0
:102D00000509000900080A060A0A060A070A090A4C
:102D1000040A080500000000000000010000000295
:102D200000000000000000000000000000000000A3
:102D30000000000000040004050701000100000776
:102D40000004070A040A04050A0606030705080723
:102D50000002010000000000000000000000000070
:102D60000000000000000003000005000400010056
:102D70000005000000000200000005070000040933
:102D80000508060708070A04040A060900000000EF
:102D90000000000000000000000000000200000031
:102DA000010000010000000003000000010000001D
:102DB0000000050004000105000A080A0A05060AC9
:102DC00006060A0A09070A070000000000000100C1
:102DD00000000200000100000000000000000100EF
:102DE00000000000000000000000000004000000DF
:102DF0000400040000050A060A0A040A070A060A73
:102E0000080A080A0100000100000000000000009C
:102E100001000000000000000000000000000000B1
:102E20000000000100000001020000000403010096
:102E300000080A0A050A050A08060A0A09070A0913
:102E40000000000000000000000000000000000082
:102E50000000000000000000000000000000000072
:102E600000000000040000000206020000080A063C
:102E70000A0A060A070A090A040A080500000000EF
:102E80000000000000000000000000000000000042
:102E90000000000000000000000000000001000031
:102EA000000000000600000000080A060A0A060AE0
:102EB000070A090A040A08050000000000000000D3
:102EC0000000000000000000000000000100000100
:102ED00000000000000000000000000005000000ED
:102EE000070000000004070A040A04050A06060396
:102EF00007050807000000000000000000000000B7
:102F000000010001000000000000000000000000BF
:102F1000000000030000000004000000050100099B
:102F2000000804090508060708070A04040A060938
:102F3000000000010000000000000002000000008E
:102F40000002000000030100000003000000010176
:102F5000000000000500000005050000000A080A46
:102F60000A05060A06060A0A09070A070000000001
:102F7000000000010000000300000000000100004C
:102F8000000000000000000000000002000000003F
:102F9000040000000201000000050A060A0A040AF3
:102FA000070A060A080A080A0002000000000000DA
:102FB0000000000000000000000000000000000011
:102FC00000000000000000000000000002000000FF
:102FD0000100000000080A0A050A050A08060A0A94
:102FE00009070A09000000000000000000000000BE
:102FF00000000000000000000000000000000000D1
:1030000000000000000000000000000000000000C0
:1030100000080A060A0A060A070A090A040A080535
:1030200000000000000000000000000000000000A0
:103030000000000000000000000000000000000090
:103040000000000000000000000000000004070A6B
:10305000040A04050A060603070508070000000025
:103060000000000000000000000000000000000060
:103070000000000000000000000000000000000050
:103080000000000000000000000004090508060719
:1030900008070A04040A06090000000000000000F6
:1030A0000000000000000000000000000000000020
:1030B0000000000000000000000000000000000010
:1030C00000000000000A080A0A05060A06060A0AA5
:1030D00009070A07000000000000000000000000CF
:1030E00000000000000000000000000000000000E0
:1030F00000000000000000000000000000000000D0
:1031000000050A060A0A040A070A060A080A080A43
:1031100000000000000000000000000000000000AF
:10312000000000000000000000000000000000009F
:1031300000000000000000000000000000080A0A73
:10314000050A050A08060A0A09070A09000000001C
:10315000000000000000000000000000000000006F
:10316000000000000000000000000000000000005F
:10317000000000000000000000080A060A0A060A13
:10318000070A090A040A0805000000000000000000
:10319000000000000000000000000000000000002F
:1031A000000000000000000000000000000000001F
:1031B000000000000004070A040A04050A060603CA
:1031C00007050807000000000000000000000000E4
:1031D00000000000000000000000000000000000EF
:1031E00000000000000000000000000000000000DF
:1031F000000004090508060708070A04040A06096E
:1032000000000000000000000000000000000000BE
:1032100000000000000000000000000000000000AE
:10322000000000000000000000000000000A080A82
:103230000A05060A06060A0A09070A07000000002E
:10324000000000000000000000000000000000007E
:10325000000000000000000000000000000000006E
:10326000000000000000000000050A060A0A040A27
:10327000070A060A080A080A000000000000000009
:10328000000000000000000000000000000000003E
:10329000000000000000000000000000000000002E
:1032A0000000000000080A0A050A050A08060A0AC2
:1032B00009070A09000000000000000000000000EB
:1032C00000000000000000000000000000000000FE
:1032D00000000000000000000000000000000000EE
:1032E00000080A060A0A060A070A090A040A080563
:1032F00000000000000000000000000000000000CE
:1033000000000000000000000000000000000000BD
:103310000000000000000000000000000004070A98
:10332000040A04050A060603070508070000000052
:10333000000000000000000000000000000000008D
:10334000000000000000000000000000000000007D
:103350000000000000000000000004090508060746
:1033600008070A04040A0609000000000000000023
:10337000000000000000000000000000000000004D
:10338000000000000000000000000000000000003D
:1033900000000000000A080A0A05060A06060A0AD2
:1033A00009070A07000000000000000000000000FC
:1033B000000000000000000000000000000000000D
:1033C00000000000000000000000000000000000FD
:1033D00000050A060A0A040A070A060A080A080A71
:1033E00000000000000000000000000000000000DD
:1033F00000000000000000000000000000000000CD
:1034000000000000000000000000000000080A0AA0
:10341000050A050A08060A0A09070A090000000049
:10342000000000000000000000000000000000009C
:10343000000000000000000000000000000000008C
:10344000000000000000000000080A060A0A060A40
:10345000070A090A040A080500000000000000002D
:10346000000000000000000000000000000000005C
:10347000000000000000000000000000000000004C
:10348000000000000004070A040A04050A060603F7
:103490000705080700000000000000000000000011
:1034A000000000000000000000000000000000001C
:1034B000000000000000000000000000000000000C
:1034C000000004090508060708070A04040A06099B
:1034D00000000000000000000000000000000000EC
:1034E00000000000000000000000000000000000DC
:1034F000000000000000000000000000000A080AB0
:103500000A05060A06060A0A09070A07000000005B
:1035100000000000000000000000000000000000AB
:10352000000000000000000000000000000000009B
:10353000000000000000000000050A060A0A040A54
:10354000070A060A080A080A000000000000000036
:10355000000000000000000000000000000000006B
:10356000000000000000000000000000000000005B
:103570000000000000080A0A050A050A08060A0AEF
:1035800009070A0900000000000000000000000018
:10359000000000000000000000000000000000002B
:1035A0000200000000000000000202000004000011
:1035B000000008060600000A0708000004080800CA
:1035C00000000000000000000000000000000000FB
:1035D00000000000000000000000000200000002E7
:1035E00002000000020202000002030000000606C2
:1035F00004000005060600000705080000000000A2
:1036000000000000000000000000000000020000B8
:1036100000000000000000000000000002000000A8
:103620000202020000030200000004070500000778
:103630000807000004080600000000000000000267
:10364000000000000000000000000000000000007A
:103650000000000000000000000000000202020064
:10366000000402000000080508000008060600002B
:103670000907080000000200000000000000000030
:10368000000000000000000000000000000000003A
:10369000000000000002000002020200000202021C
:1036A00000000406050000060706000008080800E0
:1036B000000000000000000000000000000000000A
:1036C00000000000000000000000000000000000FA
:1036D00000000000000200000002040200000606D4
:1036E00005000006080600000907090000000000A8
:1036F00000000000000000000000000000000000CA
:1037000000000000000000030000000004000000B2
:103710000202000000020600000006060600000883
:103720000708000004090800000000000000000075
:103730000000000000000000000000000000000089
:103740000000000000000002000000000002000075
:10375000000402020000070404000005080600003F
:103760000705080000000000000000000000000045
:103770000000000000000000000100000000020046
:10378000000000020000000002020000000303002D
:1037900000000406050000070707000004080600F3
:1037A0000000000000000000000000010000000018
:1037B0000000000000000000000000000000000009
:1037C00002000000020202000002030000000806DE
:1037D00004000006060600000907060000000000BD
:1037E00000000000000000000000000000000000D9
:1037F00000000000000000000200000002000000C5
:103800000002000000020302000006060400000699
:103810000706000008080800000000000000000083
:103820000000000000000000000000000000000098
:103830000000000000000000000000000002000086
:10384000000202020000050505000006080600004F
:1038500009070700112F0B2905233B1D3517102ED3
:103860000A2804223A1C34160F2D09270321391B7C
:1038700033150E2C08260220381A32140D2B07257A
:10388000011F371931130C2A0624001E3618301276
:1038900023113B2F1D0B3529170522103A2E1C0A28
:1038A00034281604210F392D1B0933271503200E48
:1038B000382C1A08322614021F0D372B1907312510
:1038C00013011E0C362A18063024120000000000D6
:1038D00000000000000000000000000000000000E8
:1038E00000000000000000000000000000010000D7
:1038F000000000000600000000080A060A0A060A86
:10390000070A090A040A0805000000000000000078
:1039100000000000000000000000000001000001A5
:103920000000000000000000000000000500000092
:10393000070000000004070A040A04050A0606033B
:10394000070508070000000000000000000000005C
:103950000001000100000000000000000000000065
:103960000000000300000000040000000501000941
:10397000000804090508060708070A04040A0609DE
:103980000000000100000000000000020000000034
:10399000000200000003010000000300000001011C
:1039A000000000000500000005050000000A080AEC
:1039B0000A05060A06060A0A09070A0700000000A7
:1039C00000000001000000030000000000010000F2
:1039D00000000000000000000000000200000000E5
:1039E000040000000201000000050A060A0A040A99
:1039F000070A060A080A080A000200000000000080
:103A000000000000000000000000000000000000B6
:103A100000000000000000000000000002000000A4
:103A20000100000000080A0A050A050A08060A0A39
:103A300009070A0900000000000000000000000063
:103A40000000000000010000000100000000000074
:103A5000000000000000000802000802050900093B
:103A600000080A060A0A060A070A090A040A0805DB
:103A70000000000000000001000000010000000044
:103A80000000000000000000000000000000000036
:103A90000004000405070100010000070004070AF4
:103AA000040A04050A0606030705080700010100C9
:103AB0000000000000000000000000000000000006
:103AC00000000003000005000400010000050000E4
:103AD00000000200000005070000040905080607B1
:103AE00008070A04040A060900000000000000009C
:103AF00000000000000000000500000001000000C0
:103B000000000000030000000000000000000500AD
:103B100000000105000A080A0A05060A06060A0A44
:103B200009070A0700000000000002000000010071
:103B30000000000000000000000000000000000085
:103B40000000000000000000000000000000040071
:103B500000050A060A0A040A070A060A080A080AE9
:103B60000100000000000000000000000000000054
:103B70000000000000000000000000000000000045
:103B800000000000000000000000000000080A0A19
:103B9000050A050A08060A0A09070A0900000000C2
:103BA0000000000000000000000000000000000015
:103BB0000000000000000000000000000000000005
:103BC000000000000000000000080A060A0A060AB9
:103BD000070A090A040A08050000000000000000A6
:103BE00000000000000000000000000000000000D5
:103BF00000000000000000000000000000000000C5
:103C0000000000000004070A040A04050A0606036F
:103C10000705080700000000000000000000000089
:103C20000000000000000000000000000000000094
:103C30000000000000000000000000000000000084
:103C4000000004090508060708070A04040A060913
:103C50000000000000000000000000000000000064
:103C60000000000000000000000000000000000054
:103C7000000000000000000000000000000A080A28
:103C80000A05060A06060A0A09070A0700000000D4
:103C90000000000000000000000000000000000024
:103CA0000000000000000000000000000000000014
:103CB000000000000000000000050A060A0A040ACD
:103CC000070A060A080A080A0000000000000000AF
:103CD00000000000000000000000000000000000E4
:103CE00000000000000000000000000000000000D4
:103CF0000000000000080A0A050A050A08060A0A68
:103D000009070A0900000000000000000000000090
:103D100000000000000000000000000000000000A3
:103D20000000000000000000000000000000000093
:103D300000080A060A0A060A070A090A040A080508
:103D40000000000000000000000000000000000073
:103D50000000000000000000000000000000000063
:103D60000000000000000000000000000004070A3E
:103D7000040A04050A0606030705080700000000F8
:103D80000000000000000000000000000000000033
:103D90000000000000000000000000000000000023
:103DA00000000000000000000000040905080607EC
:103DB00008070A04040A06090000000000000000C9
:103DC00000000000000000000000000000000000F3
:103DD00000000000000000000000000000000000E3
:103DE00000000000000A080A0A05060A06060A0A78
:103DF00009070A07000000000000000000000000A2
:103E000000000000000000000000000000000000B2
:103E100000000000000000000000000000000000A2
:103E200000050A060A0A040A070A060A080A080A16
:103E30000000000000000000000000000000000082
:103E40000000000000000000000000000000000072
:103E500000000000000000000000000000080A0A46
:103E6000050A050A08060A0A09070A0900000000EF
:103E70000000000000000000000000000000000042
:103E80000000000000000000000000000000000032
:103E9000000000000000000000080A060A0A060AE6
:103EA000070A090A040A08050000000000000000D3
:103EB0000000000000000000000000000000000002
:103EC00000000000000000000000000000000000F2
:103ED000000000000004070A040A04050A0606039D
:103EE00007050807000000000000000000000000B7
:103EF00000000000000000000000000000000000C2
:103F000000000000000000000000000000000000B1
:103F1000000004090508060708070A04040A060940
:103F20000000000000000000000000000000000091
:103F30000000000000000000000000000000000081
:103F4000000000000000000000000000000A080A55
:103F50000A05060A06060A0A09070A070000000001
:103F60000000000000000000000000000000000051
:103F70000000000000000000000000000000000041
:103F8000000000000000000000050A060A0A040AFA
:103F9000070A060A080A080A0000000000000000DC
:103FA0000000000000000000000000000000000011
:103FB0000000000000000000000000000000000001
:103FC0000000000000080A0A050A050A08060A0A95
:103FD00009070A09000000000000000000000000BE
:103FE00000000000000000000000000000000000D1
:103FF00000000000000100000000000006000000BA
:1040000000080A060A0A060A070A090A040A080535
:1040100000000000000000000000000000000000A0
:10402000000000000200000200000000000000008C
:104030000000000005000000070000000004070A5F
:10404000040A04050A060603070508070000000025
:10405000000000000000000000020002000000005C
:10406000000000000000000000000003000000004D
:1040700004000000050100090008040905080607FE
:1040800008070A04040A06090000000200000000F4
:104090000000000200000000000200000002010019
:1040A0000000030000000101000000000500000006
:1040B00005050000000A080A0A05060A06060A0A9B
:1040C00009070A07000000000000000200000003CA
:1040D00000000000000100000000000000000000DF
:1040E00000000002000000000400000002010000C7
:1040F00000050A060A0A040A070A060A080A080A44
:1041000000020000000000000000000000000000AD
:10411000000000000000000000000000000000009F
:1041200000000000020000000100000000080A0A70
:10413000050A050A08060A0A09070A09000000001C
:10414000000000000000000000000000000200006D
:104150000002000000000000000000000000000855
:10416000020008020509000900080A060A0A060AF0
:10417000070A090A040A08050000000000000002FE
:10418000000000020000000000000000000000002D
:10419000000000000000000000040004050701000A
:1041A000010000070004070A040A04050A060603C2
:1041B00007050807000202000000000000000000E0
:1041C00000000000000000000000000300000500E7
:1041D00004000100000500000000020000000507C7
:1041E000000004090508060708070A04040A06096E
:1041F00000000000000000000000000000000000BF
:1042000005000000010000010000000003000000A4
:10421000010000000000050004000105000A080A72
:104220000A05060A06060A0A09070A07000000002E
:104230000000020000000200000100000000000079
:10424000000001000000000000000000000000006D
:10425000040000000400040000050A060A0A040A1B
:10426000070A060A080A080A020000010000000006
:10427000000000000100000000000000000000003D
:10428000000000000000000000000000000000002E
:104290000400000000080A0A050A050A08060A0ABE
:1042A00009070A09000000010000000000000000EA
:1042B00000000000000000000000000000000000FE
:1042C00000000000000000000000000000000000EE
:1042D00000080A060A0A060A070A090A040A080563
:1042E00000000000000000000000000000000000CE
:1042F00000000000000000000000000000000000BE
:104300000000000000000000000000000004070A98
:10431000040A04050A060603070508070000000052
:10432000000000000000000000000000000000008D
:10433000000000000000000000000000000000007D
:104340000000000000000000000004090508060746
:1043500008070A04040A0609000000000000000023
:10436000000000000000000000000000000000004D
:10437000000000000000000000000000000000003D
:1043800000000000000A080A0A05060A06060A0AD2
:1043900009070A07000000000000000000000000FC
:1043A000000000000000000000000000000000000D
:1043B00000000000000000000000000000000000FD
:1043C00000050A060A0A040A070A060A080A080A71
:1043D00000000000000000000000000000000000DD
:1043E00000000000000000000000000000000000CD
:1043F00000000000000000000000000000080A0AA1
:10440000050A050A08060A0A09070A090000000049
:10441000000000000000000000000000000000009C
:10442000000000000000000000000000000000008C
:10443000000000000000000000080A060A0A060A40
:10444000070A090A040A080500000000000000002D
:10445000000000000000000000000000000000005C
:10446000000000000000000000000000000000004C
:10447000000000000004070A040A04050A060603F7
:104480000705080700000000000000000000000011
:10449000000000000000000000000000000000001C
:1044A000000000000000000000000000000000000C
:1044B000000004090508060708070A04040A06099B
:1044C00000000000000000000000000000000000EC
:1044D00000000000000000000000000000000000DC
:1044E000000000000000000000000000000A080AB0
:1044F0000A05060A06060A0A09070A07000000005C
:1045000000000000000000000000000000000000AB
:10451000000000000000000000000000000000009B
:10452000000000000000000000050A060A0A040A54
:10453000070A060A080A080A000000000000000036
:10454000000000000000000000000000000000006B
:10455000000000000000000000000000000000005B
:104560000000000000080A0A050A050A08060A0AEF
:1045700009070A0900000000000000000000000018
:10458000000000000000000000000000000000002B
:10459000000000000000000000000000000000001B
:1045A00000080A060A0A060A070A090A040A080590
:1045B00000000000000000000000000000000000FB
:1045C00000000000000000000000000000000000EB
:1045D0000000000000000000000000000004070AC6
:1045E000040A04050A060603070508070000000080
:1045F00000000000000000000000000000000000BB
:1046000000000000000000000000000000000000AA
:104610000000000000000000000004090508060773
:1046200008070A04040A0609000000000000000050
:10463000000000000000000000000000000000007A
:10464000000000000000000000000000000000006A
:1046500000000000000A080A0A05060A06060A0AFF
:1046600009070A0700000000000000000000000029
:10467000000000000000000000000000000000003A
:10468000000000000000000000000000000000002A
:1046900000050A060A0A040A070A060A080A080A9E
:1046A000000000000000000000000000000000000A
:1046B00000000000000000000000000000000000FA
:1046C00000000000000000000000000000080A0ACE
:1046D000050A050A08060A0A09070A090000000077
:1046E00000000000000000000000000000000000CA
:1046F00000000000000000020000000201000000B5
:10470000000103000000000000080A060A02060A71
:10471000070A010A040A0805000000000000000062
:104720000000000000000000000100000000000088
:10473000000000020100000001020000000103006F
:104740000001040300040707040A04050A0606031F
:10475000070508070000000000000001000000013C
:104760000000000001000000000200000000000343
:104770000000000001000000000401000002080227
:10478000000004090500060708070004040A0603E0
:104790000000000000000001010000010100000015
:1047A0000100000000020000000000010000000203
:1047B000020000000203020000050801000A0808C8
:1047C0000A05060A06060A0A09070A070001000088
:1047D00000000100010000000101000001010000D3
:1047E00000000200000001020000000101000000C2
:1047F000010301000008040100050A060A0A040A70
:10480000070A060A080A080A010001010000000060
:104810000000000000000000000000000001020095
:10482000000001020000000101000000010300007F
:104830000801020800080A0A050A050A08060A0A09
:1048400009070A0900000000000000000000000045
:104850000000000000000000000000000000000256
:104860000000000100000000010101000800030831
:1048700000090A03020A07060804050A08050409D4
:104880000000000000000000000000000000000028
:104890000000000000000000000000000000000018
:1048A00000020100000001020000040000000203F9
:1048B000000A0002080401000405040400000000CE
:1048C00000000000000000000001000000000201E4
:1048D00000000001000000000001000000020100D3
:1048E00000000201000000000000020802050000B4
:1048F0000805030000050605000000000000000098
:1049000001000000010000000000020100000002A0
:104910000000000000000000000201000000030190
:104920000000000100000006050A0206070A030451
:10493000030A080A00000100000000010000000056
:104940000000000000000000000000000100000066
:104950000001000000020100000000000000000053
:10496000000708000504060A08050A08070A0609E0
:104970000001000000000000000000000000000036
:104980000000000002000000000100000000030021
:104990000100000000010101020000030002030603
:1049A0000A0A050A070A050A040A080A00010000A3
:1049B00000000000000000000000000001010000F5
:1049C00001000000000002000100000001000001E1
:1049D00001000001030600020000060705000306AF
:1049E0000A0601020A05080A000100000000000092
:1049F00000000000020000010101000102010001AD
:104A00000001020000010300000200070100000095
:104A100003010000000302010000050A0201010A6F
:104A2000090702020001000000000000020100006E
:104A3000000000000101000101000002000100006F
:104A40000000020100000002010000000402020157
:104A500000010402010003030801010305070A0124
:104A60000001000101000000000100000001000041
:104A7000010100000000000000000201000102012D
:104A80000002020201000002030000010002030014
:104A900002020306080403050805040500010001DD
:104AA0000000000000000000000000000000000006
:104AB00000000000010000000001020000010001F0
:104AC00001000202040000000009050002030706BD
:104AD0000804050A080504090000000000000000A1
:104AE00000000000000000000000000000000000C6
:104AF00000000000000000000000000000000000B6
:104B000006000000000506080205060A08050A0757
:104B1000070A060900000000000000000000000075
:104B20000000000000000000000000000000000085
:104B3000000000000000000000000000080000006D
:104B400000040806080A060A070A030A050A080AF2
:104B50000000000000000000000000000000000055
:104B60000000000000000000000000000000000045
:104B7000000000000000000005090000000708090F
:104B80000504060A08050A08070A060900000000CD
:104B90000000000000000000000000000000000015
:104BA0000000000000000000000000000000000005
:104BB000000000000500000600050A060A0A060AB1
:104BC000070A050A040A080A0000000000000000A5
:104BD00000000000000000000000000000000000D5
:104BE00000000000000000000000000000000000C5
:104BF0000700000000040607050A07060A06070862
:104C00000A05080A00000000000000000000000083
:104C10000000000000000000000000000000000094
:104C20000000000000000000000000000000000084
:104C3000000A080A0A05050A06060A0A09070A07F9
:104C40000000000000000000000000000000000064
:104C50000000000000000000000000000000000054
:104C600000000000000000000200090000030A0626
:104C70000A0A040A070A0405040A080A00000000D8
:104C80000000000000000000000000000000000024
:104C90000000000000000000000000000000000014
:104CA000000000000000010000030609040A0706D6
:104CB0000A0607080A05080A0000000000000000B4
:104CC00000000000000000000000000000000000E4
:104CD00000000000000000000000000000000000D4
:104CE00000000200000A080A0A05050A06060A0A68
:104CF00009070A0700000000000000000000000093
:104D000000000000000000000000000000000000A3
:104D10000000000000000000000000000000030090
:104D2000000A080A0A05050A06060A0A09070A0708
:104D30000000000000000000000000000000000073
:104D40000000000000000000000000000000000063
:104D50000000000000000000000303000003060A3A
:104D6000040A07060A0607080A05080A00000000E8
:104D70000000000000000000000000000000000033
:104D80000000000000000000000000000000000023
:104D90000000000000030000000A080A0A05050AD6
:104DA00006060A0A09070A070000000000000000C2
:104DB00000000000000000000000000000000000F3
:104DC00000000000000000000000000000000000E3
:104DD00000000000000A080A0A05050A06060A0A79
:104DE00009070A07000000000000000000000000A2
:104DF00000000000000000000000000000000000B3
:104E0000000000000000000000000000000006009C
:104E100000090A03020A07060804050A080504092E
:104E20000000000000000000000000000000000082
:104E30000000000000000000000000000000000072
:104E400000000000000000000006050000090A0341
:104E5000020A07060804050A080504090000000004
:104E60000000000000000000000000000000000042
:104E70000000000000000000000000000000000032
:104E80000000000000060006000506080901060AE9
:104E900008050207070A06070000000000000000DE
:104EA0000000000000000000000000000000000002
:104EB00000000000000000000000000000000000F2
:104EC00000000505000408060805060A0705010A92
:104ED000050A0802000000000000000000000000B9
:104EE00000000000000000000000000000000000C2
:104EF00000000000000000000000000000000603A9
:104F0000000708090504060A08050208070A060939
:104F10000000000000000000000000000000000091
:104F20000000000000000000000000000000000081
:104F300000000000000000000003060000050A0653
:104F40000301060A0702010A040A08020000000021
:104F50000000000000000000000000000000000051
:104F60000000000000000000000000000000000041
:104F7000000000000000000000040607040007060F
:104F80000A0201080A0508020000000000000000F3
:104F90000000000000000000000000000000000011
:104FA0000000000000000000000000000000000001
:104FB0000006050000090A03020607060804050AA0
:104FC00008050409000000000000000000000000C7
:104FD00000000000000000000000000000000000D1
:104FE00000000000000000000000000000060006B5
:104FF000000506080905060A08050A07070A060942
:1050000000000000000000000000000000000000A0
:105010000000000000000000000000000000000090
:105020000000000000000000000005050004080664
:10503000080A060A070A030A050A080A000000000F
:105040000000000000000000000000000000000060
:105050000000000000000000000000000000000050
:105060000000000000000603000708090504060A06
:1050700008050208070A06090000000000000000F9
:105080000000000000000000000000000000000020
:105090000000000000000000000000000000000010
:1050A0000003060000050A060302060A0704020AB6
:1050B000040A0804000000000000000000000000D6
:1050C00000000000000000000000000000000000E0
:1050D00000000000000000000000000000000000D0
:1050E000000A080A0A05050A06060A0A09070A0745
:1050F00000000000000000000000000000000000B0
:10510000000000000000000000000000000000009F
:1051100000000000000000000000060000090A0373
:10512000020A07060804050A080504090000000031
:10513000000000000000000000000000000000006F
:10514000000000000000000000000000000000005F
:10515000000000000006050000090A03020A070615
:105160000804050A0805040900000000000000000A
:10517000000000000000000000000000000000002F
:10518000000000000000000000000000000000001F
:1051900000060006000506080905060A08050A07B4
:1051A000070A0609000000000000000000000000DF
:1051B00000000000000000000000000000000000EF
:1051C00000000000000000000000000000000505D5
:1051D00000040806080A060A070A030A050A080A5C
:1051E00000000000000000000000000000000000BF
:1051F00000000000000000000000000000000000AF
:10520000000000000000000000000603000708097D
:105210000504060A08050208070A0609000000003E
:10522000000000000000000000000000000000007E
:10523000000000000000000000000000000000006E
:10524000000000000003060000050A060302060A2B
:105250000704020A040A080400000000000000001D
:10526000000000000000000000000000000000003E
:10527000000000000000000000000000000000002E
:105280000000000000040607040007060A020108E7
:105290000A050802000000000000000001020304EB
:1052A000060708090000000001020304CC520008B0
:1052B0000000002070000000722600083C53000827
:1052C00070000020F809000082260008000000009D
:1052D00000000000000000000000000000000000CE
:1052E000000000000000000000000000000042304C
:1052F0003035300A42303035310A42303035320AEA
:1053000042303035330A42303035340A423030359D
:10531000350A42303035360A000000000000000037
:10532000000000000000000000000000000000007D
:0C533000000000000000000000127A00E5
:04000005080000B13E
:00000001FF
