:020000040800F2
:1000000018080020C50000084D200008DF1900086E
:1000100000000000000000000000000000000000E0
:100020000000000000000000000000008121000826
:100030000000000000000000BD200008652200084C
:10004000D700000800000000D7000008D700000813
:10005000D7000008D7000008D7000008D700000824
:1000600000000000DD060008D7000008D7000008E7
:10007000D7000008D7000008D700000800000000E3
:10008000D70000080000000000000000D7000008B2
:1000900000000000D7000008D7000008D7000008C3
:1000A00000000000D700000800000000B126000892
:1000B0000348854600F050F8004800479D27000897
:1000C000180800200448804704480047FEE7FEE780
:1000D000FEE7FEE7FEE7FEE74D230008B10000085B
:1000E00030B50B46014600202022012409E00D46D0
:1000F000D5409D4205D31D469540491B2546954058
:1001000040191546521E002DF1DC30BD70B500249B
:100110002546002801DA01244042002901DA0125A0
:100120004942FFF7DDFFAC4200D04042002C00D036
:10013000494270BDD2B201E00270401C491EFBD2A0
:1001400070470022F6E710B513460A4604461946E2
:10015000FFF7F0FF204610BD064C0125064E05E0D6
:10016000E36807CC2B430C3C98471034B442F7D3D8
:10017000FFF7A2FF304500085045000870B504465F
:1001800000688168490720D5816810264907002941
:1001900005DA8168890702D481683143816000F003
:1001A00009FF05460DE000F005FF401B022808D9B5
:1001B000606C30436064A06C01210843A064084671
:1001C00070BD206880684007EDD4002070BD10B578
:1001D0000146406A426C50231A420AD1416C012206
:1001E0005202114341640168CA681205920F05D09A
:1001F00020E0C06B026B0846904710BD026A002ADF
:1002000018D10A68120715D58A6853070122002BF6
:1002100009DB4B680C24A3434B60416C13029943E8
:100220001143416406E0416C202319434164816C11
:100230001143816400F094FB10BD10B5406A416C1D
:10024000402211434164816C04221143816400F017
:1002500089FB10BD10B5406A00F083FB10BDF8B5F6
:100260000446006881688907890F012928D101683F
:10027000C90702D1C168090422D58168052211404D
:100280001025012601290FD18168022211438160C6
:1002900021680320086000F08DFE07460CE000F0A6
:1002A00089FEC01B022807D9606C28436064A06CDB
:1002B0003043A0640120F8BD20688068C007EED1FB
:1002C0000020F8BDF8B50446002000902068816841
:1002D0008907890F012905D10168C9072CD1C16897
:1002E000090429D48168154A1026114001250029E6
:1002F00015D1816829438160124811490068FFF7D0
:10030000EFFE00E0401E00900028FBD100F052FEFE
:1003100007460CE000F04EFEC01B022807D9606CB7
:1003200030436064A06C2843A0640120F8BD2068BD
:100330000068C043C007EDD10020F8BD1700008061
:1003400040420F0060000020FEB57D4C2078002860
:1003500077D0002525707B4800F05AFC002803D098
:10036000302179A002F0E0F97B4A002016461436CD
:100370004100401C535AC0B273520A28F8D30A22D3
:100380007549704800F0F4FB002803D036216EA0B8
:1003900002F0CAF900277800315A6F48283000F07F
:1003A000DDF87F1CFFB20A2FF5D36B4E283630469E
:1003B00071881C3000F0D2F837461C3730467988F7
:1003C000383000F0CBF83046383041881C3000F02F
:1003D000C5F83046543041881C3000F0BFF8304634
:1003E000703041881C3000F0B9F830468C304188BC
:1003F0001C3000F0B3F83046A83041881C3000F0C3
:10040000ADF836880A2E00D9E580002E06D1E088A6
:100410007D210901884201D2401CE0804E48EC3029
:1004200081880091019105210098FFF759FE0099FC
:10043000494A40182832B04204D20198301AA080AC
:1004400001E07CE0A5804448EC3041881C30322932
:100450000AD24188491C89B24180C82902D345800B
:100460000121817285800BE096290BD28188491C7D
:1004700089B28180C82902D385800221817245809A
:10048000C5800AE0C188491C89B2C180C82902D34D
:10049000C5800321817245808580807A01280ED035
:1004A0000228A08816D014214843A0802A48603032
:1004B0004088864209D9B878301A000114E0A08833
:1004C00023214843A0805088F3E76078002811D0AA
:1004D000401E09E01E214843A08050888642F4D97E
:1004E000B8780C21301A48436070C0B20C2801D390
:1004F0000C206070A0884008A0802189814201D230
:10050000491C218189B2814201D2491C218189B2D1
:10051000814201D9491E218188B2FF2801D3FF20E1
:100520002081E078401CC0B2E070062807D3E57057
:10053000A078401CC0B2A0700C2800D3A570FEBDEE
:1005400016000020140300202E2E5C4170705C68A1
:100550005F6164632E630000BE00002070B500225E
:1005600004462280531EA380E38810465B001B19BB
:100570001981E188491C89B2E1800A2900D3E08011
:100580000020410009190B892588AB4200D923803E
:100590000B89A588AB4200D2A3800989401C8A1828
:1005A000C0B20A28EDD30A211046FFF799FD6080FA
:1005B00070BD000070B514480178491CC9B20170C3
:1005C000827891421ED3002101704278521CD2B22F
:1005D0004270182A00D3417040783C2250430B4AA5
:1005E00000210B4B84188A008D1800206219ED1829
:1005F000165C2E54401CC0B20528F9D3491CC9B260
:100600000C29F0D370BD000042000020EC28000847
:100610000E02002010B500F001F810BDF8B52B480F
:100620000024C17805782A4E10E0294B0A211E3398
:100630009F5C8378F7545B1C8370254B1E339C545E
:10064000521CD2B242701E2A00D3447042789542A6
:10065000EBD1C170002936D0491E0906090EC170C0
:1006600011D132783146422A08D14A78302A05D150
:100670008A78302A02D1CA78352A05D084701E21A2
:100680001348FFF75EFDF8BD317912480225302985
:1006900008D0312913D0322913D03329F3D10321C3
:1006A0000170F8BD047009200121C00600F076FC3D
:1006B0000949012801D00C70F8BD0D70F8BD012169
:1006C000EEE70570F8BD8470F8BD00001100002051
:1006D000640000200D0000200C00002010B503482D
:1006E00000F008FB02490120087010BDD003002073
:1006F0001600002010B50446006805494018142172
:10070000FFF7EEFC800020640248E06310BD0000AB
:10071000F8FFFDBF0000024030B5056C0124AC407D
:10072000C56B6C60046863604368102B036803D07A
:1007300099600068C26030BD9A600068C16030BDD9
:1007400001E0401EC0B20028FBD1704710B50C4834
:100750000078002806D0012807D0022808D00328F6
:1007600009D00AE001F096FC07E001F04BFD04E03F
:10077000FFF720FF01E001F0CBFB01F0F5FA10BD1F
:100780000D00002010B500241021044800F006FCE4
:10079000002800D10224204610BD000000040048BB
:1007A000F8B505460446403528780026012808D0CB
:1007B00001202870206881688907890F012908D1E4
:1007C00001E00220F8BD0168C90738D1C1680904F9
:1007D00035D4616CFF2201329143022211436164DE
:1007E000C1688907890F0091C16889088900C160C3
:1007F0002068816892071143816000F0DBFB0746A7
:100800000EE000F0D7FBC01B022809D9606C022162
:100810008843102108436064002028700120F8BD3F
:10082000206880680028ECDB2068C168009A1143CA
:10083000C160606C80088000401C606404E0606CF3
:100840002021084360640126002028703046F8BD4E
:10085000F8B500250446403400952278012A39D0A5
:100860000122227003689E68760767D4384F4E686D
:10087000BE424DD09E6A0F78BA4016439E62012355
:10088000826B1B079A421FD0012A1DD0022A1BD05F
:10089000032A19D0042A17D0052A15D0062A13D006
:1008A000072A11D002688B6856697607760FB34223
:1008B0000AD05369DB08DB005361006842690B7A98
:1008C0005B075B0F1A4342610A68102A04D0112AA1
:1008D00002D038E00220F8BD1E488368102A07D0F5
:1008E00001229205134383600868102803D02AE090
:1008F0000122D205F6E7194817490068FFF7F0FB17
:100900000A21484300E0401E00900028FBD11AE075
:10091000986A0E78B240904398620968102901D015
:10092000112910D10B488268102904D001218905B2
:100930008A43826007E00121C905F9E7416C202262
:10094000114341640125002020702846F8BD0000B5
:10095000011000000027014040420F00600000200D
:100960007047704770470000F8B50025044600281E
:1009700003D0606C002802D008E00120F8BD002000
:10098000A06440210855204600F0A8F8606C1022B1
:10099000C006002870DB2068816849076CD4616C50
:1009A0001301994302231943616481688907890F00
:1009B000012905D10168C9070FD1C16809040CD408
:1009C000C16818239943A3681943C160206801696D
:1009D000636889008908194301612068C1683D4B3B
:1009E0001940C160A069E1698003C9030843216A15
:1009F0004B031843636B012B02D001231B0300E060
:100A000000231843E36818432369022B09D000230D
:100A10001843236B666A5B0018430123012E02D042
:100A20000AE00423F4E7002927D0616C2026314333
:100A30006164A16C1943A164A16A0E46FF3EC23EE7
:100A400002D0E66A314308432168CE680643CE608F
:100A50000126A16B3607B14213D0012911D002291A
:100A60000FD003290DD004290BD0052909D0062960
:100A700007D0072905D010E028E001210904084328
:100A8000DAE721684E69F608F6004E6121684E6982
:100A9000278F7F077F0F3E434E612168C9680E4E46
:100AA0003140814207D10020A064606C8008800042
:100AB000401C606408E0606C02218843104360645D
:100AC000A06C1843A06401252846F8BD606C104353
:100AD0006064F8E71902FEFFE7FF3F8370B5064642
:100AE0000068184986B088422AD1174882694115A2
:100AF0000A43826180690025084005900220009029
:100B000003200190092069460295C00600F0A2F971
:100B10000E480F4C21C48020256060604000A0601A
:100B2000256180006561E0600948083C00F030F90B
:100B3000002803D0682107A001F0F6FDF463666287
:100B400006B070BD002401400010024008000240C1
:100B5000D00300202E2E2F5372632F73746D333207
:100B6000663078785F68616C5F6D73702E6300002B
:100B7000F7B5044600680025806840073DD4264646
:100B80004036307801280AD001273770E069012803
:100B900007D02046FFF796FB050002D02EE002208A
:100BA000FEBD606C16490840FF21013108436064B6
:100BB0000020A0643070E16B12488862E16B12483B
:100BC000C862E16B1148086321681C200860206836
:100BD00041681022114341602068C1683943C160F7
:100BE0002168E06B4031029B019A00F0FDF820681B
:100BF000816804221143816000E002252846FEBD81
:100C0000FEF1FFFFCF010008550200083B0200087B
:100C1000F8B50646044640363078012807D001274B
:100C200037702046FFF7AAFA050002D024E0022020
:100C3000F8BD2068C16849084900C160E06B00F058
:100C40001FF8050003D0606C4021084360642068F1
:100C50004168102291434160002D204602D0FFF7E9
:100C6000FEFA09E0FFF7FBFA050005D1606CFF21F1
:100C70000131884338436064002030702846F8BD55
:100C800001680A680E239A430A6001680A685208DC
:100C900052000A600121036C0A469A40C36B5A60F5
:100CA00020304170002101700846704770B5002463
:100CB000014620314A78022A03D0042181630124AD
:100CC00016E0026813680E25AB43136002681368D0
:100CD0005B085B0013600122056C1346AB40C56BDB
:100CE0006B604A7000220A70416B002900D088476F
:100CF000204670BDF0B4C16B0D6801680C68042219
:100D0000066C1346B3402B420DD063070BD50B681E
:100D10009B0602D40B6893430B60016C8A40C16B45
:100D20004A60C16A19E00227B74002462F400123FA
:100D30002032002F15D0A70713D50C68A40604D4C1
:100D40000C680A25AC430C605370036C0221994077
:100D5000C36B596000211170816A002916D0F0BC64
:100D600008470827B7402F4210D024070ED50C683B
:100D70000E25AC430C60046C1946A140C46B616045
:100D80008363537000211170016BE6E7F0BC70477C
:100D900070B5040024D00220214620310D46487051
:100DA000226811680F48A3680140606826691843EB
:100DB000E3683343184363691843A3691843E3693D
:100DC0001843084310602046FFF794FC0020A062FF
:100DD000E06220636063A06301216970287070BDC8
:100DE000012070BD0FC0FFFFF8B504468C462030CF
:100DF00001780025012909D00126067041780027D5
:100E0000012905D0077002252846F8BD0220F8BD4B
:100E100002214170A7632068016849084900016008
:100E200061462046FFF778FCE06A002820680168E8
:100E300002D00E22114306E00A221143016020680D
:100E40000168042291430160206801683143016018
:100E5000DAE70000F8B500238DE001249C40A446A9
:100E600022407DD04C68022C01D0122C0CD1DC0821
:100E7000A40027183C6A5D07ED0E0F26AE40B44370
:100E80000E69AE4026433E6205685E000324B4400E
:100E90000F79A543BF07BF0FB7402F4307604D68C9
:100EA000012D05D0022D03D0112D01D0122D0ED110
:100EB0008568CF68A543B7402F438760476865467C
:100EC000AF430D79ED06ED0F9D403D434560C5688C
:100ED000A5438C68B4402C43C4604C68E40049D5F9
:100EE000284CA56901263543A561A4699D083440B5
:100EF0000094254CAD002F19BC689D072E0F0F25BF
:100F0000B540AC430925ED06A84201D100250FE00C
:100F10001E4DA84201D101250AE01D4DA84201D174
:100F2000022505E01B4DA84201D1032500E005255F
:100F3000B5402543BD60184C25684E689543F603BF
:100F400000D51543256065684E689543B60300D506
:100F500015436560A5684E689543F60202D500E02A
:100F600008E01543A560E5684E689543B60200D5D4
:100F70001543E5605B1C0A681446DC4000D06CE752
:100F8000F8BD0000001002400000014000040048CD
:100F900000080048000C00480004014000690840B7
:100FA00000D001207047002A01D081617047816222
:100FB00070470000014800687047000000000020F2
:100FC00002480168491C01607047000000000020D1
:100FD00010B506480168102211430160002000F09E
:100FE00007F800F017F8002010BD000000200240B4
:100FF00010B5044600F042F97D21C900FFF770F8F2
:1010000000F046FB00222146501E00F029F8002087
:1010100010BD000008B50C488169012211438161AF
:1010200080691040002200901146501F00F018F80F
:1010300000221146901E00F013F800221146501EA7
:1010400000F00EF808BD000000100240C106C90EF5
:1010500001208840014908607047000000E100E07D
:1010600010B500F0F5FF10BDF8B505460068354C29
:10107000C00352D5E0690026C00007D4E16920040E
:101080000143E161E1690140012600912E480168B8
:10109000C90510D40168821511430160FFF78AFF6A
:1010A000074604E0FFF786FFC01B642824D82648C3
:1010B0000068C005F6D5206A03273F02384020D0DB
:1010C0006968394081421CD0206A226AB8430121F4
:1010D00009040A432262226A8A4322622062C0070C
:1010E0000FD0FFF767FF009008E0FFF763FF00995C
:1010F000411A1648814201D90320F8BD206A8007B1
:10110000F3D5206A6968B84308432062002E04D0F2
:10111000E169012000078143E1612878C00705D01B
:10112000206BA96880088000084320632878800627
:1011300005D5206B10218843E9680843206300200F
:10114000F8BD00000010024000700040881300004D
:10115000F8B5054644480E460068C007C00FB042C7
:101160000AD24148016849084900314301600068DA
:10117000C007C00FB0425CD128783C4C800705D531
:101180006068F0218843A968084360602878C00738
:101190003FD06868012813D02168022813D089073E
:1011A000002946DA61688908890001436160FFF718
:1011B00001FF6968074601290DD0022917D024E0F4
:1011C00021688903ECE78901EAE7FFF7F3FEC11B19
:1011D0002748814217D860680007800F0128F4D1A2
:1011E00017E0FFF7E7FEC11B214881420BD860687A
:1011F0000007800F0228F4D10BE0FFF7DBFEC11BD4
:101200001B48814201D90320F8BD60680007800FA8
:10121000F3D115480168C907C90FB1420BD901685C
:1012200049084900314301600068C007C00FB0425F
:1012300001D00120F8BD2878400706D56068072155
:1012400009028843E9680843606000F02DF861688E
:10125000084A0906090F515CC84007490860002088
:10126000FFF7C6FE0020F8BD00200240001002403B
:10127000881300001845000860000020014800683D
:101280007047000060000020044805490068496874
:10129000044A4905490F515CC8407047600000206E
:1012A000001002402845000810B512A30FCB88B0EB
:1012B0006C460FC413A30FCB0FC416494A680C2009
:1012C000134603401448042B0FD0082B0DD1930272
:1012D0001B0F6C46E45CC96A04AB0907090F595C33
:1012E000D20304D5FEF7FCFE604308B010BD0B48E6
:1012F0006043FAE702030405060708090A0B0C0D10
:101300000E0F10100102030405060708090A0B0C52
:101310000D0E0F100010024000127A0000093D006F
:10132000FEB504460078D04DC00747D06868000776
:10133000800F012807D068680007800F022809D1B4
:101340006868C00306D52868800337D56068002820
:101350007ED033E0012062680004012A11D08100B0
:10136000002A01D0052A10D02A6882432A60286802
:10137000884328606068002814D0FFF71BFE0646EB
:101380000CE0296801432960F4E72A680A432A60CF
:10139000F7E7FFF70FFE801B64286FD828688003EB
:1013A000F7D50BE0FFF706FE064604E0FFF702FE66
:1013B000801B6428F1D828688003F7D420780126A0
:1013C000800700283BDA68680007800F07D068684C
:1013D0000007800F022809D16868C00306D4286876
:1013E000800715D5E068012832D111E0E0680028B7
:1013F000286815D030432860FFF7DCFD074604E07D
:10140000FFF7D8FDC01B0228C7D828688007F7D58A
:101410002868F82188432169C900084328600EE044
:10142000400840002860FFF7C5FD074604E0FFF7CD
:10143000C1FDC01B0228B0D828688007F7D42078E7
:10144000000724D5E0690028686A10D0304300E026
:1014500008E16862FFF7AEFD074604E0FFF7AAFD6A
:10146000C01B022899D8686A8007F7D50FE04008AA
:1014700040006862FFF79EFD074605E09DE0FFF72C
:1014800099FDC01B022888D8686A8007F7D42078A5
:1014900004274007002860DA00200190E869C000B6
:1014A00008D4E969B8060143E961E969014001200E
:1014B000009101906D480168C90511D40168821539
:1014C00011430160FFF776FD009005E0FFF772FD24
:1014D0000099401A642870D864480068C005F5D5A2
:1014E000A06801280AD0002801D0052810D0286A59
:1014F000400840002862286AB84301E0286A304367
:101500002862A068002812D0FFF754FD00900AE07E
:10151000286A38432862F1E7FFF74CFD0099411A29
:101520005348814249D8286A8007F5D50DE0FFF776
:1015300041FD009006E0FFF73DFD0099411A4C483F
:1015400081423AD8286A8007F5D40198002804D04F
:10155000E969012000078143E9612078C00635D59B
:10156000606901280CD0401D686B23D03843686344
:10157000686B400840006863FFF71CFD064622E0E8
:10158000686B38436863686B30436863FFF712FD2C
:10159000064604E0FFF70EFD801B02285BD8686B4F
:1015A0008007F7D5686BF8218843A169C900084313
:1015B00068630BE0B8436863F4E74CE0FFF7FAFCBC
:1015C000801B022847D8686B8007F7D4206A002860
:1015D00046D069680907890F022943D001263606DB
:1015E0000228286805D0B0432860FFF7E3FC0446D2
:1015F00033E0B0432860FFF7DDFC074604E0FFF767
:10160000D9FCC01B022826D828688001F7D4E86AD4
:10161000E16A000900010843E862616AA06A0843C0
:1016200069683D221204914308436860286830438A
:101630002860FFF7BFFC044604E0FFF7BBFC001B7B
:10164000022808D828688001F7D509E0FFF7B2FC26
:10165000001B022801D90320FEBD28688001F5D4B3
:101660000020FEBD0120FEBD0010024000700040C1
:1016700088130000042204490428086902D090431A
:10168000086170471043FBE700E000E0704700008E
:10169000094910B5401E884201D9012010BD074CF0
:1016A00060610321081F00F0D3FC0020A061072027
:1016B0002061002010BD0000FFFFFF0000E000E0FF
:1016C00010B5FFF7E3FF10BD70B504466030054666
:1016D000407A21280FD12068816809060BD58168DE
:1016E000802291438160206E002801D0FFF7C8FA64
:1016F000204600F0EDFEA87A22280FD120688168EC
:1017000049060BD58168402291438160606E0028B4
:1017100001D0FFF7B5FA204600F0BEFE002070BDF4
:1017200070470000F8B503680446D96918680D07CA
:101730002D0F07D18A0605D5820603D5204600F075
:10174000D0FEF8BD9A68002D64D0D507ED0FFF26B6
:10175000213606402E435DD0CE0706D0C60504D5FF
:1017600001261E62E36E3343E3668F0702230426DD
:10177000002F06DAD70704D027683B62E76E3743AD
:10178000E7664F0706D5D20704D022681662E26EDC
:101790001A43E2660A0709D5202202402A4305D0EF
:1017A000236808221A62E36E1343E366E26E002A9E
:1017B000C7D0890604D5800602D5204600F091FEE8
:1017C000E06E000703D42068806840061CD52046E0
:1017D00000F062FE20688168490611D581684022C8
:1017E00091438160606E00280AD012494163606EA7
:1017F000FFF75CFA0028A4D0606E416B8847F8BD03
:101800002046FFF78DFFF8BD2046FFF789FF002037
:10181000E066F8BD0A0605D5020603D5204600F0AD
:1018200013FFF8BD4906FCD54006FAD5204600F066
:1018300042FEF8BD8524000870B5040005D0254699
:101840006035687A002802D006E0012070BD0020D3
:101850002872204600F026F824206872206801686B
:10186000490849000160204600F064FE0128EDD0DF
:10187000606A002802D0204600F096FD206841688A
:101880000122D2029143416020688168082291437D
:10189000816020680168012211430160204600F048
:1018A000E8FD70BD00B50068124987B088421FD1BD
:1018B00011488269012189030A43826180690840D5
:1018C00005900C200090022001900020029003203F
:1018D00003900120049009206946C006FFF7BAFA78
:1018E000002211461B20FFF7BBFB1B20FFF7AEFBBE
:1018F00007B000BD003801400010024070B503463B
:1019000060339C7A202C39D100290BD0002A09D0D1
:10191000012584682D03AC4206D10669002E03D14F
:10192000CE0701D0012070BD1E7A012E26D00126DF
:101930001E724165014640310A834A83FF22AC4250
:1019400004D10469002C07D10D4A05E0002C04D114
:101950000469002C00D07F228A830021C1662222E4
:101960009A72197201688A6832438A600068016855
:10197000FF22213211430160002070BD022070BDA2
:10198000FF01000030B5034660335C7A202C23D180
:1019900000290BD0002A09D0012584682D03AC4210
:1019A00006D10469002C03D1CC0701D0012030BD41
:1019B0001C7A012C10D0C164014640310A824A824F
:1019C0000021C16621225A721972006801688022C2
:1019D00011430160002030BD022030BD7047FEE79A
:1019E0000920C00601680322920291430160016848
:1019F0000122920211430160016803221203914304
:101A00000160016801221203114301600168032291
:101A10009203914301600168012292031143016026
:101A2000016803221204914301600168012212043B
:101A30001143016020218161402181618021816108
:101A40004900816101490120886170470004004814
:101A5000F0B50921002220264027C906104D034673
:101A60000124180606D58E618F61802088614000B0
:101A7000886105E08E628F62802088624000886203
:101A80000020FEF75DFEAC610020FEF759FE58060F
:101A9000030EAC62521CD2B2082AE2D3F0BD0000A1
:101AA00000040048F0B5184A09211318184A002408
:101AB00012188027C9060125144E203A203BD07FFA
:101AC000000603D58F612020886102E08F6220200C
:101AD0008862D87F00060F4803D58861402088615E
:101AE00002E08862402088620020FEF729FEB5618E
:101AF000D07F4000D077D87F4000D877B562641C93
:101B0000E4B2082CDBD3F0BD6E02002000040048D4
:101B10004A0200200001000000B5FFF761FF20210C
:101B20000920C006816240218162802181624900D2
:101B300081620020FEF704FE01490120886200BD99
:101B40000004004870B520220921C9068A6240239A
:101B50008B6280248C62D5008D620020FEF7F0FD40
:101B6000054E0120B0610020FEF7EAFD8A618B611D
:101B70008C618D6170BD00000004004800B504490F
:101B800001228A610020FEF7DBFD8A62002000BD91
:101B900000040048F8B53C4C0025A0783B4E0028D6
:101BA00050D03B4801270178002900D107702179E6
:101BB0000322422902D0C22944D13BE034480178B3
:101BC00032480229007803D0314A01291AD01DE099
:101BD00000282DD001280DD002280ED00920357004
:101BE0000121C006FFF7DAF9002808D028490220B1
:101BF00008700BE00220307008E0327006E02448E4
:101C0000057003E0002813D03570157021484B2172
:101C100007702289C9008A4218D105702581307861
:101C20000621484318490A31401800F049FD09E0EF
:101C30003770EBE7E079322804D2174801780129A0
:101C400018D0077013480078002815D02089401C50
:101C500081B24B20C000218181420AD90D48062162
:101C6000057025813078484307490A31401800F053
:101C700027FDF8BD0270E5E720894B21C9008842A5
:101C8000F7D2401C2081F8BD200000200D0000206C
:101C90000C000020100000200A00002070B52E4922
:101CA00000228A700B78834201D0087070BD2A4CE4
:101CB0004878E67865790124834230D10028F5D050
:101CC0008A79002AF2D0521E1206120E8A71EDD1C4
:101CD0000871002E00D18C70002D12D01422012D1D
:101CE00016D0022D01D0032DE0D103234B718023A8
:101CF000184308718A71C879FA28D7D2401CC87174
:101D000070BD20224C71104308713220887170BD63
:101D100002234B716023184308718A7170BD00283B
:101D200013D00871002E00D18C70012D08D00A4804
:101D3000C02440782043022D04D0032D03D101E0BC
:101D40004024204308714A7101E0CA70CA7105201D
:101D500088714B7070BD00002000002010B5FEF7A8
:101D600011FDFFF79BFF10BDF0B50E4C0E4D00218D
:101D70000E4A8B00CB189E180D4A00209B18325C2F
:101D80001F5C242A01D2A75402E0AA18403A177710
:101D9000401CC0B20528F2D3491CC9B20C29E7D3B4
:101DA000F0BD00004A0200206E020020B0280008AA
:101DB0000E0200203EB51C481A49016049054160E9
:101DC00000218160C160012481610461C161082238
:101DD000046242614162FF22C162C23201638262D7
:101DE0004163FEF7C1FD002800D0FEE7012000039B
:101DF000019007200290009469460B48FEF728FDE9
:101E0000002800D0FEE70848FEF7CAFC002800D0F2
:101E1000FEE70A2205490448FEF7AAFE002800D082
:101E2000FEE73EBD0024014014030020BE00002058
:101E3000F0B5254887B04269012149040A4342614F
:101E400042690A400592426949000A434261406979
:101E50001E4D08400926F606059000222946304608
:101E6000FFF7A1F81A4F002203213846FFF79BF82D
:101E70001120002400900194694602943046FEF738
:101E8000E9FF0095012502946946304601950394C7
:101E9000FEF7E0FF03200090029469460195039449
:101EA0003846FEF7D7FF0820009001946946029457
:101EB0003846FEF7CFFF10206A4631C269463846E1
:101EC000FEF7C8FF07B0F0BD00100240E09F000021
:101ED0000004004810B50D480B4901604B21C901B1
:101EE000416000218160C160016181610C22C1619A
:101EF000426101621021416209028163FFF79CFC8B
:101F0000002800D0FEE710BD00380140600300202B
:101F1000F8B5062000F092FC47480122825605469B
:101F2000541C0021103D454B002C0CD0EC79641C56
:101F3000E4B2EC71AE79B44232D3E9714456A242B4
:101F40002FDD052032E000220A2400205443E4184B
:101F50002154401CC0B20A28FAD3521CD2B2062A1D
:101F6000F2D3287900220446354E9F18365C20377C
:101F7000401CC0B2BE740C2800D30020521CD2B248
:101F80000A2AF1D36879401CC0B26871322806D39E
:101F9000641CE0B2697128710C2800D32971297280
:101FA000F8BDA24201D1142000E01E20A871287AB9
:101FB000002828781FD0401CC0B22870182802D3EF
:101FC00029700020287229783C2251431D4A0020A4
:101FD0008C180A224243D518820000218218A218C8
:101FE000565C6E54491CC9B20A29F9D3401CC0B2D0
:101FF0000628EED3F8BD401CC0B22870602802D37A
:1020000029700120287229780F4A3C24002061435E
:102010008C1882008218A5180A2200214243D21887
:102020006E5C5654491CC9B20A29F9D3401CC0B28F
:102030000628EED3F8BD000058000020D201002091
:102040000C450008EC2800088C2E000870470000A2
:102050008307FF22DB0E9A408907090E994000286A
:102060000BDA0007000F0838830808489B0018188F
:10207000C36993430B43C3617047830804489B00C3
:102080001B181868904308431860704700ED00E083
:1020900000E400E010B50021074C0A468B00002048
:1020A000CB181B191A54401CC0B20528FAD3491C7E
:1020B000C9B20C29F2D310BD0E02002070470000F7
:1020C00010B501220920D103C006FEF76CFF0748B6
:1020D000022181710721C171002141720121017228
:1020E0001E2203490348FFF709FC10BD040000202D
:1020F000820000206003002010B500F007F80248BD
:1021000000F01CF810BD00009202002000200949D8
:1021100002460A54401CC0B24B28FAD3064A262075
:1021200012780A54401CC0B24A28FAD30120087021
:1021300070470000920200200B00002070B5054699
:10214000FFF7EAFC7820FFF783FCFFF717FD00207C
:10215000FFF77EFCFFF712FD0024601E242803D247
:102160002046FFF79FFC02E0285DFFF771FCFFF7B8
:1021700005FD641CE4B24B2CEFD3FFF7E3FC70BD0C
:1021800070470000F8B50926F60601213046FEF733
:1021900005FF1A4C0025217888420FD001213046D6
:1021A000FEF7FCFE207001213046FEF7F7FE002806
:1021B00002D00220207201E02572657210211048C1
:1021C000FEF7ECFE0127FF03002808D0012130466E
:1021D000FEF7E4FE002802D1207A002807D0012271
:1021E00039463046FEF7DFFE207A002805D16572B9
:1021F000002239463046FEF7D6FEF8BD0400002026
:102200000004004870B514480178491CC9B2017037
:102210008278914208D3002101704278521CD2B2D8
:102220004270602A00D3417040783C2250430B4AF0
:1022300000210B4D84188A008A180020A318521917
:102240001E5C1654401CC0B20528F9D3491CC9B203
:102250000C29F0D370BD0000450000208C2E000832
:102260000E02002010B5FEF7ABFEFFF729FA114968
:102270000120114A08701178491CC9B211700A294D
:1022800002D3002111700CE000290AD001290AD0E4
:1022900002290AD003290AD0052901D1074908706B
:1022A00010BD0749FBE70749F9E70749F7E7074981
:1022B000F5E70000050000200E0000200F000020C0
:1022C0000600002007000020080000200900002070
:1022D00070B594B00125122005950090102004904F
:1022E000069005200024C004039502260A90089653
:1022F00009940B946846FFF713F8002800D0FEE716
:1023000007200C900E9401210D960F940CA8FEF757
:102310001FFF002800D0FEE710A810951294FEF7CA
:10232000A3FE002800D0FEE7FEF7A8FF7D21C9002C
:10233000FDF7D6FEFFF7ACF90420FFF79BF900226A
:102340001146501EFEF78CFE14B070BD1348016894
:102350000122114301604168114A11404160016846
:10236000104A11400160016801229204914301600A
:1023700041683F22120491434160C16A0909090181
:10238000C162016BFF22143291430163416B490822
:102390004900416300218160704700000010024045
:1023A0000CB8FF08FFFFF6FE10B5818CC90707D0F7
:1023B00001684A6801235B049A43836A1A434A60AE
:1023C000818C890707D501684A6801231B049A4359
:1023D000C36A1A434A60818C490707D501684A6875
:1023E00001239B049A43036B1A434A60818C0907BB
:1023F00007D501684A680123DB039A43436B1A43FC
:102400004A60818CC90607D50268916801231B03C5
:102410009943836B19439160818C890607D50168C4
:102420008A6801235B039A43C36B1A438A60818CD9
:10243000490612D503685A6801210905046C8A43CC
:1024400022435A60026C8A4207D102685168032312
:102450005B059943436C19435160818C090607D58C
:1024600001684A680123DB04806C9A4302434A6096
:1024700010BD0021C166202260304272827201725A
:102480000846704710B5406A0022014640314A8331
:102490004A82FFF745F910BD01680A68FF2321331E
:1024A0009A430A6001688A68520852008A602021B3
:1024B00060308172704710B501680A6840239A4302
:1024C0000A60202269210A54FFF788FA002010BD13
:1024D00001680A68C0239A430A6020216030417273
:1024E000704710B504464030818B6A20005D222879
:1024F00009D0204600F000F92068816908221143C4
:102500008161022010BD2068828C0123A0681B031A
:10251000984202D12069002804D0204600F0ECF84F
:10252000002010BD606D0A400280606D801C6065F7
:10253000F6E70000F8B504462369A268E6691A4385
:10254000636910213343002026681A433368054627
:10255000394F3B401343336023685A6803263603E0
:10256000B243E66832435A60236AA26926681A4376
:10257000B3680B273F02BB431343B3602F4A126B70
:102580009207920F06D0012A08D0022A08D0032A07
:1025900007D101E0002104E0022102E0042100E073
:1025A00008210122E369D203934224D100290CD0EF
:1025B00002290DD0042913D0082917D001250109BB
:1025C00009010007400F084332E0FEF75DFE09E015
:1025D00061681B4A48088018FDF782FD80B2EEE76B
:1025E000FEF762FE616840004A08F4E76168012274
:1025F00048081204EFE7002908D0022909D004296D
:102600000BD008290ED001252846F8BDFEF73CFE68
:1026100005E061680B4A480806E0FEF745FE616880
:102620004A0801E0616848088018FDF759FD80B24A
:102630002168C860E8E70000F369FFFF001002406E
:102640000024F40000127A006921095C212901D0DC
:102650000220704702464032518A002912D00123DD
:1026600081681B03994202D10169002915D0C16C10
:102670004B1CC364006809780185508A401E508253
:102680000020704701680A6880239A430A60006846
:102690000168402211430160F2E7C16C03680988B8
:1026A000C905C90D1985C16C891CC164E5E7000025
:1026B00010B50248FFF736F810BD00006003002097
:1026C00070B5054600240A48FEF7FEFF094903E0FD
:1026D0000855641CE4B26D1C28780A2801D0002833
:1026E000F6D1224603490248FFF74CF970BD0000BD
:1026F00060030020A00000205C21095C0068828C3F
:1027000008480A40064B01785A54491CC9B2017066
:102710001E2901D3002101700A21C17000207047D9
:102720008200002011000020FEE702E008C8121F0E
:1027300008C1002AFAD170477047002001E001C1AA
:10274000121F002AFBD17047FFF7BAFC124D00247C
:102750006878002804D06C70FDF7F6FDFFF712FDD5
:10276000A878002804D0AC70FFF7F8FAFFF712FA47
:10277000E878002802D0EC70FDF74CFF287900289B
:1027800002D02C71FDF7E2FF68790028E0D06C716F
:10279000FFF7B2FCDCE700000400002008B5FEF7FC
:1027A00017FCFFF795FDFFF743FB0B48416901223A
:1027B00011434161406910400022009011460920F8
:1027C000FEF74EFC0920FEF741FCFFF7F3FAFFF796
:1027D00081FBFFF7B9FFFEE70010024070B57E21D4
:1027E000144CC943217102467F2100206171124BB4
:1027F00001215E185D5C203E491CC9B2F5770A29AB
:10280000F7D35A726270002104255A566557AA42BE
:1028100000DD227105256557AA4200DA62711018A1
:10282000491CC9B200B20A29EED30A21FDF76EFC99
:10283000207070BD58000020F6020020F8B5054653
:10284000184846881848102E0BD24189FF222D3295
:10285000914202D90020C0431BE0491C4181002065
:1028600017E0002141816F1E012438467843009013
:1028700014E02046EF226043120150430099FDF717
:1028800045FC103080B262000849B042885203D340
:1028900060B2FFF7A3FFF8BD641CA4B2AC42E8D35A
:1028A00078B2F6E7E600002048000020E8020020A9
:1028B0003B2F23170B3A2E22160A392D21150938E2
:1028C0002C201408372B1F1307362A1E1206352911
:1028D0001D110534281C100433271B0F0332261A40
:1028E0000E023125190D013024180C0000000000E3
:1028F0000000000000000000000000000000500088
:102900000000500000005000000000000000000027
:1029100050000050000000505050500000000000D7
:102920000000005050000000500000500000000067
:102930000000500000500000000000005000005057
:1029400000000000000000000050000050000000E7
:1029500000000050505000000000000000005050E7
:1029600000005000000000000000000000500000C7
:102970000000000000500050005000000000500017
:102980000050500000000050000050000000000007
:102990000050000050000000505000500000500057
:1029A0000000000000000000000000000000000027
:1029B000000000001E00000000001E0000000000DB
:1029C0000000000000000000001E00000050009603
:1029D000969696000096965096000096000000008D
:1029E0000000000000000000000000005000000097
:1029F0000000000000005000000000000050000037
:102A00005000005000000000500000000000505036
:102A10005000505000505000005000500000000086
:102A20000000505000500000500000000000005016
:102A3000000050005000001E00000000001E50006A
:102A400050005000000000000000006E50000050D8
:102A5000006E500000000000000050005000000018
:102A60000000000000005000005000000000500076
:102A70005000000000000050000050000000000066
:102A800000500000505000000000505000000000B6
:102A90000000000000000000005000000050000096
:102AA0000000000000005000000050000000500036
:102AB0005000000000000000500050000000000026
:102AC00000505000000050500000000000000000C6
:102AD0000000500000000000000000005000000056
:102AE00050000000500000000000500000500000A6
:102AF0005000000000000000505050005000000046
:102B00000000005000000000000000000000000075
:102B10000000000000000000000000005000000065
:102B200000000000000050000000000050500000B5
:102B300050000000000050000000500000000000A5
:102B400050000000000000000000000000005000E5
:102B50005000000000000000500050000000000085
:102B60005000500000000000000000000000005075
:102B70000050000050000000000000500000000065
:102B80000000000000000000000000000000000045
:102B90000000500000500000005000505000005055
:102BA0000000005050000000000050000000505095
:102BB00050505050505050500050505000000000A5
:102BC0000000000000500000005000000000500015
:102BD0000000500000000050000000500000000005
:102BE00050000000500000000000000000500000F5
:102BF00000005050000000500000000000000000E5
:102C00005000000000500000000050000000500084
:102C10000000005000000050000000005000005074
:102C20005000000000000000005000000050005064
:102C300000000000005000000000000000500050A4
:102C40000000000050000050005000000000500044
:102C500000500000000000005000005050000050E4
:102C60000000000000005000005000000000005074
:102C70005000000000000000500050000050000014
:102C80000000000000000050000000000050500054
:102C90000050005050000050000000500000500054
:102CA0000000005000000000005050000000000034
:102CB00000000000000000000000000050000000C4
:102CC00000000000000000000000500000000000B4
:102CD0005000005000000000000000005050505014
:102CE00000005050500000000000005000000000A4
:102CF00000500000005000000000005000000000E4
:102D00000000500000000000500000000000000023
:102D100050000000000000005000500000505050D3
:102D20000000005000000000000000000000000053
:102D30000050000000005050000000000050000053
:102D40000050000000000050000050000000000093
:102D50005000000050000000500000500000000033
:102D60000000000000000000000000000000000063
:102D700000000000005000000000000000000050B3
:102D800000000050005000000000500000505000B3
:102D90000000500000000000500000000000000093
:102DA0000000500000000050000000000050000033
:102DB00000000000000000005000500050005000D3
:102DC00000005000500000505000500000500050D3
:102DD00000500000000000000000000000000000A3
:102DE0000000000000000000005000000000500043
:102DF00000000050000000500000000050000000E3
:102E000000000000000000005000500000500000D2
:102E10005000000000000000000000000000000062
:102E200000000000005000005050000000000000B2
:102E30000000000000000000000050000000000042
:102E40000000500000000000000000500050500042
:102E50000000000000000000000000000000000072
:102E60000050000000000000000000505000005022
:102E70000000000050005000500000000000000062
:102E80005000500000500000500000000000000002
:102E90000000000000000000000000000000000032
:102EA0000000000000000000000000000000000022
:102EB0000000000A005000000050501E00500A00A0
:102EC00000500A5050505050000000000000000018
:102ED00000000000000000000000000000000000F2
:102EE000000000000000000000000000000A000ACE
:102EF000005000000050001E00500A0000500A5010
:102F00005050505000000000000000000000000081
:102F100000000000000000000000000000000000B1
:102F200000000000000000000000000032325000ED
:102F30001E00320A5032500A1E321E50500A003211
:102F40000000000000000000000000000000000081
:102F50000000000000000000000000000000000071
:102F600000000000000000000050001E00500000A3
:102F70001E00005000500A505050505000000000F9
:102F80000000000000000000000000000000000041
:102F90000000000000000000000000000000001E13
:102FA000000000001E5000501E50000000000050A5
:102FB00000500A506E505000000000000000000059
:102FC0000000000000000000000000000000000001
:102FD00000000000000000000000000000000000F1
:102FE000323250001E00320A5032500A1E321E5039
:102FF000500A003200000000000000000000000045
:1030000000000000000000000000000000000000C0
:103010000000001E0000000A000A00000000000A74
:10302000000A00501E00505000506E506E5050006C
:103030000000000000000000000000000000000090
:103040000000000000000000000000000000001E62
:1030500000000000000000000000001E00500050B2
:103060001E000050005000506E50506E00000000D6
:103070000000000000000000000000000000000050
:103080000000000000000000000000000000001E22
:10309000001E00000000000A001E1E000A00001EA4
:1030A00000506E506E505000000000000000000004
:1030B0000000000000000000000000000000000010
:1030C0000000000000000000000000000000000000
:1030D000323250001E00320A5032500A1E321E5048
:1030E000500A003200000000000000000000000054
:1030F00000000000000000000000000000000000D0
:1031000000000000000000000000000000000000BF
:10311000001E1E1E0A001E0000506E50005050007F
:10312000000000000000000000000000000000009F
:10313000000000000000000000000000000000008F
:10314000000000003200000050500000001E001E71
:1031500000321E1E0000320000506E000000000011
:10316000000000000000000000000000000000005F
:10317000000000000000000000000000000000004F
:10318000000000000050000A001E001E0A006E1E13
:1031900000506E0000005000000000000000000021
:1031A000000000000000000000000000000000001F
:1031B000000000000000000000000000001E0000F1
:1031C000320000000000000000321E6E005032503D
:1031D000005050000000000000000000000000004F
:1031E00000000000000000000000000000000000DF
:1031F000000000000000000000000000003200009D
:10320000001E000000326E1E001E325000501E00D4
:1032100000000000000000000000000000000000AE
:10322000000000000000000000000000000000009E
:103230000000000000000000001E0000001E003220
:103240000000001E001E32006E501E000000000034
:10325000000000000000000000000000000000006E
:10326000000000000000000000000000000000005E
:103270000000000000000000000000000000001E30
:10328000001E32506E0A1E00000000000000000008
:10329000000000000000000000000000000000002E
:1032A000000000000000000000000000000000001E
:1032B000000A00000000003232326E1E001E005074
:1032C000000A1E00000000000000000000000000D6
:1032D00000000000000000000000000000000000EE
:1032E00000000000000000000000000000320000AC
:1032F00000000A000000001E321E00321E0A001EDE
:1033000000000000000000000000000000000000BD
:1033100000000000000000000000000000000000AD
:103320000000000000000000000032001E00320A11
:103330000000001E321E1E6E1E0A001E000000004D
:10334000000000000000000000000000000000007D
:10335000000000000000000000000000000000006D
:1033600000000000000032000A1E320A00001E1E8B
:10337000321E1E001E0A001E000000000000000099
:10338000000000000000000000000000000000003D
:10339000000000000000000000000A000000000023
:1033A00000003200001E320A00001E1E321E1E00E7
:1033B0001E0A001E000000000000000000000000C7
:1033C00000000000000000000000000000000000FD
:1033D000000000000000000000000000001E32009D
:1033E0000A00000A00001E1E321E1E001E0A001ED9
:1033F00000000000000000000000000000000000CD
:1034000000000000000000000000000000000000BC
:103410000000000000000000001E32000A00000052
:103420000000000032001E1E000A001E0000000006
:10343000000000000000000000000000000000008C
:1034400000000000000000000000000A0000000072
:10345000000000000000000000001E00000A000044
:1034600032001E1E000A001E0000000000000000C6
:10347000000000000000000000000000000000004C
:103480000000000000000000000000000A00000032
:10349000000000000000000000006E1E325050507E
:1034A000000A001E000000000000000000000000F4
:1034B000000000000000000000000000000000000C
:1034C00000000000000000000000000000000000FC
:1034D00000001E00000A0000005050501E0A501E3E
:1034E00000000000000000000000000000000000DC
:1034F00000000000000000000000000000000000CC
:1035000000000000000000000000000000001E009D
:10351000000A0000005050501E0A501E000000001B
:10352000000000000000000000000000000000009B
:10353000000000000000000000000000000000008B
:103540000000000000000000001E0050000000000D
:10355000505050501E0A0000000000000000000003
:10356000000000000000000000000000000000005B
:10357000000000000000000000000000001E00002D
:1035800000001E005000005000001E00505000506F
:103590001E0A006E00000000000000000000000095
:1035A000000000000000000000000000000000001B
:1035B00000000000000000000000000000001E00ED
:1035C0005000000000001E0050506E501E0A000007
:1035D00000000000000000000000000000000000EB
:1035E00000000000000000000000000000000000DB
:1035F000000000000000000050000000500000002B
:1036000000501E00505000501E0A00000000000034
:1036100000000000000000000000000000000000AA
:10362000000000000000000000000000000000009A
:10363000000000001E0000001E1E00001E1E1E00D6
:10364000505000501E0A0000000000000000000062
:10365000000000000000000000000000000000006A
:10366000000000000000000000000000000000005A
:103670001E000000001E00001E1E00000050005032
:103680001E0A000000000000000000000000000012
:10369000000000000000000000000000000000002A
:1036A000000000000000000000000000000000001A
:1036B000000000000000500000505050506E6E504E
:1036C00000000000000000000000000000000000FA
:1036D00000000000000000000000000000000000EA
:1036E0000000000000000000501E001E1E1E001EF4
:1036F0001E005000005050505000005000000000CC
:1037000000000000000000000000000000000000B9
:1037100000000000000000000000000000000000A9
:103720000000001E505050501E1E0050500050000F
:103730000000503250000050000000000000000067
:103740000000000000000000000000000000000079
:10375000000000000000001E001E1E1E001E001EB5
:1037600050505050000000505000500000005032A7
:1037700050000050000000000000000000000000A9
:103780000000000000000000001E00000000001EFD
:10379000000000320000001E0032001E5032505067
:1037A0001E003232500050000032503250000050A3
:1037B0000000000000000000000000000000000009
:1037C00000000000000000000000001E00000032A9
:1037D0000000001E0032001E503250501E003232D7
:1037E00050005000003250325000005000000000E5
:1037F00000000000000000000000000000000000C9
:103800000000000000000032000000321E00001E18
:103810000032321E503250501E00323250005000E2
:103820000032503250000050000000000000000044
:103830000000320000000000000000000000000056
:103840000000001E1E000032320000323232320010
:103850003200000000323200001E5032323250324C
:1038600050323250000000000000320000003232BE
:1038700000000000003200000032000000000032B2
:103880001E00000A0A000000320A0A00320000008E
:103890001E3232000000500A0A325032500A0A50DA
:1038A0000000000000000000000000000000000018
:1038B00000000000000000000000000000003200D6
:1038C0000000003232000000320000501E32320090
:1038D00000505000005050325000005000000000D6
:1038E00000000000000000000000000000000000D8
:1038F000000000000000000000000000001E1E008C
:103900000000001E320000501E32320000505000F5
:103910000050503250000050000000000000000035
:103920000000000000000000000000000000000097
:103930000000000000000000000000000000000087
:103940001E00001E1E0A1E00001E321E00505032B5
:10395000321E0050000000000000000000000000C7
:103960000000000000000000000000000000000057
:10397000000000000000320000000000320A0032A7
:10398000320A320A0A320A32320A0A320A32320A57
:103990000000000000000000000000000000000027
:1039A0000000000000000000000000000000000017
:1039B000000000001E3200001E32000A320A1E32D1
:1039C0000A0A0A0A320A0A320A0A320A0000000007
:1039D000000A0000000000000000003200000000AB
:1039E00032000000003200000000323200000032DD
:1039F0001E320A001E1E321E1E0A1E1E321E0A0023
:103A0000000A0A320A00000A00000000005000000C
:103A100000000000000000500A0000000A32000010
:103A2000000A0A3200000A003200000A0A00000000
:103A3000501E0032320A501E32005000000A0A00A6
:103A40005000000A000000000000000000000032EA
:103A50001E00001E0A321E0032001E00000032004E
:103A600000000A000000000000000032001E0032CA
:103A70003250001E003250003232005050000032EE
:103A8000000000000000000A0A00001E1E1E001EAA
:103A9000001E1E00320000000000000000000000B8
:103AA000000000000000001E0000001E1E5000006C
:103AB000001E5050321E00505050501E000000009A
:103AC0000000003232000000320000000000000060
:103AD00000000000000000000000000000000A0AD2
:103AE0000000000A0050501E1E1E0050001E500014
:103AF000001E00505000501E00000000000000009A
:103B000000000000000000000000000000000000B5
:103B10000000000000000000000A0000000000009B
:103B20001E0000321E0A1E5050323250001E00503D
:103B30003200501E000000000000000000000000E5
:103B40000000000000000000000000000000000075
:103B50000000000000000000000000000000000065
:103B6000000A1E5050323250001E00503200501ECB
:103B70000000000000000000000000000000000045
:103B80000000000000000000000000000000000035
:103B9000000000000000000000000000001E001EE9
:103BA000001E001E005000501E0A00000000000011
:103BB0000000000000000000000000000000000005
:103BC00000000000000000000000000000000000F5
:103BD0000000000000003200001E0032321E503291
:103BE0000050005050000050000000000000000095
:103BF00000000000000000000000000000000000C5
:103C000000000000000000000000000000000000B4
:103C100000003200001E5032321E50325050005010
:103C20005050505000000000000000000000000054
:103C30000000000000000000000000000000000084
:103C4000000000000000001E0A0A0A001E323200B6
:103C500050501E32321E320A0A320000320A0A3234
:103C60000000000000000000000000000000000054
:103C70000000000000000000000000000000000044
:103C800000000A0A0A3232001E0A0A001E1E1E0A1C
:103C90000A1E3200003250003200003200000000E4
:103CA0000000000000000000000000000000000014
:103CB000000000000A000032000000321E001E005A
:103CC0000000001E0A00001E501E0A0000003250B4
:103CD0006E50001E32506E500000000000000000C8
:103CE00000000000000000000000000000000000D4
:103CF00000000000000A0000000A0A000000003274
:103D00000A000032000A0A1E1E32320A0A0A501E37
:103D10003200000A00000000000000000000000067
:103D20000000000000000000000000000000000093
:103D30000000000000000000000000001E00000A5B
:103D400050001E0A1E0A321E1E32001E321E1E3275
:103D50000000000000000000000000000000000063
:103D6000000000000000000000000000001E000035
:103D700000000000000000001E00000A001E1E0AD5
:103D80000A0A6E506E32501E6E506E3200000000F5
:103D900000000000000000000000000000000032F1
:103DA0000000000000000000000A00000000000009
:103DB000000000001E00000A001E1E0A0A0A6E50C3
:103DC0006E32501E6E506E32000000000000000087
:103DD00000000000000000000000000000000000E3
:103DE0000000000000000A000000000A0A1E1E0079
:103DF0001E00000A501E1E00000A326E6E320A1E9D
:103E0000326E6E3200000000000000000000000072
:103E1000000000000000000000000000001E1E1E48
:103E200000000A1E1E00000A0A1E1E001E00000AD4
:103E300050001E00000A326E6E320A1E326E6E3262
:103E40000000000000000000000000000000000072
:103E500000000000000000000000000A0000000A4E
:103E60000A000000000000000A00000A000A0A0020
:103E7000000A323232320A1E323232320000000080
:103E80000000000000000000000000000000000032
:103E90000000000000000000000000000000000022
:103EA0000000000A1E00001E32321E00001E321EDC
:103EB0001E32321E321E1E320000000000000000C2
:103EC00000000000000000000000000000000000F2
:103ED00000000000000000000000000000000000E2
:103EE00000000000320A6E00001E6E00006E3250AC
:103EF0006E00006E000000000000000000000000E6
:103F00000000000000000000000000000A000000A7
:103F1000001E0000000A0A000000001E1E00001E15
:103F20001E0A1E00001E501E32503250501E3250CB
:103F30000000000000000000000000000000000081
:103F40000000000000000000000000000000000071
:103F500000000000000000000A00001E1E0A0A1EE9
:103F60001E0032505050005032505050000000009F
:103F70000000000000000000000000000000000041
:103F80000000000000000000000000000000000031
:103F900032001E001E001E1E1E0A1E501E1E325023
:103FA00050501E5032000050000000000000000081
:103FB0000000000000000000000000000000000001
:103FC00000000000000000000000000032001E00A1
:103FD0001E001E1E1E0A1E501E1E325050501E5025
:103FE000320000500000000000000000000000004F
:103FF000000000000000000000000000000A1E0099
:1040000000001E1E3200001E321E32001E50501EC6
:104010001E1E1E50501E325050501E503200005076
:104020000000000000000000000000000000000090
:10403000000000000A00000000001E323200323290
:10404000320A1E000000000A0000001E1E1E1E0094
:10405000001E325050501E50325050500000000090
:10406000000000000000000000000000001E000032
:104070001E32321E0000320A0A000A0000001E0032
:10408000000000000000001E1E320000001E325022
:10409000505000503250505000000000000000000E
:1040A000000000000A0000000A32000032320A005C
:1040B00000000A000A0000000000000000000032BA
:1040C0000000001E1E323200001E320000501E5042
:1040D000320000500000000000000000000000005E
:1040E00000000000000000000000000000000000D0
:1040F0000000000000000000000000323200001E3E
:1041000000003200001E320000501E5032000050ED
:10411000000000000000000000000000000000009F
:10412000000000000000000000001E00000032003F
:1041300000000000320000003200001E1E0032505D
:10414000001E320000501E5032506E500000000021
:10415000000000000000000000000000000000005F
:104160000000000000000A0000000A00000000003B
:104170001E0000001E000A0A0A001E50001E500009
:1041800000501E5050506E50000000000000000013
:10419000000000000000000000000000000000001F
:1041A00000001E0000001E000000000032000000A1
:1041B000320000321E3250500032505050501E50CB
:1041C00050506E5000000000000000000000000091
:1041D000000000000000000000000000000A0000D5
:1041E000000000000000001E00000000321E1E3211
:1041F0001E32501E1E32505050501E5050506E50A5
:1042000000000000001E0000000000000000000090
:10421000000000003200000000001E00000000004E
:10422000001E1E000000001E1E5032321E321E50A4
:104230005032500000501E5050000050000000004E
:10424000000000000000000000000000000000006E
:104250000000000000000000001E001E001E0A00FA
:10426000001E1E1E1E1E1E321E321E1E1E32501E1E
:104270001E000A5050000000000000000000000076
:1042800000000000000000000000000050000000DE
:104290000000501E0000001E1E000000001E1E1E1A
:1042A0001E1E1E321E321E1E1E3250000000005006
:1042B00050000000000000000000000000000000AE
:1042C00000320000321E0032321E000000000A1EC2
:1042D0001E00001E1E0A1E00001E1E1E001E1E3294
:1042E0001E320A1E1E325000000000505000000016
:1042F0000000000000000000000000000A000000B4
:10430000320A00000A1E32000000001E0A00000AE5
:10431000000A00000000001E000000321E320A00E9
:10432000003250505000005050505000000000002B
:10433000000000000000000032000000320A00000F
:10434000000A0A00001E00000A001E00000A001EEB
:104350001E00001E1E0000321E320A00001E501EEB
:104360000A1E0050501E0A0000000000000000005D
:10437000000000000000000000000000000000003D
:1043800000000000000000000000001E000000000F
:104390001E00003200320A00001E501E001E005097
:1043A000501E00000000000000000000000000009F
:1043B0000000001E0000000000000000001E0000C1
:1043C00000000000000000001E00001E3200001E61
:1043D0001E00321E0032501E1E321E50501E003271
:1043E00000000000000000000000000000000000CD
:1043F0000000000000000000001E1E0000001E0063
:104400000000001E1E00001E3200501E1E00325012
:10441000503250501E321E505050003200000000EA
:10442000000000000000000000000000000000008C
:104430000000001E00000000001E0000321E0000F0
:104440000032321E0032501E1E0032505032505088
:104450001E321E50505000320000000000000000CC
:104460000000000000320000000000320000000ADE
:10447000000000000000001E0A00000000320000E2
:10448000323250001E00320A5032500A1E321E5084
:10449000500A00320000000000000000000A000086
:1044A000003200000A00000A3200000000000A008A
:1044B0000000001E0A0000000032000032325000EE
:1044C0001E00320A5032500A1E321E50500A00326C
:1044D00000000000000000000000000000000000DC
:1044E00000000000000000000000000000000000CC
:1044F0000000000000000000323250001E00320AAE
:104500005032500A1E321E50500A00320000FF0086
:1045100000FF0000FF0000FF00000000000000009E
:104520000102030406070809000000000102030459
:104530005045000800000020640000002A27000801
:10454000B445000864000020B40700003A270008C2
:10455000000000000000000000000000000000005B
:10456000000000000000000000000000000000004B
:104570000000000000000000000042303035300A2A
:1045800042303035310A42303035320A423030352F
:10459000330A00001200000B0000000000000000C1
:1045A000000000000000000000000000000000000B
:0445B00000127A007B
:04000005080000B13E
:00000001FF
