:020000040800F2
:10000000C0080020C5000008412D0008DD200008C0
:1000100000000000000000000000000000000000E0
:100020000000000000000000000000004D2E00084D
:100030000000000000000000892D000819340008AD
:10004000D700000800000000D7000008D700000813
:10005000D7000008D7000008D7000008D700000824
:1000600000000000990C0008D7000008D700000825
:10007000D7000008D7000008D700000800000000E3
:10008000D70000080000000000000000D7000008B2
:1000900000000000D7000008D7000008D7000008C3
:1000A00000000000D700000800000000D138000860
:1000B0000348854600F03CF800480047BD39000879
:1000C000C00800200448804704480047FEE7FEE7D8
:1000D000FEE7FEE7FEE7FEE725350008B100000871
:1000E00030B50B46014600202022012409E00D46D0
:1000F000D5409D4205D31D469540491B2546954058
:1001000040191546521E002DF1DC30BDD2B201E07F
:100110000270401C491EFBD270470022F6E710B562
:1001200013460A4604461946FFF7F0FF204610BD65
:10013000064C0125064E05E0E36807CC2B430C3C3A
:1001400098471034B442F7D3FFF7B6FFCC550008F8
:10015000EC55000870B5044620688168490720D531
:10016000816810254907002905DA8168890702D4CA
:1001700081682943816001F027FA06460DE001F00D
:1001800023FA801B022808D9606C28436064A06CA5
:1001900001210843A064012070BD206880684007E9
:1001A000EDD4002070BD10B50146486A426C502362
:1001B0001A420AD1416C0122520211434164016882
:1001C000CA681205920F05D020E0C06B026B08468A
:1001D000904710BD026A002A18D10A68120715D587
:1001E0008A6801235207002A09DB4A680C24A243CB
:1001F0004A60416C1A0291431943416406E0416C24
:10020000202211434164816C1943816400F09CFEFB
:1002100010BD10B5406A416C402211434164816CAD
:1002200004221143816400F091FE10BD10B5406AB4
:1002300000F08BFE10BD0000F8B5A64D2878002810
:1002400078D000262E70A44800F0DAFF002803D0F2
:100250007221A2A003F078FB0020A44B1F461437A4
:1002600041005A5A7A52401CC0B20A28F8D30A22D6
:100270009E49994800F072FF002803D07E2197A084
:1002800003F062FB00246000385A0109984800F02E
:10029000BBF9641CE4B20A2CF5D3954F3846798932
:1002A000383000F0B1F9384638304189383000F044
:1002B000ABF9384670304189383000F0A5F938463E
:1002C000A8304189383000F09FF93846E030418944
:1002D000383000F099F98548B4384189383000F059
:1002E00093F982487C384189383000F08DF97F4895
:1002F000443844893830142C0CD20188491C89B206
:100300000180C82901D30680867246808680C68017
:1003100006813DE0502C0ED24188491C89B24180B3
:10032000C82902D346800121817206808680C6805A
:1003300006812DE053E08C2C0DD28188491C89B2B6
:100340008180C82902D3868002218172068046807E
:10035000C68006811CE0C82C0DD2C188491C89B218
:10036000C180C82902D3C6800321817206804680DD
:10037000868006810CE00189491C89B20181C82967
:1003800002D3068104218172068046808680C68061
:10039000807AFF26002823D001283ED002285ED094
:1003A00003287AD0600821183889814211D2B97A9D
:1003B000401AC0B26870688068880A214843688023
:1003C0006888FF2800D96E8068780C2801D30C203B
:1003D00068706878002802D06878401E6870F8BDA0
:1003E00038897989884211D9401A0A214843C0B214
:1003F000687068806888484368806888FF2800D9EA
:100400006E8068780C2801D30C206870687800280A
:10041000E5D06878401E6870F8BD0A212046FFF7D5
:100420005FFE01193889814212D2001B81004018F9
:10043000C0B26870688068880A214843688068880C
:10044000FF2800D96E8068780C2801D30C206870D2
:1004500068780028E0D06878401E6870F8BD6008B1
:1004600021183889814210D2001BC0B268706880A0
:1004700068880A21484368806888FF2800D96E8010
:1004800068780C2801D30C20687068780028E5D0C3
:100490006878401E6870F8BDFFE760082118388949
:1004A000814210D2001BC0B26870688068880A213F
:1004B000484368806888FF2800D96E8068780C28D7
:1004C00001D30C20687068780028E4D06878401E5A
:1004D0006870E0E738000020C00300202E2E5C4149
:1004E00070705C6164632E630000000006030020EE
:1004F0003A010020F8B50446206881688907890F11
:10050000012930D10168C90702D1C16809042AD57F
:1005100081680522114010250126012907D0606C51
:1005200028436064A06C3043A0640120F8BD81685A
:1005300002221143816021680320086001F044F821
:1005400007460CE001F040F8C01B022807D9606C98
:1005500028436064A06C3043A0640120F8BD20688B
:100560008068C007EED10020F8BD0000F8B5044651
:1005700000200090206881688907890F012905D132
:100580000168C90737D1C168090434D481681B4A9E
:10059000102611400125002907D0606C30436064AB
:1005A000A06C2843A0640120F8BD816829438160C4
:1005B000144813490068FFF793FD009002E000988B
:1005C000401E009000980028F9D100F0FDFF07467A
:1005D0000CE000F0F9FFC01B022807D9606C304323
:1005E0006064A06C2843A0640120F8BD2068006806
:1005F000C043C007EDD10020F8BD00001700008007
:1006000040420F004800002070B5044600222281BD
:10061000501EA081A07B400000190182A07B401CDD
:10062000C0B2A0730A2800D3A273002041000919A8
:100630000A8A2589AA4200D922810A8AA589AA4262
:1006400000D2A281098ACB18401CC0B20A28EDD37F
:100650000A211846FFF744FD608170BDF0B5FE4DDC
:100660002878401CC0B2287013287DD900262E702F
:100670006878FA4900280DD10022F94CA35C8B540C
:10068000A31820338F181B7920373B71521CD2B22C
:10069000242AF3D301280ED10022F14C4834A35C64
:1006A0008B54A31820338F181B7920373B71521CB1
:1006B000D2B2242AF3D302280ED10022E84C90347F
:1006C000A35C8B54A31820338F181B7920373B7100
:1006D000521CD2B2242AF3D303280ED10022E04CBC
:1006E000D834A35C8B54A31820338F181B79203780
:1006F0003B71521CD2B2242AF3D304280DD100221C
:10070000D84CA35C8B54A31820338F181B79203747
:100710003B71521CD2B2242AF3D305280ED10022F9
:10072000D04C4834A35C8B54A31820338F181B790A
:1007300020373B71521CD2B2242AF3D306280ED1A3
:100740000022C84C9034A35C8B54A31820338F181C
:100750001B7920373B71521CD2B2242AF3D30728CD
:1007600010D10022BF4C00E02DE2D834A35C8B54A2
:10077000A31820338F181B7920373B71521CD2B23B
:10078000242AF3D308280DD10022B74CA35C8B5444
:10079000A31820338F181B7920373B71521CD2B21B
:1007A000242AF3D309280ED10022AF4C4834A35C8D
:1007B0008B54A31820338F181B7920373B71521CA0
:1007C000D2B2242AF3D30A280ED10022A64C9034A8
:1007D000A35C8B54A31820338F181B7920373B71EF
:1007E000521CD2B2242AF3D30B280ED100229E4CE5
:1007F000D834A35C8B54A31820338F181B7920376F
:100800003B71521CD2B2242AF3D30C280DD1002202
:10081000964CA35C8B54A31820338F181B79203778
:100820003B71521CD2B2242AF3D30D280ED10022E0
:100830008E4C4834A35C8B54A31820338F181B793B
:1008400020373B71521CD2B2242AF3D30E280ED18A
:100850000022864C9034A35C8B54A31820338F184D
:100860001B7920373B71521CD2B2242AF3D30F28B4
:100870000ED100227D4CD834A35C8B54A3182033B6
:100880008F181B7920373B71521CD2B2242AF3D324
:1008900010280DD10022764CA35C8B54A318203372
:1008A0008F181B7920373B71521CD2B2242AF3D304
:1008B00011280ED100226E4C4834A35C8B54A3182F
:1008C00020338F181B7920373B71521CD2B2242A57
:1008D000F3D312280ED10022654C9034A35C8B54C4
:1008E000A31820338F181B7920373B71521CD2B2CA
:1008F000242AF3D313280ED100225D4CD834A35CF4
:100900008B54A31820338F181B7920373B71521C4E
:10091000D2B2242AF3D314280DD10022554CA35C63
:100920008B54A31820338F181B7920373B71521C2E
:10093000D2B2242AF3D315280ED100224D4C4834CC
:10094000A35C8B54A31820338F181B7920373B717D
:10095000521CD2B2242AF3D316280ED10022454CC1
:100960009034A35C8B54A31820338F181B79203745
:100970003B71521CD2B2242AF3D317280ED1002285
:100980003C4CD834A35C8B54A31820338F181B79AC
:1009900020373B71521CD2B2242AF3D318280DD130
:1009A0000022354CA35C8B54A31820338F181B797D
:1009B00020373B71521CD2B2242AF3D319280ED10E
:1009C00000222D4C4834A35C8B54A31820338F187D
:1009D0001B7920373B71521CD2B2242AF3D31A2838
:1009E0000ED10022244C9034A35C8B54A3182033E6
:1009F0008F181B7920373B71521CD2B2242AF3D3B3
:100A00001B280ED100221C4CD834A35C8B54A31895
:100A100020338F181B7920373B71521CD2B2242A05
:100A2000F3D31C280DD10022144CA35C8B54A318C3
:100A300020338F181B7920373B71521CD2B2242AE5
:100A4000F3D31D2823D100220C4C4834A35C8B54D3
:100A5000A31820331B7913E03C0000202E03002054
:100A6000163A0008363B0008563C0008763D000860
:100A7000963E0008B63F0008D6400008F641000840
:100A80008F1820373B71521CD2B2242ADED31E2885
:100A90000DD100224C4CA35C8B54A31820338F182B
:100AA0001B7920373B71521CD2B2242AF3D31F2862
:100AB0000ED10022444C4834A35C8B54A31820333D
:100AC0008F181B7920373B71521CD2B2242AF3D3E2
:100AD00020280ED100223C4C9034A35C8B54A318E8
:100AE00020338F181B7920373B71521CD2B2242A35
:100AF000F3D321280ED10022334CD834A35C8B547D
:100B0000A31820338F181B7920373B71521CD2B2A7
:100B1000242AF3D322280DD100222C4CA35C8B5421
:100B2000A31820338F181B7920373B71521CD2B287
:100B3000242AF3D323280ED10022244C4834A35C6A
:100B40008B54A31820338F181B7920373B71521C0C
:100B5000D2B2242AF3D324280ED100221B4C903485
:100B6000A35C8B54A31820338F181B7920373B715B
:100B7000521CD2B2242AF3D325280ED10022134CC2
:100B8000D834A35C8B54A31820338F181B792037DB
:100B90003B71521CD2B2242AF3D326280DD1002255
:100BA0000B4CA35C8B54A31820338F181B79203770
:100BB0003B71521CD2B2242AF3D3401CC0B26870DD
:100BC000282800D36E70F0BD86420008A6430008B6
:100BD000C644000810B500F001F810BDF8B52A4A67
:100BE0002A4B107800241F461E3784460DE00A2148
:100BF000D17091783E5C4D1C95705E543C54401C05
:100C0000C0B250701E2800D3547050788445EED185
:100C1000D078002836D0401E0006000ED07010D1CB
:100C20001878422808D15878302805D1987830288B
:100C300002D1D878352805D094701E211348FFF7CB
:100C40006CFAF8BD187912490225302808D03128ED
:100C500013D0322814D03328F3D103200870F8BD04
:100C60000C7009200121C00600F0A0FC09490128F0
:100C700001D00C70F8BD0D70F8BD01200870F8BDF2
:100C80000D70F8BD9470F8BD110000204C000020DC
:100C90000D0000200C00002010B5034800F027FBD9
:100CA00002490120087010BD7C040020380000209B
:100CB00010B504460549206840181421FFF710FAC2
:100CC000800020640248E06310BD0000F8FFFDBF13
:100CD0000000024030B5056C0124AC40C56B6C606F
:100CE000046863604368102B04D00368996000684F
:100CF000C26030BD03689A600068C16030BD01E029
:100D0000401EC0B20028FBD17047000070B51148EA
:100D10000078002807D0012806D0022807D0032831
:100D200001D101F02BFD70BD02F0D2F870BDFFF7CC
:100D300095FC0020084B094C094D195C1A1820320B
:100D4000127921542A54401CC0B22428F5D301F052
:100D500093FC70BD0D0000202E03002076030020C0
:100D60009A03002010B500241021044800F01EFC56
:100D7000002800D10224204610BD000000040048D5
:100D8000F8B504460026254640352878012808D0C5
:100D900001202870206881688907890F012908D1FE
:100DA00001E00220F8BD0168C90738D1C168090413
:100DB00035D4616CFF2201329143022211436164F8
:100DC000C1688907890F0091C16889088900C160DD
:100DD0002068816892071143816000F0F5FB0746A7
:100DE0000EE000F0F1FBC01B022809D9606C022163
:100DF0008843102108436064002028700120F8BD5A
:100E0000206880680028ECDB2068C168009A1143E4
:100E1000C160606C80088000401C606404E0606C0D
:100E20002021084360640126002028703046F8BD68
:100E3000F8B5002500220092044640342278012AA9
:100E400039D0012323700268966876076AD43A4F36
:100E50004E68BE4250D0966A0F78BB401E439662E1
:100E60000123826B1B079A421FD0012A1DD0022A40
:100E70001BD0032A19D0042A17D0052A15D0062A18
:100E800013D0072A11D002688B6856697607760F4F
:100E9000B3420AD05369DB08DB0053610068426942
:100EA0000B7A5B075B0F1A4342610868102804D075
:100EB000112802D03BE00220F8BD204B9A68102890
:100EC00007D00120800502439A600868102803D0EB
:100ED0002DE00120C005F6E71A4819490068FFF720
:100EE000FFF80A214843009002E00098401E00905D
:100EF00000980028F9D11AE0906A0E78B340984320
:100F000090620868102801D0112810D10B498A6816
:100F1000102804D00120800582438A6007E0012068
:100F2000C005F9E7416C20221143416401250020EE
:100F300020702846F8BD0000011000000027014085
:100F400040420F0048000020704770477047000083
:100F5000F8B504460025002C03D0606C002802D0B0
:100F600008E00120F8BD0020A0644021085520467B
:100F700000F0AAF8606C1022C006002870DB206820
:100F8000816849076CD4616C1301994302231943AA
:100F9000616481688907890F012905D10168C90742
:100FA0000FD1C16809040CD4C16818239943A36800
:100FB0001943C16020680169636889008908194381
:100FC00001612068C1683E4B1940C160A06981037E
:100FD000E069C0030143206A43031943636B012B9B
:100FE00002D001231B0300E000231943E3681943E7
:100FF0002369022B09D000231943236B5B0019439B
:10100000666A0123012E02D00AE00423F4E70028D7
:1010100027D0606C202630436064A06C1843A06425
:10102000A06A0646FF3EC23E02D0E66A3043014354
:101030002068C6680E43C6600126A06B3607B04222
:1010400013D0012811D002280FD003280DD0042876
:101050000BD0052809D0062807D0072805D010E0B6
:1010600027E0012000040143DAE720684669F6081A
:10107000F600466120684669278F7F077F0F3E4351
:1010800046612068C0680F4E3040884207D100207A
:10109000A064606C80088000401C60640DE0606C9F
:1010A0000221884310436064A06C1843A0640125AA
:1010B00003E0606C1043606401252846F8BD000021
:1010C0001902FEFFE7FF3F8370B586B00646184958
:1010D000306888422AD11748826941150A438261E3
:1010E00080690840009002200190032002900025B2
:1010F0000395092001A9C00600F0B4F90F4C0E4871
:1011000020606560A5608020E06040002061800074
:101110006061A561E561204600F03EF9002803D03A
:10112000682107A002F010FCF463666206B070BD8F
:101130000024014000100240080002407C0400200E
:101140002E2E2F5372632F73746D3332663078787E
:101150005F68616C5F6D73702E630000F7B50446C5
:1011600000252068806840073ED426464036307807
:1011700001280BD001273770E069012803D02046F1
:10118000FFF7F4F90546002D02D02EE00220FEBD47
:10119000606C17490840FF2101310843606400205A
:1011A000A0643070E16B13488862E16B1248C8623A
:1011B000E16B1248086321681C20086020684168C0
:1011C0001022114341602068C1683943C160216821
:1011D000E06B4031029B019A00F00AF920688168B7
:1011E00004221143816000E002252846FEBD000074
:1011F000FEF1FFFFA70100082D02000813020008FE
:10120000F8B50446264640363078012808D0012734
:1012100037702046FEF79EFF0546280002D028E0E2
:101220000220F8BD2068C16849084900C160E06B30
:1012300000F023F80546280003D0606C40210843E5
:10124000606420684168102291434160002D05D000
:101250002046FFF74FF9002D05D00AE02046FFF7A2
:1012600049F90546F7E7606CFF21013188433843AF
:101270006064002030702846F8BD01680A680E23BB
:101280009A430A6001680A68520852000A60012302
:10129000026C19469140C26B5160203043700021AE
:1012A00001700020704770B50024014620314A7853
:1012B000022A03D004218163012416E00268136826
:1012C0000E25AB431360026813685B085B00136074
:1012D0000125036C2A469A40C36B5A604D70002268
:1012E0000A70416B002900D08847204670BDF0B4D9
:1012F000C16B0B6801680C680422056C1646AE4091
:101300001E4210D066070ED50B689B0602D40B68F0
:1013100093430B60016C8A40C16B4A60C16A00292B
:1013200038D0F0BC084702273E46AE4002461E4079
:101330002032002E15D0A60713D50B689B0605D4C6
:101340000B680A24A3430B6001215170016C8F408C
:10135000C16B4F6000211170816A00291AD0F0BC66
:1013600008470826AE401E4214D0230712D50B684A
:101370000E24A3430B600121046C0B46A340C46BF5
:1013800063608163517000211170016B002901D0ED
:10139000F0BC0847F0BC704770B50446002C23D061
:1013A0000220254620356870206801680F4A1140E8
:1013B000A368626826691A43E36833431A43636982
:1013C0001A43A3691A43E3691A430A430260204699
:1013D000FFF76EFC0020A062E06220636063A06300
:1013E00001216970287070BD012070BD0FC0FFFF22
:1013F000F8B504468C4600252046203001780129A6
:1014000009D00126067047780021012F05D0017010
:1014100002252846F8BD0220F8BD02274770A163C7
:101420002068016849084900016061462046FFF7CD
:1014300051FCE06A002805D0206801680E221143A3
:10144000016009E0206801680A22114301602068F8
:101450000168042291430160206801683143016002
:10146000D7E70000F8B500228EE001249440A4469E
:101470002340002B7ED04C68022C01D0122C0CD1C2
:10148000D408A40027183D6A5407E40E0F26A6408E
:10149000B5430E69A6402E433E62076855000324FB
:1014A000AC40A7430E79B607B60FAE403E43066088
:1014B0004E68012E05D0022E03D0112E01D0122E1F
:1014C0000ED18768A743CE68AE403E43866047682A
:1014D0006646B7430E79F606F60F96403E434660E1
:1014E000C668A6438C68AC403443C4604C68E400D2
:1014F00049D5284CA56901263543A561A469344026
:1015000000949508244CAD002F19BD689407240F52
:101510000F26A640B5430926F606B04201D10026A3
:101520000FE01E4EB04201D101260AE01C4EB0422F
:1015300001D1022605E01B4EB04201D1032600E096
:101540000526A6402E43BE60174D2C689C434E686E
:10155000F60300D51C432C606C689C434E68B603B0
:1015600000D51C436C60AC689C434E68F60200D505
:101570001C4300E007E0AC60EC689C434E68B60298
:1015800000D51C43EC60521C0B681C46D44000D0B4
:101590006BE7F8BD00100240000001400004004865
:1015A00000080048000C004800040140006908429F
:1015B00001D00120704700207047002A01D08161CE
:1015C0007047816270470000014800687047000062
:1015D0000000002002480168491C016070470000BB
:1015E0000000002010B50648016810221143016078
:1015F000002000F007F800F017F8002010BD0000F0
:101600000020024010B5044600F052F97D21C900C7
:10161000FEF766FD00F0A2FB00222146501E00F0FE
:1016200029F8002010BD000008B50C48816901228E
:101630001143816180691040009000221146501FC3
:1016400000F018F800221146901E00F013F8002256
:101650001146501E00F00EF808BD000000100240B8
:10166000C106C90E0120884001490860704700008A
:1016700000E100E010B501F065FB10BDF8B50446CF
:101680002068374DC00356D50026E869C00007D44E
:10169000E86929040843E861E869084000900126E8
:1016A00030480168C90513D4014608688A151043FB
:1016B0000860FFF789FF074606E0FFF785FFC01BBC
:1016C000642801D90320F8BD26480068C005F4D578
:1016D000286A03210902084000281FD062680A40D6
:1016E00082421BD0286A88432A6A012109040A43DE
:1016F0002A622A6A8A432A622862C0070ED0FFF74C
:1017000063FF074607E0FFF75FFFC11B16488142F2
:1017100001D90320F8BD286A8007F4D5286A03217F
:1017200009028843616808432862012E03D1E869F1
:1017300031078843E8612078C00705D0286BA1688D
:1017400080088000084328632078800605D5286B30
:1017500010218843E168084328630020F8BD000099
:10176000001002400070004088130000F8B50446E5
:101770000E464A480068C007C00FB0420CD2474826
:10178000016849084900314301600068C007C00F83
:10179000B04201D00120F8BD2078414F800705D527
:1017A0007868F0218843A168084378602078C007F2
:1017B00049D06068012806D0022809D03968890715
:1017C0000BD40120F8BD3968890306D40120F8BD87
:1017D0003968890101D40120F8BD79688908890038
:1017E00001437960FFF7F0FE0546606801280AD0E2
:1017F000022816D023E0FFF7E7FE411B294881426B
:1018000001D90320F8BD78680007800F0128F2D1C4
:1018100019E0FFF7D9FE411B2248814201D903207C
:10182000F8BD78680007800F0228F2D10BE0FFF7BF
:10183000CBFE411B1B48814201D90320F8BD7868CB
:101840000007800FF3D115480168C907C90FB142DD
:101850000BD9016849084900314301600068C0079D
:10186000C00FB04201D00120F8BD2078400706D556
:101870007868072109028843E1680843786000F02E
:101880002DF87968084A0906090F515CC8400749D4
:1018900008600020FFF7B6FE0020F8BD00200240DF
:1018A0000010024088130000B255000848000020D4
:1018B00001480068704700004800002000B5FFF7AD
:1018C000F7FF04494968044A4905490F515CC8407B
:1018D00000BD000000100240C255000810B588B0DD
:1018E00016A0436802688168C06805930492069157
:1018F000079016A001460EC9C0686C460EC403903E
:10190000164B5A680C2011460140154804290FD087
:1019100008290DD19102090F04AC645CD96A6B46A9
:101920000907090F595CD20304D5FEF7D9FB6043C0
:1019300008B010BD0B486043FAE70000020304053D
:10194000060708090A0B0C0D0E0F10100102030404
:1019500005060708090A0B0C0D0E0F1000100240B7
:1019600000127A0000093D00FEB504462078F04DD3
:10197000C00756D068680007800F012807D0686844
:101980000007800F02280AD16868C00307D52868BD
:10199000800346D56068002843D10120FEBD0121A7
:1019A00060680904012811D08A00002812D0052897
:1019B00017D02868884328602868904328606068AA
:1019C000002820D0FFF700FE064618E028680843EC
:1019D0002860F4E7286888432860286890432860D6
:1019E000EDE7286810432860286808432860E6E788
:1019F000FFF7EAFD801B642801D90320FEBD28689B
:101A00008003F5D50DE0FFF7DFFD064606E0FFF7A2
:101A1000DBFD801B642801D90320FEBD28688003FC
:101A2000F5D4207801268007002849DA6868000785
:101A3000800F07D068680007800F022812D16868FD
:101A4000C0030FD42868800704D5E068012801D0BE
:101A50000120FEBD2868F82188432169C900084398
:101A600028602DE0E068002818D0286830432860FE
:101A7000FFF7AAFD074606E0FFF7A6FDC01B0228F8
:101A800001D90320FEBD28688007F5D52868F82114
:101A900088432169C9000843286011E0286840088C
:101AA00040002860FFF790FD074606E0FFF78CFD39
:101AB000C01B022801D90320FEBD28688007F5D489
:101AC0002078000726D5E069002811D0686A3043E5
:101AD0006862FFF779FD074606E0FFF775FDC01B5A
:101AE000022801D90320FEBD686A8007F5D511E000
:101AF000686A400840006862FFF766FD074606E036
:101B0000FFF762FDC01B022801D90320FEBD686AF1
:101B10008007F5D4207804274007002871DA0020D8
:101B20000190E869C00008D4E969B8060143E96199
:101B3000E96901400091012001907E480168C905D2
:101B400013D40168821511430160FFF73DFD029037
:101B500007E0FFF739FD0299401A642801D90320F4
:101B6000FEBD74480068C005F3D5A068012811D0F7
:101B7000002813D0052819D0286A400840002862A0
:101B8000286AB8432862A068002823D0FFF71CFD0C
:101B900002901BE0286A30432862F4E7286A400874
:101BA00040002862286AB8432862ECE7286A384374
:101BB0002862286A30432862E5E7FFF705FD0299AD
:101BC000411A5D48814201D90320FEBD286A800781
:101BD000F3D50FE0FFF7F8FC029008E0FFF7F4FC04
:101BE0000299411A5448814201D90320FEBD286A56
:101BF0008007F3D40198012803D1E96900078143E4
:101C0000E9612078C00640D5606901280CD0401DEC
:101C100026D0686B38436863686B4008400068638F
:101C2000FFF7D2FC06462DE0686B38436863686BAB
:101C300030436863FFF7C8FC064606E0FFF7C4FCC4
:101C4000801B022801D90320FEBD686B8007F5D5F3
:101C5000686BF8218843A169C9000843686314E0F0
:101C6000686BB8436863686BF8218843A169C90051
:101C70000843686309E0FFF7A7FC801B022801D92D
:101C80000320FEBD686B8007F5D4206A00284BD086
:101C900069680907890F022948D001273F060228F1
:101CA00006D02868B8432860FFF78EFC044638E069
:101CB0002868B8432860FFF787FC064606E0FFF770
:101CC00083FC801B022801D90320FEBD2868800107
:101CD000F5D4E86AE16A000900010843E862616A34
:101CE000A06A084369683D22120491430843686072
:101CF000286838432860FFF767FC044606E0FFF7D2
:101D000063FC001B022801D90320FEBD2868800166
:101D1000F5D509E0FFF758FC001B022801D9032084
:101D2000FEBD28688001F5D40020FEBD0120FEBD67
:101D30000010024000700040881300000422054992
:101D4000042803D00869904308617047086910436C
:101D50000861704700E000E07047000010B50949D5
:101D6000401E884201D9012010BD074C606103214B
:101D7000081F00F0E7FF0020A0610720206100207D
:101D800010BD0000FFFFFF0000E000E010B5FFF70E
:101D9000E3FF10BD70B50446204660300546407A2A
:101DA00021280FD12068816809060BD5816880221F
:101DB00091438160206E002801D0FFF75EFA204633
:101DC00001F072FCA87A22280FD1206881684906A8
:101DD0000BD58168402291438160606E002801D05C
:101DE000FFF74BFA204601F043FC002070BD70471E
:101DF000F8B504462368D869196805072D0F002D2A
:101E000007D1820605D58A0603D5204601F055FC88
:101E1000F8BD9A68002D68D0D507ED0FFF26213652
:101E20000E402E4361D0C60706D0CE0504D501264C
:101E30001E62E36E3343E366860702230427002E07
:101E400006DAD60704D026683362E66E3E43E666BD
:101E5000460706D5D20704D022681762E26E1A43FD
:101E6000E266020709D520220A402A4305D02368EA
:101E700008221A62E36E1343E366E26E002AC7D0BB
:101E8000800604D5880602D5204601F016FCE06ED7
:101E9000000703D420688068400620D5204601F062
:101EA000E7FB20688168490615D581684022914387
:101EB0008160606E00280AD014494163606EFFF7AC
:101EC000F2F90028A4D0606E416B8847F8BD204627
:101ED000FFF78DFFF8BD2046FFF789FFF8BD2046CC
:101EE000FFF785FF0020E066F8BD020605D50A066B
:101EF00003D5204601F0B8FCF8BD4006FCD54806E5
:101F0000FAD5204601F0C3FBF8BD00005D3600089D
:101F100070B50446002C05D025466035687A002847
:101F200002D006E0012070BD00202872204600F09B
:101F300029F8242068722068016849084900016076
:101F4000204601F0E3FB012819D0606A002802D086
:101F5000204601F015FB206841680122D20291431E
:101F6000416020688168082291438160206801688F
:101F7000012211430160204601F067FB70BD012082
:101F800070BD000000B587B00068124988421FD1BB
:101F900011488269012189030A43826180690840EE
:101FA00001900C2002900220039000200490032056
:101FB000059001200690092002A9C006FFF752FAF9
:101FC000002211461B20FFF755FB1B20FFF748FBA3
:101FD00007B000BD003801400010024070B5034654
:101FE00060339C7A202C01D0022070BD00290AD0D9
:101FF000002A08D0012584682D03AC4209D1066966
:10200000002E02D005E0012070BDCE0701D00120D6
:1020100070BD1E7A012E0ED001261E72416501464A
:1020200040310A834A83FF22AC4209D10469002C63
:1020300003D08A830BE0022070BD0E4A8A8306E03B
:10204000002C04D10469002C12D07F228A83002145
:10205000C16622229A72197201688A6832438A60C4
:1020600000680168FF22213211430160002070BD29
:102070008A83ECE7FF01000030B5034660335C7AE9
:10208000202C01D0022030BD00290AD0002A08D01F
:10209000012584682D03AC4209D10469002C02D0CB
:1020A00005E0012030BDCC0701D0012030BD1C7AF5
:1020B000012C10D0C164014640310A824A820021BD
:1020C000C16621225A721972006801688022114388
:1020D0000160002030BD022030BD7047FEE70000E7
:1020E0000920C00601680322920291430160016841
:1020F00001229202114301600168032212039143FD
:10210000016001680122120311430160016803228A
:10211000920391430160016801229203114301601F
:102120000168032212049143016001680122120434
:102130001143016020218161402181618021816101
:10214000490081610149012088617047000400480D
:10215000F0B501460023092220264027D206154D5E
:102160000124080601D5966100E09662080601D5B3
:10217000976100E09762080602D58020906101E037
:1021800080209062080603D5FF200130906102E0B4
:10219000FF20013090620020FEF7B1FDAC6100200D
:1021A000FEF7ADFD4806010EAC625B1CDBB2082BEE
:1021B000D7D3F0BD00040048F0B500211A4A194BEE
:1021C000092412188027E4060125184E203A1B180E
:1021D000203BD87F000603D5A7612020A06102E044
:1021E000A7622020A062D07F000605D5FF20013025
:1021F000A0614020A06104E0FF200130A0624020E7
:10220000A0620020FEF77BFDB561D87F4000D87743
:10221000D07F4000D077B562491CC9B20829D8D315
:10222000F0BD0000A6000020CA0000200004004805
:1022300000B5FFF755FF20210920C006816240212B
:10224000816280218162490081620020FEF757FD92
:1022500001490120886200BD0004004870B52024B7
:102260000921C9068C6240258D6280228A62530052
:102270008B620020FEF743FD054E0120B061002077
:10228000FEF73DFD8C618D618A618B6170BD000040
:102290000004004800B5044901228A610020FEF7CD
:1022A0002EFD8A62002000BD00040048F8B53D4DB7
:1022B0000026A8783C4F002852D03C4901240878D9
:1022C000002800D10C7028790322422802D0C228AD
:1022D00046D13DE03548017833480229007803D0E3
:1022E000324A01291CD01FE000280FD001280FD04E
:1022F000022810D03E7009200121C006FFF756F9D0
:1023000000280AD02949022008700DE03C700BE03B
:102310000220387008E03A7006E02448067003E0B6
:10232000002813D03E701670214804702A894B2172
:10233000C9008A4214D106702E813878062148439C
:1023400018490A31401801F0CBFA09E03C70EBE77C
:10235000E879322804D217480178012917D004708F
:1023600013490878002814D028894B22401C80B2D9
:10237000D2002881904209D90E702E81397806202A
:10238000414308480A30081801F0AAFAF8BD027063
:10239000E6E728894B21C9008842F7D2401C2881F2
:1023A000F8BD0000160000200D0000200C000020E9
:1023B000100000200A00002070B5304C0026A670E6
:1023C0002378834201D0207070BD2C496078CA7890
:1023D00049790125834230D10028F5D0A379002B1B
:1023E000F2D05B1E1B061B0EA371EDD12071002ADB
:1023F00000D1A570002912D01422012916D002297B
:1024000001D00329E0D103216171802108432071AB
:10241000A271E079FA28D7D2401CE07170BD6571D5
:102420002021084320713220A07170BD022161710A
:10243000602108432071A27170BD002817D020715F
:10244000002A00D1A570012908D00C48C02240788C
:102450001043022906D0032907D105E04021084393
:10246000207102E0207100E02071667101E0E670E9
:10247000E6710520A071637070BD00001600002099
:1024800010B5FEF76FFCFFF797FF10BD002807D0CF
:10249000012807D0022807D0032807D0072070475B
:1024A00017207047132070470F2070470B2070478C
:1024B0003EB5224820490160490541600021816004
:1024C000C16001240461082242618161C16104622A
:1024D0004162FF22C2328262C16201634163FEF740
:1024E00037FD002803D0CF2115A001F02DFA00946C
:1024F0000120000301900720029069460F48FEF773
:1025000097FC002803D0D9210DA001F01DFA0B483B
:10251000FEF736FC002803D0DD2109A001F014FAF3
:102520000A220B490548FEF719FE002803D0E121D5
:1025300003A001F009FA3EBD00240140C0030020C1
:102540002E2E2F5372632F6D61696E2E6300000073
:102550000603002008B50848416901221143416182
:10256000406910400090002211460920FFF782F8D0
:102570000920FFF775F808BD00100240F0B587B0DC
:1025800025484269012149040A43426142690A40DF
:102590000192426949000A43426140690840019042
:1025A0001E4D0926F606002229463046FFF705F89B
:1025B0001B4F002203213846FEF7FFFF1120029037
:1025C00000240394049402A93046FEF74BFF0295C1
:1025D000012503950494059402A93046FEF742FFB5
:1025E0000320029003950494059402A93846FEF74F
:1025F00039FF082002900394049402A93846FEF79C
:1026000031FF102002900394049502A93846FEF78A
:1026100029FF07B0F0BD000000100240E09F00005D
:102620000004004810B50F480D4901604B21C90155
:10263000416000218160C16001610C2242618161C1
:10264000C16101621021416209028163FFF760FCF0
:10265000002803D0F62104A001F076F910BD000097
:10266000003801400C0400202E2E2F5372632F6D72
:1026700061696E2E630000003D493E480A7F42704A
:102680008A7FC2700A462032137843719278C271F1
:10269000CA7B02704A7C8270CA7C02714A7D827158
:1026A000CA7D02724A7E82728A7B42730A7CC2733E
:1026B0008A7C42740A7DC2748A7D42750A7EC27524
:1026C0004A780273CA7882734A790274CA7982742A
:1026D0004A7A0275CA7A82750A7842768A78C27610
:1026E0000A7942778A79C27702460B7A2032537090
:1026F000897AD1701E4924394B780376CB7883765A
:102700004B790377CB798377487A1070C87A9070C9
:1027100019480A7842708A78C2700A7942718A79B7
:10272000C2710A7A42728A7AC272CA7B02704A7C89
:102730008270CA7C02714A7D8271CA7D02724A7EB1
:1027400082728A7B42730A7CC2738A7C42740A7DDD
:10275000C2748A7D42750A7EC2754A7F0273C97F40
:1027600081730349091F4A780274C97881747047DC
:102770009A030020A6000020CA000020F0B5002225
:10278000F64FF74CF74DC82300200B21891A8E0015
:102790008919CE19315C242901D2635402E06918E9
:1027A00040390B77401CC0B20528F3D3521CD2B27B
:1027B0000C2AE9D30026EC48002702780020B1005B
:1027C0007118002A7ED0012A7DD0022A7CD0032AEB
:1027D0007BD0042A7AD0052A79D0062A78D0072A15
:1027E00077D0082A76D0092A75D00A2A74D00B2A05
:1027F00073D00C2A72D00D2A71D00E2A70D00F2AF5
:102800006FD0102A6ED0112A6DD0122A6CD0132AE4
:102810006BD0142A6AD0152A69D0162A68D0172AD4
:1028200067D0182A66D0192A79D01A2A78D01B2A9C
:1028300077D01C2A76D01D2A75D01E2A74D01F2A64
:1028400073D0202A72D0212A71D0222A70D0232A54
:102850006FD0242A6ED0252A6DD0262A6CD0272A44
:102860006BD0282A6AD0292A69D02A2A68D02B2A34
:1028700067D02C2A72D02D2A71D02E2A70D02F2A00
:102880006FD0302A6ED0312A6DD0322A6CD0332AE4
:102890006BD0342A6AD0352A69D0362A68D0372AD4
:1028A00067D0382A72D0392A71D03A2A70D03B2AA0
:1028B0006FD03C2A6ED03D2A6DD03E2A6CD03F2A84
:1028C0006BD018E03EE041E044E053E056E059E0D0
:1028D00064E067E06AE06DE070E073E076E079E084
:1028E00083E086E08AE08DE090E093E096E099E076
:1028F0009CE09FE0A2E0402A70D0412A6FD0422A9B
:102900006ED0432A6DD0442A6CD0452A6BD0462A1B
:102910006AD0964BCB181B5C002B6ED0D4E191E0B3
:1029200094E097E09AE09DE0A0E0A3E0A6E0A9E0B3
:10293000ACE0AFE0B2E0B5E0B8E0BBE0BEE0C1E0E3
:10294000C4E0C7E08A4BCB181B5CE5E7894BCB188A
:102950001B5CE1E7884BCB181B5CDDE7BEE0C1E008
:10296000C4E0C7E0CAE0CDE0D0E0D3E0D6E0D9E0F3
:10297000DCE0DFE0814BCB181B5CCDE7804BCB1854
:102980001B5CC9E77F4BCB181B5CC5E7D6E0D9E0E1
:10299000DCE0DFE062E165E168E16BE17A4BCB18F6
:1029A0001B5CB9E7794BCB181B5CB5E7784BCB18B0
:1029B0001B5CB1E7774BCB181B5CADE7764BCB18B4
:1029C0001B5CA9E7754BCB181B5CA5E7744BCB18B8
:1029D0001B5CA1E7734BCB181B5C9DE74EE151E1FB
:1029E00054E157E15AE15DE160E16F4BCB181B5CAC
:1029F00092E76E4BCB181B5C8EE75BE16C4BCB1800
:102A00001B5C89E76B4BCB181B5C85E76A4BCB18CB
:102A10001B5C81E7694BCB181B5C7DE7684BCB18CF
:102A20001B5C79E7674BCB181B5C75E7664BCB18D3
:102A30001B5C71E7654BCB181B5C6DE7644BCB18D7
:102A40001B5C69E7634BCB181B5C65E7624BCB18DB
:102A50001B5C61E7614BCB181B5C5DE7604BCB18DF
:102A60001B5C59E75F4BCB181B5C55E75E4BCB18E3
:102A70001B5C51E75D4BCB181B5C4DE75C4BCB18E7
:102A80001B5C49E75B4BCB181B5C45E75A4BCB18EB
:102A90001B5C41E7594BCB181B5C3DE7584BCB18EF
:102AA0001B5C39E7574BCB181B5C35E7564BCB18F3
:102AB0001B5C31E7554BCB181B5C2DE7544BCB18F7
:102AC0001B5C29E7534BCB181B5C25E7524BCB18FB
:102AD0001B5C21E7514BCB181B5C1DE7504BCB18FF
:102AE0001B5C19E74F4BCB181B5C15E74E4BCB1803
:102AF0001B5C11E74D4BCB181B5C0DE74C4BCB1807
:102B00001B5C09E74B4BCB181B5C05E74A4BCB180A
:102B10001B5C01E7494BCB181B5CFDE6484BCB180F
:102B20001B5CF9E6474BCB181B5CF5E6464BCB1814
:102B30001B5CF1E6454BCB181B5CEDE6444BCB1818
:102B40001B5CE9E6434BCB181B5CE5E6424BCB181C
:102B50001B5CE1E6374BCB181B5CDDE6DA3900087D
:102B6000A6000020CA0000203E0000207655000884
:102B70000E4500084A45000886450008C245000881
:102B8000FE4500083A46000876460008B2460008AE
:102B9000EE4600082A47000866470008A2470008DA
:102BA000DE4700081A480008564800089248000806
:102BB000CE4800080A490008464900088249000832
:102BC000BE490008FA490008364A0008724A00085F
:102BD000AE4A0008EA4A0008264B0008624B00088B
:102BE0009E4B0008DA4B0008164C0008524C0008B7
:102BF0008E4C0008CA4C0008064D0008424D0008E3
:102C00007E4D0008BA4D0008F64D0008324E00080F
:102C10006E4E0008AA4E0008E64E0008224F00083B
:102C20005E4F00089A4F0008D64F00081250000867
:102C30004E5000088A500008C65000080251000893
:102C40003E5100087A510008B6510008F2510008C0
:102C50002E5200086A520008A65200082A4BCB18D0
:102C60001B5C59E6294BCB181B5C55E6284BCB184F
:102C70001B5C51E6274BCB181B5C4DE6264BCB1853
:102C80001B5C49E6254BCB181B5C45E6244BCB1857
:102C90001B5C41E6234BCB181B5C3DE6224BCB185B
:102CA0001B5C39E6214BCB181B5C35E6204BCB185F
:102CB0001B5C31E61F4BCB181B5C242B01D2E75465
:102CC00002E0EB18403B1F77401CC0B2052800D241
:102CD00077E5761CF6B20C2E00D26FE51648007828
:102CE000FFF7D4FB154A5178491CC9B25170814293
:102CF00008D3394657701078401CC0B2107048286D
:102D000000D31170F0BD0000E25200081E5300080D
:102D10005A53000896530008D25300080E54000876
:102D20004A54000886540008C2540008FE540008A3
:102D30003A550008DA390008390000203E0000202A
:102D4000704700008307FF22DB0E9A408907090EB7
:102D5000994000280BDA0007000F0838830808485C
:102D60009B001818C36993430B43C36170478308E2
:102D700004489B001818036893430B430360704793
:102D800000ED00E000E400E07047000010B5012213
:102D90000920D103C006FEF710FC0748022181710B
:102DA0000721C17100214172012101721E220349D4
:102DB0000348FFF713F910BD040000206A0000204B
:102DC0000C04002010B500F007F8024800F01CF8D1
:102DD00010BD0000EE0000200020094900220A5426
:102DE000401CC0B24B28FAD32620064A12780A5457
:102DF000401CC0B24A28FAD3012008707047000076
:102E0000EE0000200B00002070B50546FFF710FA19
:102E10007820FFF79DF9FFF73DFA0020FFF798F9BA
:102E2000FFF738FA0024601E242803D22046FFF75B
:102E3000C3F902E0285DFFF78BF9FFF72BFA641C5A
:102E4000E4B24B2CEFD3FFF709FA70BD70470000D6
:102E5000F8B50926F60601213046FEF7A7FB1A4C05
:102E60000025217888420FD001213046FEF79EFBD5
:102E7000207001213046FEF799FB002802D0022085
:102E8000207201E02572657210211048FEF78EFB5A
:102E90000127FF03002808D001213046FEF786FBFA
:102EA000002802D1207A002804D001223946304679
:102EB000FEF783FB207A002805D16572002239468F
:102EC0003046FEF77AFBF8BD0400002000040048FD
:102ED000F0B50022F64FF74CF74DC82300200B2128
:102EE000891A8E008919CE19315C242901D26354C4
:102EF00002E0691840390B77401CC0B20528F3D3B3
:102F0000521CD2B20C2AE9D30026EC4800270278E2
:102F10000020B1007118002A7ED0012A7DD0022A3B
:102F20007CD0032A7BD0042A7AD0052A79D0062ABD
:102F300078D0072A77D0082A76D0092A75D00A2AAD
:102F400074D00B2A73D00C2A72D00D2A71D00E2A9D
:102F500070D00F2A6FD0102A6ED0112A6DD0122A8D
:102F60006CD0132A6BD0142A6AD0152A69D0162A7D
:102F700068D0172A67D0182A66D0192A79D01A2A59
:102F800078D01B2A77D01C2A76D01D2A75D01E2A0D
:102F900074D01F2A73D0202A72D0212A71D0222AFD
:102FA00070D0232A6FD0242A6ED0252A6DD0262AED
:102FB0006CD0272A6BD0282A6AD0292A69D02A2ADD
:102FC00068D02B2A67D02C2A6FD02D2A6ED02E2ABB
:102FD0006DD02F2A6CD0302A6BD0312A6AD0322A99
:102FE00069D0332A68D0342A67D0352A70D0362A7F
:102FF0006FD0372A6ED0382A6DD0392A6CD03A2A51
:103000006BD03B2A6AD03C2A69D03D2A68D03E2A40
:1030100067D03F2A6FD018E03EE041E04EE052E03A
:1030200060E064E068E06CE070E074E078E07BE031
:1030300087E08BE08FE093E096E09AE09EE0A2E0EC
:10304000A6E0A9E0ADE0B1E0B5E0402A71D0412AA8
:1030500070D0422A6FD0432A6ED0442A6DD0452AC0
:103060006CD0462A6BD0964BCB181B5C002B67D0DC
:10307000ABE1A5E0A8E0ACE0B0E0B4E0B8E0BBE0D4
:10308000BFE0C3E0C7E0CBE0CEE0D2E0D6E0DAE0DC
:10309000DEE0E1E0E5E0E9E08A4BCB181B5CE5E728
:1030A000884B3C33CB181B5CE0E7E4E0E8E0EBE066
:1030B000EFE0F3E0F7E019E11CE120E1814B783328
:1030C000CB181B5CD2E77F4BB433CB181B5CCDE72E
:1030D0001AE11EE122E125E129E12DE131E135E1AD
:1030E00039E13CE1774BF033CB181B5CBEE7764B04
:1030F000CB181B5CBAE737E1734B3C33CB181B5C36
:10310000B4E7714B7833CB181B5CAFE76E4BB4332D
:10311000CB181B5CAAE76C4BF033CB181B5CA5E704
:103120006A4BCB181B5CA1E7684B3C33CB181B5C8C
:103130009CE71EE122E126E129E12DE131E135E1C3
:1031400039E1624B7833CB181B5C8FE75F4BB433AC
:10315000CB181B5C8AE75D4BF033CB181B5C85E713
:103160005B4BCB181B5C81E7594B3C33CB181B5C8A
:103170007CE7574B7833CB181B5C77E7544BB43361
:10318000CB181B5C72E7524BF033CB181B5C6DE71E
:10319000504BCB181B5C69E74E4B3C33CB181B5C88
:1031A00064E74C4B7833CB181B5C5FE7494BB43377
:1031B000CB181B5C5AE7474BF033CB181B5C55E729
:1031C000454BCB181B5C51E7434B3C33CB181B5C86
:1031D0004CE7414B7833CB181B5C47E73E4BB4338D
:1031E000CB181B5C42E73C4BF033CB181B5C3DE734
:1031F0003A4BCB181B5C39E7384B3C33CB181B5C84
:1032000034E7364B7833CB181B5C2FE7334BB433A2
:10321000CB181B5C2AE7314BF033CB181B5C25E73E
:103220002F4BCB181B5C21E72D4B3C33CB181B5C81
:103230001CE72B4B7833CB181B5C17E7284BB433B8
:10324000CB181B5C12E7264BF033CB181B5C0DE749
:10325000244BCB181B5C09E7224B3C33CB181B5C7F
:1032600004E7204B7833CB181B5CFFE61D4BB433CF
:10327000CB181B5CFAE61B4BF033CB181B5CF5E656
:10328000194BCB181B5CF1E6174B3C33CB181B5C7E
:10329000ECE6154B7833CB181B5CE7E6124BB433E6
:1032A000CB181B5CE2E6104BF033CB181B5CDDE661
:1032B000DA390008A6000020CA00002043000020E0
:1032C000765500080E4500083A4600086647000893
:1032D00092480008BE490008EA4A0008164C000857
:1032E000424D00086E4E00089A4F0008444BCB1820
:1032F0001B5CBBE6424B3C33CB181B5CB6E6404B39
:103300007833CB181B5CB1E63D4BB433CB181B5C58
:10331000ACE63B4BF033CB181B5CA7E6394BCB1824
:103320001B5CA3E6374B3C33CB181B5C9EE6354B4E
:103330007833CB181B5C99E6324BB433CB181B5C4B
:1033400094E62F4B3C3BCB181B5C8FE62D4BF033A8
:10335000CB181B5C8AE62C4BCB181B5C86E62A4BF1
:103360003C33CB181B5C81E6274B7833CB181B5CB6
:103370007CE6254BB433CB181B5C77E6224BF0334D
:10338000CB181B5C72E6214BCB181B5C6EE61F4B07
:103390003C33CB181B5C69E61C4B7833CB181B5CA9
:1033A00064E61A4BB433CB181B5C5FE6174BF03363
:1033B000CB181B5C5AE6164BCB181B5C242B01D296
:1033C000E75402E0EB18403B1F77401CC0B20528D1
:1033D00000D2A0E5761CF6B20C2E00D298E50D497D
:1033E0004878401CC0B248700F2807D33B464F7046
:1033F000521CD0B20870482800D30B70F0BD0000FA
:10340000C6500008F25100081E5300084A54000834
:10341000DA3900084300002010B5FEF7DBF8FEF7AC
:10342000B5FC114801210170104A1078401CC0B24F
:103430001070062801D3002010701078002801D1E8
:103440000B4A1170012801D10A4A1170022801D1DA
:10345000094A1170032801D1084A1170052801D1C9
:103460000748017010BD0000050000200E0000207C
:1034700006000020070000200800002009000020AE
:103480000F00002070B594B01220089001250B9514
:103490000D9510200C900E90022610960024119489
:1034A0000520C0041290139408A8FEF75DFA0028C6
:1034B00003D0942117A000F047FA07200490059646
:1034C00006940794012104A8FEF750F9002803D0C0
:1034D000A12110A000F038FA009502946846FEF78A
:1034E000CDF8002803D0A8210AA000F02DFAFEF79D
:1034F000DFF97D21C900FCF7F3FDFEF72FFC042066
:10350000FEF71CFC00221146501EFEF7B3F814B063
:1035100070BD00002E2E2F5372632F6D61696E2EC9
:1035200063000000134801680122114301604168F3
:10353000114A114041600168104A11400160016860
:10354000012292049143016041683F221204914399
:103550004160C16A09090901C162016BFF2214328D
:1035600091430163416B4908490041630021816037
:1035700070470000001002400CB8FF08FFFFF6FE85
:1035800010B5818CC90707D001684A6801235B0424
:103590009A43836A1A434A60818C890707D5016878
:1035A0004A6801231B049A43C36A1A434A60818C08
:1035B000490707D501684A6801239B049A43036BB6
:1035C0001A434A60818C090707D501684A680123BC
:1035D000DB039A43436B1A434A60818CC90607D5C3
:1035E00001688A6801231B039A43836B1A438A602C
:1035F000818C890607D501688A6801235B039A4399
:10360000C36B1A438A60818C490612D501684B68E6
:1036100001221205046C934323434B60016C9142D9
:1036200007D101684A6803235B059A43436C1A4338
:103630004A60818C090607D501684A680123DB04CA
:10364000806C9A4302434A6010BD0022C26620216A
:1036500060304172817202720020704710B5406A7A
:103660000022014640314A834A82FEF7C0FB10BD6A
:1036700001680A68FF2321339A430A6001686030B9
:103680008A68520852008A6020218172704710B502
:1036900001680A6840239A430A60202269210A547B
:1036A000FEF71BFD002010BD016860300A68C023D2
:1036B0009A430A6020214172704710B504465C208D
:1036C000025B6A20005D222809D0204600F024F920
:1036D00020688169082211438161022010BD2068A1
:1036E000808C0123A1681B03994202D12169002922
:1036F00004D0204600F010F9002010BD616D10408C
:103700000880606D801C6065F6E70000F8B504462F
:10371000102000210025A3682269E669134362692D
:1037200032431343226816684B4F3E401E431660D7
:103730002268536803263603B343E6683343536075
:10374000A369226A1343226896680B273F02BE438F
:103750001E439660414A126B9207920F06D0012ACF
:1037600008D0022A08D0032A07D101E0002004E093
:10377000022002E0042000E008200122E369D203D5
:10378000934235D100280ED0022816D004281CD030
:10379000082824D001250A0912010807400F104308
:1037A0002168C8602DE0FEF789F8616840004A088A
:1037B0008018FCF795FC81B2EDE76168284A48085B
:1037C0008018FCF78DFC81B2E5E7FEF787F86168A9
:1037D00040004A088018FCF783FC81B2DBE761688F
:1037E0000122480812048018FCF77AFC81B2D2E763
:1037F000002808D0022811D0042819D0082822D087
:1038000001252846F8BDFEF759F861684A08801876
:10381000FCF766FC216880B2C860F2E76168114A73
:1038200048088018FCF75CFC216880B2C860E8E7B3
:10383000FEF754F861684A088018FCF751FC2168CB
:1038400080B2C860DDE7616848088018FCF748FC72
:10385000216880B2C860D4E7F369FFFF001002401E
:103860000024F40000127A006921095C212901D0AA
:1038700002207047014640314A8A002A12D00123B3
:1038800082681B039A4202D10269002A16D0C26CD8
:10389000531CC364006812780285488A401E48821F
:1038A0000020704701680A6880239A430A60006814
:1038B000016840221143016000207047C26C036818
:1038C0001288D205D20D1A85C26C921CC264E4E73C
:1038D00010B50248FEF78CFA10BD00000C04002061
:1038E00070B5054600240A48FEF754FA094903E07A
:1038F0000855641CE4B26D1C28780A2801D0002801
:10390000F6D1224603490248FEF7B6FB70BD00001F
:103910000C040020880000205C21095C0068828C77
:10392000074B0A40074908781A54401CC0B2087077
:103930001E2801D3002008700A20C870002070479C
:103940006A00002011000020FEE702E008C8121FF4
:1039500008C1002AFAD170477047002001E001C178
:10396000121F002AFBD17047FFF710FA124D0024F6
:103970006878002804D06C70FCF75EFCFFF768FAEA
:10398000A878002804D0AC70FEF77AFDFEF78EFC14
:10399000E878002802D0EC70FDF71CF9287900289F
:1039A00002D02C71FDF7B2F968790028E0D06C7173
:1039B000FFF708FADCE7000004000020FDF712FE24
:1039C000FFF760FDFEF7DAFDFEF7C4FDFEF770FDC0
:1039D000FEF728FEFFF7C8FFFEE73B2F23170B3A41
:1039E0002E22160A392D211509382C201408372BC0
:1039F0001F1307362A1E120635291D110534281CEF
:103A0000100433271B0F0332261A0E023125190D1D
:103A1000013024180C00000000000000000000002D
:103A20000000000080008000800000800000000096
:103A30000000800080000000000000000000000086
:103A40000080800000000000000000808000000076
:103A50000000000000000000800000800000000066
:103A60000000000000000000000000000000000056
:103A70008000008000800080000080000080000046
:103A800000000080000000000000000000000000B6
:103A900000008000800080008000800000000000A6
:103AA0008080800000000000000000008000008096
:103AB0000000000000000000800000800000000006
:103AC0000000808000800000000080800080008076
:103AD00000000000000000008000000000008000E6
:103AE0000080008000800000000000000000000056
:103AF00000AD40000000000000000000ADAD00007F
:103B000000000040400040000000ADAD004040001B
:103B100000000000AD0000000000000000000000F8
:103B2000ADAD004000000000000000000000ADADA1
:103B30004000000000008080000000000000000045
:103B40000000000080000000004040004000000035
:103B50000000808000000000004080800000000025
:103B60000000000000000000000000008080000055
:103B70000000000000008080000000000000808045
:103B800000004040000000008000800000000000B5
:103B900000000080808000000000800000800000A5
:103BA00000008080800040800000000000000000D5
:103BB0000000000000008000800080000000008005
:103BC00080000000000000000000000080000000F5
:103BD0000000000000000000008000000000000065
:103BE00000008080008000008000000080000080D5
:103BF00000800080800000000000008000000000C5
:103C00000000000000008000000000000000000034
:103C100000000000000000000000000080008000A4
:103C20008080000000000000000080800000000094
:103C30000000000080008000800000000000000004
:103C400000000000000000008000008000000080F4
:103C500080000000000000000000000000000000E4
:103C60000000000000008080800080008000008054
:103C70000080000000800080000000000080000044
:103C800000000000000000000000000000800000B4
:103C90000000000000000000008000000080000024
:103CA0000000800000000000000000008080808094
:103CB0008080000000000000000000008080008084
:103CC0000080000000000000000000000000000074
:103CD00000000000000000000000000000000000E4
:103CE00000000000000000000000000000000000D4
:103CF00000000000000000000000800080000000C4
:103D00004000800080000080000000000080000073
:103D10000080800000000000000080000000000023
:103D20000000000000000000000000000000808093
:103D30000080800000808000008000008080008083
:103D400000000000000000000000808000000080F3
:103D500000808080808000000080000000800000E3
:103D600080800080000000000000000000008080D3
:103D70000000000000000000000080000080000043
:103D80000000000000008000008000000000000033
:103D90000000808000000000000000000000000023
:103DA0008080000000000000008000800000000013
:103DB0008000008000008000800000000000000003
:103DC00000008000008000000000000000008080F3
:103DD0000080000000000000000080800000000063
:103DE00000000000000000008000008000800080D3
:103DF00080008000008000008000000000000000C3
:103E000000000000000000000000000080008000B2
:103E10008000008080008000008000000000000022
:103E20000000008000000000000000000000000012
:103E30000000000000000000808080000080008002
:103E40000080008000000000000000000000808072
:103E500000000000000000000000000000000080E2
:103E600080800000800080000080000000808000D2
:103E700000000080000000000000000000808000C2
:103E800000008000008080808000000000000000B2
:103E900000000000000080000000000000000000A2
:103EA0000000000080800000808000000080000092
:103EB0000000008000000000000000000080000002
:103EC0000080800000000000000000008000000072
:103ED0000000000000000080000000000000000062
:103EE0000000000000000000000000008000000052
:103EF000000000280000000000008000008000009A
:103F000000000000008080000000000000000000B1
:103F10008080000000000000000080800080808021
:103F20000000000000000000000000000000000091
:103F30000000000000000000000000000000000081
:103F40000000808000808000800080000080800071
:103F50000000008000000000000000000000008061
:103F60000080800000000000000000808000000051
:103F70000000008080000000000000000080800041
:103F80000000000000800000000000808000008031
:103F90008000000080000000000000000000000021
:103FA0000000000000000000000000000000000011
:103FB0000000000000008000000000000000008001
:103FC00080000000800000808000000000000000F1
:103FD0000080000000808000008000000000008061
:103FE00080000000008000000000000000800080D1
:103FF0000080800000008080800000000000000041
:1040000000008000008080000000008080800000B0
:1040100000800000000000000000800000000000A0
:104020000000000000800000800000000000000090
:104030008000000000000000000000000000000000
:1040400000000000000000800000000080000080F0
:104050000000000000008000008000000000000060
:104060000000808000000000000000800000800050
:104070000000000000000000000000000000000040
:104080000000000000000000000000000000000030
:104090000000800000808000000000808080000020
:1040A0000080000000000000000080000000000010
:1040B0000000000000800000800000000000000000
:1040C0008000000000000000000000000000000070
:1040D00000000000000000808000000000000000E0
:1040E00040000040000000000080008000800000D0
:1040F00000008000800000000000000000808000C0
:1041000000808000000000008000000080000000AF
:10411000008000000000000000000000800000405F
:1041200040000000000000004000004000000000CF
:10413000004000400040000000004000400000003F
:10414000000000000040400000404000000000006F
:10415000400000004000000000400000000000009F
:10416000000000004000000000000000000000000F
:1041700000000000000000006800680040004040AF
:1041800000284000000000680068000000000000F7
:10419000400040004000000000000000404000409F
:1041A00000000000000000000000000040000000CF
:1041B00000000000000000000000000000000000FF
:1041C000AD00400040004000000000404000000002
:1041D00000AD0000000000000000000000000040F2
:1041E000000000400000004040404000000000404F
:1041F000000040000000000000000000000000007F
:10420000000000008080800000008000808000802E
:10421000000000800080000000800000000000001E
:10422000000000000000000000000000000000008E
:10423000008000800000008080008000800000007E
:10424000008080000000000000000000808080806E
:10425000808000806800680000000080008000000E
:1042600000008000000000000000000000000000CE
:10427000000000000000000000800080000000003E
:1042800000800000000000000080800000000000AE
:10429000000000000000800080808000000000001E
:1042A000000080000080000000000000000080008E
:1042B00000800000000000008000808000808000FE
:1042C000000000000000800080000000000000806E
:1042D00000800000800000000000000000800080DE
:1042E000008080000080000000000080800000004E
:1042F00000000000000080800000000000000000BE
:10430000000000800000800000000000000080002D
:1043100000000000000000400040000040000000DD
:10432000000000000040004000404000004000004D
:10433000000000404000000000000000000040407D
:1043400000000000000000000000004000004000ED
:10435000000000000000400000000000000000001D
:10436000400040404000000000000000004000000D
:10437000000040400040400000000000000000003D
:10438000000040004000400040004040000040006D
:10439000000000000040400000000000000040005D
:1043A000400040000040004000000000404000008D
:1043B00000000000000000000000000040404040FD
:1043C00000000000000000000000000040404040ED
:1043D000400040000000000040404000000000009D
:1043E000004000400000400000000000000080800D
:1043F00080808080000040400000800080808080BD
:1044000080804080404040800000004000404000EC
:10441000004080808080808000000000000000005C
:10442000808080808080800080008000008080000C
:10443000000000000000808080808080808080807C
:10444000000000000000000000008080808000006C
:10445000000080008000800080008080808080805C
:10446000808000000000000000000000000080804C
:10447000000000000000008000800080008080803C
:1044800080800000000000008000000080808080AC
:10449000000080000080000000008000000000801C
:1044A000000080808080000000000000000000000C
:1044B000808080800000008080800000000000007C
:1044C00000000000000080800000000000000000EC
:1044D00000000000808080000000800080008000DC
:1044E000000080800080008000808080000000004C
:1044F00000000080808000008080000000000080BC
:10450000800000000000808000000080800000002B
:10451000000000000000000000000000000000009B
:10452000000000000000000000000000000000008B
:10453000000000000000000100000000000000007A
:104540000101010101010101000100000000000062
:10455000000000000000000000000000000000005B
:10456000000000000000000000000000000000004B
:104570000000000000000000000000000100000139
:104580000101010000010000000000000000000027
:10459000000000000000000000000000000000001B
:1045A0000000000000000000000000000000010109
:1045B00001010101010101010100000101010100EE
:1045C00000010000000000000000000000000000EA
:1045D00000000000000000000000000000000000DB
:1045E00000000001010000000000010101010100C4
:1045F00001010101010000010000010000010000B3
:1046000000000000000000000000000000000000AA
:10461000000000000000000000000000000000009A
:104620000001000000000101010001010001010181
:104630000101010101010101010100000000000070
:10464000000000000000000000000000000000006A
:104650000000010000000100010000010100000055
:104660000100010000010000000000010101010142
:104670000001010101010000000000000000000035
:104680000000000000000000000000010000000029
:104690000001000000010100000000010100010113
:1046A00001010101010101010100010101010100FC
:1046B00001010000000000000000000000000000F8
:1046C00000000000000000000000000000000000EA
:1046D00000010100000000010100000101010101D1
:1046E00000010101000101010101000101010000BF
:1046F00000000000000000000000000000000000BA
:1047000000000000000000010000000000010100A6
:104710000001000101000001010000010001010091
:104720000001010001010001010000000000000083
:104730000000000001010000000001010000000174
:104740000100000000010100010000000000010064
:10475000000001010101010101010101010000014D
:104760000101010000010000000000000001000044
:104770000101000000000101000000000000000035
:104780000000000001000000000101000001010024
:104790000001010101000001010000010001010010
:1047A0000001000000000000000000000000000008
:1047B00000000101000001010000000000000000F5
:1047C00001000000000101000000010000010101E2
:1047D00001000001010000010101010000010000D1
:1047E00000000000000000000000000000000000C9
:1047F00000000000000000000100000001010101B4
:1048000001000000000101000001010101000001A0
:104810000100000101010100000100000000000092
:104820000000000000000000000000000000000088
:104830000000000000000000000000000100000077
:10484000000100010001010000010001010001015F
:104850000101010001010000000000000000000053
:104860000000000000000000000000000000000048
:104870000000000000000000000000000000010037
:10488000000101000100000101010101010101011C
:104890000101000000000000000000000000000016
:1048A0000000000000000000000000000000000008
:1048B00000000000000000000000000100000000F7
:1048C00000010000010101010101010101000000DE
:1048D00000000000000000000000000000000000D8
:1048E00001000000000000000000000100000000C6
:1048F00000010101000001010101010101010101AB
:10490000010101000101010101000000000000009F
:104910000000000000000000000000000000010195
:104920000000000001010000010000000001010082
:10493000000001010101010101010101010000016B
:104940000101010000010001000000000001000061
:104950000101000000000101000001000000000052
:10496000010000000000010101000000010101013F
:10497000000101010101000101000101010101002B
:104980000101000000000000010000000101000022
:104990000000010000000000000000000000000016
:1049A0000000000000000000010101010100010100
:1049B00001010101010101000000000001000101ED
:1049C00000000000010100000101010000010000E1
:1049D00000000000000000000000000000000000D7
:1049E00000010001000001010100000101010100BE
:1049F00001000001000101000001010100000000B0
:104A000001010000010000000000000000000000A3
:104A10000000000000000000000000000000000195
:104A2000000001010100000101010100010000017D
:104A30000001010000010000000000000000000073
:104A40000000000000000000000001000000000065
:104A50000000000000010000000001010000010151
:104A6000010000010101010001000001000101003D
:104A70000001000000000000000000000000000035
:104A80000000000000000000000000000000000026
:104A90000000000000000001000100010101000110
:104AA00001010101010001010001010001010000FB
:104AB00000000000000000000000000000000000F6
:104AC00000000000000000000000000000000000E6
:104AD00001010001000101010101000001010101CA
:104AE00000000101000001000101000000000000C1
:104AF00000000000000000000000000000000000B6
:104B000000000000010000010000000000000000A3
:104B10000100000101010101010101010100000189
:104B20000101010000010000000000000000000081
:104B30000000000100000000000000000000000074
:104B40000000000000000000000000000000000065
:104B5000010000010101010001000001000101004C
:104B60000001000000000000000000000000000044
:104B70000000000100000000000000010000000033
:104B8000010000000000000001010000010100011F
:104B9000010101000100000100010100000100000D
:104BA0000000000000000000000000000000000104
:104BB00000000000000000010000000001000001F2
:104BC00000000100010100000100000101010100DD
:104BD00001000001000101000001000000000000D0
:104BE00000000000000000000000000000000000C5
:104BF00000000001000000000100010000000000B2
:104C00000100010101010001010101000100000199
:104C10000001010000010000000000000000000091
:104C20000000000000000000000000000000000084
:104C30000000000001000000000001000000010170
:104C4000010100010101010001000000010101005A
:104C50000000000000000000000000000000000054
:104C60000000000000000000000000000000000044
:104C70000000000000000000000000010100000032
:104C8000000101000100000101010100000100001C
:104C90000000000000000000000000000000000014
:104CA0000000000000000000000100000001010001
:104CB00000000001000001010000000001010000EF
:104CC00001010101010001010101000000000000DB
:104CD00000000000000000000000000100000001D2
:104CE00001000000000100000000000000000001C1
:104CF00000000001010000000001010001010101AC
:104D0000010101010101000000000000000100009C
:104D1000000100000000010100000001000000008F
:104D20000000000000010000000000000000000181
:104D3000000001000001010001000001010101006B
:104D4000000100010000000001010000000100005E
:104D50000000000100000000000000000000000052
:104D60000000000100010000010101010101010139
:104D70000101010001010101000001010101000028
:104D80000000000000000000000000000000000023
:104D9000000000010100000000010101000101000C
:104DA00000000001010000010101010001010101F9
:104DB00001000001010101000001000000000000ED
:104DC00000000000000000000000000000000001E2
:104DD00000000000000101000000010101000000CE
:104DE00000010100010101010101010101010001B6
:104DF00001010101000100000000000000000000AE
:104E000000000000000000000000000100000000A1
:104E1000000101000000010101000000000101008B
:104E20000101010101010101010100010101010173
:104E30000001000000000000000000000000000071
:104E40000000000000000000000000000000000062
:104E5000000000000000000001000101000000004F
:104E60000101010101000100000101010001000038
:104E70000000000000000000000000000000000032
:104E80000000000000000000000000000000000022
:104E90000000000000000000000000000100010010
:104EA00001000100000101010001000000000000FC
:104EB00000000000000000000000000000000000F2
:104EC00000000000000000000000000000000000E2
:104ED00000000000000000010001000101000100CD
:104EE00001010101000100000000000000000000BD
:104EF00000000000000000000000000000000000B2
:104F000000000000000000000000000000010000A0
:104F10000001010000000000000101010101010188
:104F20000001000000000000000000000000000080
:104F30000000000000000000000000000000000071
:104F40000000000000000000000000000000000061
:104F50000101010001010101010101010001000045
:104F60000000000000000000000000000000000041
:104F70000000000000000000000000000001000030
:104F80000000010000000100010100010101010118
:104F90000101010101010101000100000000000008
:104FA0000000000000000000000000000000000001
:104FB00000000000000000000000000001010100EE
:104FC00000010100000100010100010101010101D6
:104FD00001010101000100000000000000000000CC
:104FE00000000000000000000000000000000001C0
:104FF00000000000000000000101000000010100AD
:105000000001000101000101010101010101010193
:10501000000100000000000000000000000000008F
:10502000000000000000000000000001000000007F
:10503000000000000101000000010100000100016A
:105040000100010101010101010101010001000054
:105050000000000000000000000000000000000050
:105060000000000000000000000000000000000040
:105070000001000000010101010100010101010125
:105080000101010101010101000100000000000017
:105090000000000000000000000000000000000010
:1050A0000000000000000000000000000000000000
:1050B00000000101010100010101010101010101E3
:1050C00001010101000100000000000000000000DB
:1050D00000000000000000000000000000000000D0
:1050E00000000000000000000000010000000101BD
:1050F00000010001010101010101010101010101A2
:10510000000100000000000000000000000000009E
:10511000000000000000000000000000000000008F
:105120000001010000000101000001000101000177
:105130000101010101010101010101010001000062
:10514000000000000000000000000000000000005F
:10515000000000000000000000000000000001004E
:105160000000000100000101010000010101010136
:105170000101010101010101000100000000000026
:10518000000000000000000000000000000000001F
:10519000000000000000000000000000000000000F
:1051A00000000000010000010101010101010101F5
:1051B00001010101000100000000000000000000EA
:1051C00000000000000000000000000000000000DF
:1051D00000000000000000000000000000000000CF
:1051E00000000000000000000101010100010101B8
:1051F00000010000000000000000000000000000AE
:10520000000000000000000000000000000000009E
:10521000000000000000000000000000010000008D
:10522000000000000000000000010101000100007A
:10523000000000000000000000000000000000006E
:10524000000000000000000000000000000000005E
:10525000000000010000000000000000000001004C
:10526000000001000001000100010000000000003A
:10527000000000000000000000000000000000002E
:10528000000000000000000000000000000000001E
:10529000000000000000000001000000000000000D
:1052A00000010101000100000000000000000000FA
:1052B00000000000000000000000000000000000EE
:1052C00000000000000000000000000000000100DD
:1052D00000000001000000000100000000010101C9
:1052E00000010000000000000000000000000000BD
:1052F00000000000000000000000000000000000AE
:10530000000000000000000000000001010000009B
:105310000101000001000000000101010101000085
:10532000000000000000000000000000000000007D
:10533000000000000000000000000000000000006D
:105340000000000000000001010101000101010155
:105350000100000000010101010100000000000047
:10536000000000000000000000000000000000003D
:10537000000000000000000000000000000000002D
:105380000001010101000000010100000100000016
:105390000001010101010000000000000000000008
:1053A00000000000000000000000000000000000FD
:1053B00000000000000000000000000000000000ED
:1053C00000000000010100000100000101010101D5
:1053D00001010000000000000000000000000000CB
:1053E00000000000000000000000000000000000BD
:1053F00000000000000100000000010000000001AA
:105400000101000001000000010101010101000093
:10541000000000000000000000000000000000008C
:10542000000000000000000000000000000000007C
:105430000001000000000100000000010100000068
:105440000100000000010101010000000000000057
:10545000000000000000000000000000000000004C
:10546000000000000000000000000000000000003C
:105470000000010000000001010000010100000027
:105480000101010100000000000000000000000018
:10549000000000000000000000000000000000000C
:1054A00000000000000000000000000000000000FC
:1054B00000000001010000010100000101010101E3
:1054C00001010000000000000000000000000000DA
:1054D00000000000000000000000000000000000CC
:1054E00000000000000000000000000000000000BC
:1054F00000000001010100000001010101010000A4
:10550000000000000000000000000000000000009B
:10551000000000000000000000000000000000008B
:105520000000000000000000000000000001010079
:105530000000010100010101010100000000000064
:10554000000000000000000000000000000000005B
:10555000000000000000000000000000000000004B
:105560000000000000000000000001010101010135
:105570000101010101010000000000000000000025
:10558000000000000000000000000000000000001B
:10559000000000000000000000000000000000000B
:1055A00000010101000000010100000101010101F1
:1055B00001010000000000000000010203040607D2
:1055C000080900000000010203040000EC55000877
:1055D000000000204C0000004A390008385600083E
:1055E0004C000020740800005A3900080000000038
:1055F00000000000000000000000000000000000AB
:1056000000000000000000000000000042303035C3
:10561000300A42303035310A42303035320A4230B9
:105620003035330A000000000000000000000000D8
:085630000000000000127A00E6
:04000005080000B13E
:00000001FF
